{
  "contractName": "FundMe",
  "abi": [
    {
      "inputs": [],
      "stateMutability": "nonpayable",
      "type": "constructor"
    },
    {
      "inputs": [
        {
          "internalType": "uint256",
          "name": "current_amount",
          "type": "uint256"
        },
        {
          "internalType": "uint256",
          "name": "required_amount",
          "type": "uint256"
        }
      ],
      "name": "InsufficientBalance",
      "type": "error"
    },
    {
      "inputs": [
        {
          "internalType": "uint256",
          "name": "amount",
          "type": "uint256"
        }
      ],
      "name": "RequiredAmountCollected",
      "type": "error"
    },
    {
      "inputs": [
        {
          "internalType": "uint256",
          "name": "current_contribution",
          "type": "uint256"
        },
        {
          "internalType": "uint256",
          "name": "required_contribution",
          "type": "uint256"
        }
      ],
      "name": "TooLessContribution",
      "type": "error"
    },
    {
      "inputs": [
        {
          "internalType": "uint8",
          "name": "current_project_count",
          "type": "uint8"
        }
      ],
      "name": "TooMuchProjectRequest",
      "type": "error"
    },
    {
      "anonymous": false,
      "inputs": [
        {
          "indexed": true,
          "internalType": "uint256",
          "name": "id",
          "type": "uint256"
        },
        {
          "indexed": true,
          "internalType": "address",
          "name": "owner",
          "type": "address"
        },
        {
          "indexed": false,
          "internalType": "string",
          "name": "title",
          "type": "string"
        }
      ],
      "name": "Created_Project",
      "type": "event"
    },
    {
      "anonymous": false,
      "inputs": [
        {
          "indexed": true,
          "internalType": "uint8",
          "name": "id",
          "type": "uint8"
        },
        {
          "indexed": true,
          "internalType": "address",
          "name": "owner",
          "type": "address"
        },
        {
          "indexed": false,
          "internalType": "string",
          "name": "title",
          "type": "string"
        }
      ],
      "name": "Created_Request",
      "type": "event"
    },
    {
      "anonymous": false,
      "inputs": [
        {
          "indexed": true,
          "internalType": "uint256",
          "name": "id",
          "type": "uint256"
        },
        {
          "indexed": true,
          "internalType": "address",
          "name": "from",
          "type": "address"
        },
        {
          "indexed": false,
          "internalType": "uint256",
          "name": "value",
          "type": "uint256"
        }
      ],
      "name": "Supported_Project",
      "type": "event"
    },
    {
      "inputs": [],
      "name": "Project_ID_Count",
      "outputs": [
        {
          "internalType": "uint256",
          "name": "",
          "type": "uint256"
        }
      ],
      "stateMutability": "view",
      "type": "function",
      "constant": true
    },
    {
      "inputs": [],
      "name": "admin",
      "outputs": [
        {
          "internalType": "address",
          "name": "",
          "type": "address"
        }
      ],
      "stateMutability": "view",
      "type": "function",
      "constant": true
    },
    {
      "inputs": [
        {
          "internalType": "address",
          "name": "",
          "type": "address"
        }
      ],
      "name": "project_count",
      "outputs": [
        {
          "internalType": "uint8",
          "name": "",
          "type": "uint8"
        }
      ],
      "stateMutability": "view",
      "type": "function",
      "constant": true
    },
    {
      "inputs": [
        {
          "internalType": "address",
          "name": "",
          "type": "address"
        },
        {
          "internalType": "uint256",
          "name": "",
          "type": "uint256"
        }
      ],
      "name": "project_mapping",
      "outputs": [
        {
          "internalType": "uint256",
          "name": "",
          "type": "uint256"
        }
      ],
      "stateMutability": "view",
      "type": "function",
      "constant": true
    },
    {
      "inputs": [
        {
          "internalType": "uint256",
          "name": "",
          "type": "uint256"
        }
      ],
      "name": "projects",
      "outputs": [
        {
          "internalType": "address",
          "name": "project_owner",
          "type": "address"
        },
        {
          "internalType": "string",
          "name": "description",
          "type": "string"
        },
        {
          "internalType": "string",
          "name": "title",
          "type": "string"
        },
        {
          "internalType": "bool",
          "name": "is_complete",
          "type": "bool"
        },
        {
          "internalType": "uint256",
          "name": "minimum_contribution",
          "type": "uint256"
        },
        {
          "internalType": "uint256",
          "name": "sponsors_count",
          "type": "uint256"
        },
        {
          "internalType": "uint256",
          "name": "id",
          "type": "uint256"
        },
        {
          "internalType": "uint8",
          "name": "request_count",
          "type": "uint8"
        },
        {
          "internalType": "uint256",
          "name": "total_required_amount",
          "type": "uint256"
        },
        {
          "internalType": "uint256",
          "name": "current_amount",
          "type": "uint256"
        },
        {
          "internalType": "uint8",
          "name": "unsolved_request",
          "type": "uint8"
        }
      ],
      "stateMutability": "view",
      "type": "function",
      "constant": true
    },
    {
      "inputs": [
        {
          "internalType": "address",
          "name": "",
          "type": "address"
        }
      ],
      "name": "total_foundation_mapping",
      "outputs": [
        {
          "internalType": "uint256",
          "name": "",
          "type": "uint256"
        }
      ],
      "stateMutability": "view",
      "type": "function",
      "constant": true
    },
    {
      "inputs": [],
      "name": "total_sponsors",
      "outputs": [
        {
          "internalType": "uint256",
          "name": "",
          "type": "uint256"
        }
      ],
      "stateMutability": "view",
      "type": "function",
      "constant": true
    },
    {
      "inputs": [
        {
          "internalType": "string",
          "name": "_title",
          "type": "string"
        },
        {
          "internalType": "string",
          "name": "_description",
          "type": "string"
        },
        {
          "internalType": "uint256",
          "name": "_minimum_contribution",
          "type": "uint256"
        }
      ],
      "name": "create_project",
      "outputs": [
        {
          "internalType": "bool",
          "name": "success",
          "type": "bool"
        }
      ],
      "stateMutability": "nonpayable",
      "type": "function"
    },
    {
      "inputs": [
        {
          "internalType": "uint256",
          "name": "_id",
          "type": "uint256"
        },
        {
          "internalType": "string",
          "name": "_description",
          "type": "string"
        },
        {
          "internalType": "string",
          "name": "_title",
          "type": "string"
        },
        {
          "internalType": "address payable",
          "name": "_buyer",
          "type": "address"
        },
        {
          "internalType": "uint256",
          "name": "_value",
          "type": "uint256"
        }
      ],
      "name": "create_request",
      "outputs": [
        {
          "internalType": "bool",
          "name": "success",
          "type": "bool"
        }
      ],
      "stateMutability": "nonpayable",
      "type": "function"
    },
    {
      "inputs": [
        {
          "internalType": "uint256",
          "name": "procect_id",
          "type": "uint256"
        }
      ],
      "name": "support_project",
      "outputs": [
        {
          "internalType": "bool",
          "name": "success",
          "type": "bool"
        }
      ],
      "stateMutability": "payable",
      "type": "function",
      "payable": true
    },
    {
      "inputs": [
        {
          "internalType": "uint256",
          "name": "_project_id",
          "type": "uint256"
        },
        {
          "internalType": "uint8",
          "name": "_request_id",
          "type": "uint8"
        }
      ],
      "name": "approve_request",
      "outputs": [
        {
          "internalType": "bool",
          "name": "success",
          "type": "bool"
        }
      ],
      "stateMutability": "nonpayable",
      "type": "function"
    },
    {
      "inputs": [
        {
          "internalType": "uint256",
          "name": "_project_id",
          "type": "uint256"
        },
        {
          "internalType": "uint8",
          "name": "_request_id",
          "type": "uint8"
        }
      ],
      "name": "finalize_request",
      "outputs": [
        {
          "internalType": "bool",
          "name": "success",
          "type": "bool"
        }
      ],
      "stateMutability": "nonpayable",
      "type": "function"
    },
    {
      "inputs": [
        {
          "internalType": "uint256",
          "name": "_project_id",
          "type": "uint256"
        }
      ],
      "name": "finalize_project",
      "outputs": [
        {
          "internalType": "bool",
          "name": "success",
          "type": "bool"
        }
      ],
      "stateMutability": "nonpayable",
      "type": "function"
    },
    {
      "inputs": [],
      "name": "returnProject",
      "outputs": [
        {
          "internalType": "uint256[]",
          "name": "",
          "type": "uint256[]"
        }
      ],
      "stateMutability": "view",
      "type": "function",
      "constant": true
    },
    {
      "inputs": [
        {
          "internalType": "address",
          "name": "_sponsor",
          "type": "address"
        },
        {
          "internalType": "uint256",
          "name": "_procect_id",
          "type": "uint256"
        }
      ],
      "name": "supponsor_check",
      "outputs": [
        {
          "internalType": "bool",
          "name": "status",
          "type": "bool"
        }
      ],
      "stateMutability": "view",
      "type": "function",
      "constant": true
    },
    {
      "inputs": [
        {
          "internalType": "address",
          "name": "_sponsor",
          "type": "address"
        },
        {
          "internalType": "uint256",
          "name": "_procect_id",
          "type": "uint256"
        }
      ],
      "name": "return_sponsor_value",
      "outputs": [
        {
          "internalType": "uint256",
          "name": "",
          "type": "uint256"
        }
      ],
      "stateMutability": "view",
      "type": "function",
      "constant": true
    }
  ],
  "bytecode": "0x608060405234801561001057600080fd5b50600080546001600160a01b031916331781556001556116ba806100356000396000f3fe6080604052600436106100f35760003560e01c806365ec67d81161008a578063c835a09f11610059578063c835a09f146102c2578063eb695e15146102e2578063f851a44014610302578063ff5f03ca1461033a57600080fd5b806365ec67d8146102335780636d738c41146102605780638992fa12146102805780639bf2c77d146102a057600080fd5b806358e82414116100c657806358e82414146101975780635aa79259146101bb5780635c9b9563146101db57806361fec92c146101f157600080fd5b80630e8e2325146100f8578063107046bd1461012d5780633e3ec9d0146101645780634a43694c14610177575b600080fd5b34801561010457600080fd5b50610118610113366004611091565b61035a565b60405190151581526020015b60405180910390f35b34801561013957600080fd5b5061014d6101483660046110c7565b61050e565b6040516101249b9a99989796959493929190611126565b6101186101723660046110c7565b61069b565b34801561018357600080fd5b506101186101923660046110c7565b610870565b3480156101a357600080fd5b506101ad60015481565b604051908152602001610124565b3480156101c757600080fd5b506101ad6101d63660046111c1565b610932565b3480156101e757600080fd5b506101ad60065481565b3480156101fd57600080fd5b5061022161020c3660046111ed565b60036020526000908152604090205460ff1681565b60405160ff9091168152602001610124565b34801561023f57600080fd5b506101ad61024e3660046111ed565b60056020526000908152604090205481565b34801561026c57600080fd5b506101ad61027b3660046111c1565b610963565b34801561028c57600080fd5b5061011861029b3660046112b4565b6109aa565b3480156102ac57600080fd5b506102b5610b8e565b6040516101249190611321565b3480156102ce57600080fd5b506101186102dd366004611365565b610bef565b3480156102ee57600080fd5b506101186102fd3660046111c1565b610e39565b34801561030e57600080fd5b50600054610322906001600160a01b031681565b6040516001600160a01b039091168152602001610124565b34801561034657600080fd5b50610118610355366004611091565b610e87565b6000828260028281548110610371576103716113ed565b90600052602060002090600d0201600c018160ff1681548110610396576103966113ed565b600091825260209091206005600890920201015460ff16156103b757600080fd5b600092506000600286815481106103d0576103d06113ed565b90600052602060002090600d02019050600081600c018660ff16815481106103fa576103fa6113ed565b600091825260208083203384526005860190915260408320546008909202019250900361046e5760405162461bcd60e51b815260206004820152601860248201527f4f6e6c7920617070726f7665207468652073706f6e736f72000000000000000060448201526064015b60405180910390fd5b33600090815260078201602052604090205460ff16156104d05760405162461bcd60e51b815260206004820181905260248201527f4f6e6c7920617070726f7665206f6e636520666f7220616e20726571756573746044820152606401610465565b3360009081526007820160205260408120805460ff19166001179055600482018054916104fc83611419565b90915550600198975050505050505050565b6002818154811061051e57600080fd5b60009182526020909120600d9091020180546001820180546001600160a01b0390921693509061054d90611432565b80601f016020809104026020016040519081016040528092919081815260200182805461057990611432565b80156105c65780601f1061059b576101008083540402835291602001916105c6565b820191906000526020600020905b8154815290600101906020018083116105a957829003601f168201915b5050505050908060020180546105db90611432565b80601f016020809104026020016040519081016040528092919081815260200182805461060790611432565b80156106545780601f1061062957610100808354040283529160200191610654565b820191906000526020600020905b81548152906001019060200180831161063757829003601f168201915b505050600384015460048501546006860154600787015460088801546009890154600a8a0154600b909a0154989960ff96871699959850939650919490811693919291168b565b600081600281815481106106b1576106b16113ed565b600091825260209091206003600d90920201015460ff16156106d257600080fd5b600091506000600284815481106106eb576106eb6113ed565b90600052602060002090600d020190506000816009015482600a01541061072d5781600a0154604051636086231560e11b815260040161046591815260200190565b81600a015482600901546107419190611466565b90508160040154811180156107595750348260040154115b1561078657600480830154604051632c95503360e11b815234928101929092526024820152604401610465565b33600090815260058301602052604081205490036107b6576006820180549060006107b083611419565b91905055505b336000908152600583016020526040812080543492906107d7908490611479565b925050819055503482600a0160008282546107f29190611479565b9091555050604051348152339086907fd6a39cc93b60de38e5664ab11e72104f39804cdf902da5993541933e767eabfa9060200160405180910390a3336000908152600560205260408120805434929061084d908490611479565b90915550506006805490600061086283611419565b919050555050505b50919050565b60008160028181548110610886576108866113ed565b600091825260209091206003600d90920201015460ff16156108a757600080fd5b600091506000600284815481106108c0576108c06113ed565b60009182526020909120600d9091020180549091506001600160a01b031633146108e957600080fd5b600b81015460ff16156108fb57600080fd5b600a8101541561090a57600080fd5b60098101541561091957600080fd5b600301805460ff19166001908117909155915050919050565b6004602052816000526040600020818154811061094e57600080fd5b90600052602060002001600091509150505481565b600060028281548110610978576109786113ed565b600091825260208083206001600160a01b03871684526005600d90930201919091019052604090205490505b92915050565b33600090815260036020526040812054600560ff909116106109f657336000908152600360205260409081902054905163571b555b60e11b815260ff9091166004820152602401610465565b60028054600181018255600091909152600d027f405787fa12a823e0f2b7631cc41b3ba8828b3321ca811111fa75cd3aa3bb5ace810180546001600160a01b03191633178155907f405787fa12a823e0f2b7631cc41b3ba8828b3321ca811111fa75cd3aa3bb5ad001610a6986826114db565b5060018101610a7885826114db565b506001805460078301908155600480840186905560088401805460ff1990811690915560006006860181905560098601819055600a8601819055600b86018054831690556003860180549092169091553381526020918252604080822085548154968701825590835292909120909301558254905491516001600160a01b0390911691907fba8757d57892e38f2a4fc5bb45dd139b992e4912cff281e9d57610064406c5a690610b2c90600286019061159b565b60405180910390a3336000908152600360205260408120805460ff1691610b5283611626565b91906101000a81548160ff021916908360ff1602179055505060016000815480929190610b7e90611419565b9091555060019695505050505050565b33600090815260046020908152604091829020805483518184028101840190945280845260609392830182828015610be557602002820191906000526020600020905b815481526020019060010190808311610bd1575b5050505050905090565b60008560028181548110610c0557610c056113ed565b600091825260209091206003600d90920201015460ff1615610c2657600080fd5b60009150600060028881548110610c3f57610c3f6113ed565b60009182526020909120600d9091020180549091506001600160a01b03163314610cbc5760405162461bcd60e51b815260206004820152602860248201527f4f6e6c792070726f6a656374206f776e65722063616e2063726561746520616e604482015267081c995c5d595cdd60c21b6064820152608401610465565b600b810154600560ff90911610610cf157600b81015460405163571b555b60e11b815260ff9091166004820152602401610465565b600c810180546001818101835560009283526020909220600890910201908101610d1b88826114db565b5060028101610d2a89826114db565b506003810180546001600160a01b0319166001600160a01b0388161790556008820154815460ff90911660ff199182168117835560058301805490921690915560068201869055600060048301556040513391907feff2fb3872a1b9ca78b62f8ea0968e70a2dfd8cf70d5788ae6462a5e52c86dfc90610dae90600186019061159b565b60405180910390a360088201805460ff16906000610dcb83611626565b82546101009290920a60ff818102199093169183160217909155600b8401805490911691506000610dfb83611626565b91906101000a81548160ff021916908360ff1602179055505084826009016000828254610e289190611479565b909155505050505095945050505050565b60008060028381548110610e4f57610e4f6113ed565b600091825260208083206001600160a01b03881684526005600d90930201919091019052604090205411156109a45750600192915050565b6000828260028281548110610e9e57610e9e6113ed565b90600052602060002090600d0201600c018160ff1681548110610ec357610ec36113ed565b600091825260209091206005600890920201015460ff1615610ee457600080fd5b60009250600060028681548110610efd57610efd6113ed565b90600052602060002090600d02019050600081600c018660ff1681548110610f2757610f276113ed565b60009182526020909120835460089092020191506001600160a01b03163314610f4f57600080fd5b60028260060154610f609190611645565b816004015411610f6f57600080fd5b600581015460ff1615610f8157600080fd5b806006015482600a01541015610fbd57600a820154600682015460405163cf47918160e01b815260048101929092526024820152604401610465565b600381015460068201546040516001600160a01b039092169181156108fc0291906000818181858888f19350505050158015610ffd573d6000803e3d6000fd5b50806006015482600a0160008282546110169190611466565b90915550506006810154600983018054600090611034908490611466565b909155505060058101805460ff19166001179055600b82015460ff161561108457600b8201805460ff1690600061106a83611667565b91906101000a81548160ff021916908360ff160217905550505b5060019695505050505050565b600080604083850312156110a457600080fd5b82359150602083013560ff811681146110bc57600080fd5b809150509250929050565b6000602082840312156110d957600080fd5b5035919050565b6000815180845260005b81811015611106576020818501810151868301820152016110ea565b506000602082860101526020601f19601f83011685010191505092915050565b6001600160a01b038c1681526101606020820181905260009061114b8382018e6110e0565b9050828103604084015261115f818d6110e0565b9a151560608401525050608081019790975260a087019590955260c086019390935260ff91821660e086015261010085015261012084019190915216610140909101529392505050565b6001600160a01b03811681146111be57600080fd5b50565b600080604083850312156111d457600080fd5b82356111df816111a9565b946020939093013593505050565b6000602082840312156111ff57600080fd5b813561120a816111a9565b9392505050565b634e487b7160e01b600052604160045260246000fd5b600082601f83011261123857600080fd5b813567ffffffffffffffff8082111561125357611253611211565b604051601f8301601f19908116603f0116810190828211818310171561127b5761127b611211565b8160405283815286602085880101111561129457600080fd5b836020870160208301376000602085830101528094505050505092915050565b6000806000606084860312156112c957600080fd5b833567ffffffffffffffff808211156112e157600080fd5b6112ed87838801611227565b9450602086013591508082111561130357600080fd5b5061131086828701611227565b925050604084013590509250925092565b6020808252825182820181905260009190848201906040850190845b818110156113595783518352928401929184019160010161133d565b50909695505050505050565b600080600080600060a0868803121561137d57600080fd5b85359450602086013567ffffffffffffffff8082111561139c57600080fd5b6113a889838a01611227565b955060408801359150808211156113be57600080fd5b506113cb88828901611227565b93505060608601356113dc816111a9565b949793965091946080013592915050565b634e487b7160e01b600052603260045260246000fd5b634e487b7160e01b600052601160045260246000fd5b60006001820161142b5761142b611403565b5060010190565b600181811c9082168061144657607f821691505b60208210810361086a57634e487b7160e01b600052602260045260246000fd5b818103818111156109a4576109a4611403565b808201808211156109a4576109a4611403565b601f8211156114d657600081815260208120601f850160051c810160208610156114b35750805b601f850160051c820191505b818110156114d2578281556001016114bf565b5050505b505050565b815167ffffffffffffffff8111156114f5576114f5611211565b611509816115038454611432565b8461148c565b602080601f83116001811461153e57600084156115265750858301515b600019600386901b1c1916600185901b1785556114d2565b600085815260208120601f198616915b8281101561156d5788860151825594840194600190910190840161154e565b508582101561158b5787850151600019600388901b60f8161c191681555b5050505050600190811b01905550565b60006020808352600084546115af81611432565b808487015260406001808416600081146115d057600181146115ea57611618565b60ff1985168984015283151560051b890183019550611618565b896000528660002060005b858110156116105781548b82018601529083019088016115f5565b8a0184019650505b509398975050505050505050565b600060ff821660ff810361163c5761163c611403565b60010192915050565b60008261166257634e487b7160e01b600052601260045260246000fd5b500490565b600060ff82168061167a5761167a611403565b600019019291505056fea26469706673582212204b53e084e2736fa845b9cfe4919a678e58bd318c88b8b1b9113a42a749eb1fe364736f6c63430008120033",
  "immutableReferences": {},
  "source": "//SPDX-License-Identifier: MIT\r\n\r\npragma solidity 0.8.18;\r\n\r\n\r\ncontract FundMe{\r\n\r\n    address public admin;\r\n    uint8 private constant MAX_UNSOLVED_REQUEST = 5;\r\n    uint8 private constant MAX_PROJECT = 5;\r\n    uint256 public Project_ID_Count;\r\n    uint256 private constant DECIMAL = 10^18;\r\n    \r\n    // Request struct project owner can create MAX_UNSOLVED_REQUEST unsolved request\r\n    struct Request {\r\n        uint8 request_id;\r\n        string title;\r\n        string description;\r\n        address payable buyer;\r\n        uint256 approval_vote_count;\r\n        bool is_complete;\r\n        uint256 value;\r\n        mapping(address => bool) approvals;\r\n    }\r\n\r\n    // Projects Struct user can create MAX_PROJECT unsolved procect\r\n    struct Project{\r\n        address project_owner;\r\n        string description;\r\n        string title;\r\n        bool is_complete;\r\n        uint256 minimum_contribution;\r\n        mapping(address => uint256) sponsors;\r\n        uint256 sponsors_count;\r\n        uint256 id;\r\n        uint8 request_count;\r\n        uint256 total_required_amount;\r\n        uint256 current_amount;\r\n        uint8 unsolved_request;\r\n        Request[] requests;\r\n    }\r\n\r\n     Project[] public projects;\r\n     mapping(address => uint8) public project_count;\r\n     mapping(address => uint256[]) public project_mapping;\r\n     mapping(address => uint256) public total_foundation_mapping;\r\n     uint256 public total_sponsors;\r\n\r\n     \r\n     // Events\r\n     event Created_Project(uint256 indexed id, address indexed owner, string title);\r\n     event Created_Request(uint8 indexed id, address indexed owner,string title);\r\n     event Supported_Project(uint256 indexed id, address indexed from, uint256 value);\r\n     \r\n    // Custrom Errors\r\n    error TooMuchProjectRequest(uint8 current_project_count);\r\n    error TooLessContribution(uint256 current_contribution, uint256 required_contribution);\r\n    error RequiredAmountCollected(uint amount);\r\n    error InsufficientBalance(uint256 current_amount, uint256 required_amount);\r\n\r\n    constructor() {\r\n        admin = msg.sender;\r\n        Project_ID_Count = 0;\r\n    }\r\n\r\n    modifier only_admin_call(){\r\n        require(msg.sender == admin);\r\n        _;\r\n    }\r\n\r\n    modifier project_check(uint256 project_id){\r\n        require(!projects[project_id].is_complete);\r\n        _;\r\n    }\r\n\r\n    modifier request_check(uint256 project_id, uint8 request_id)  {\r\n        require(!projects[project_id].requests[request_id].is_complete);\r\n        _;\r\n    }\r\n    \r\n    function create_project(string memory _title, string memory _description, uint256 _minimum_contribution) public returns(bool success){\r\n        \r\n        // initialize the process\r\n        success = false;    \r\n\r\n        // Check project count (only create MAX_PROJECT)\r\n        if(project_count[msg.sender] >= MAX_PROJECT){\r\n               revert TooMuchProjectRequest({\r\n                current_project_count: project_count[msg.sender]\r\n            });\r\n        }\r\n\r\n        // create project\r\n        Project storage project = projects.push();\r\n        project.project_owner = msg.sender;\r\n        project.title = _title;\r\n        project.description = _description;\r\n        project.id = Project_ID_Count;\r\n        project.minimum_contribution = _minimum_contribution;\r\n        project.request_count = 0;\r\n        project.sponsors_count = 0;\r\n        project.total_required_amount = 0;\r\n        project.current_amount = 0;\r\n        project.unsolved_request = 0;\r\n        project.is_complete = false;\r\n\r\n        // track projects via address\r\n        project_mapping[msg.sender].push(Project_ID_Count);\r\n\r\n        // Emit event\r\n        emit Created_Project(\r\n            project.id,\r\n            project.project_owner,\r\n            project.title\r\n        );\r\n\r\n        // increase counters\r\n        project_count[msg.sender]++;\r\n        Project_ID_Count++;\r\n\r\n        // finilize the process\r\n        success = true;\r\n        return success;         \r\n    }\r\n\r\n    function create_request(uint256 _id, string memory _description, string memory _title, address payable _buyer, uint256 _value) project_check(_id) public returns(bool success){\r\n        \r\n        // Initialize process\r\n        success = false;\r\n\r\n        // Create project instance for gas save\r\n        Project storage projectIntance = projects[_id];\r\n        \r\n\r\n        // only project owner can call \r\n        require(msg.sender == projectIntance.project_owner, \"Only project owner can create an request\");\r\n\r\n        // Check unsolved request\r\n        if(projectIntance.unsolved_request >= MAX_UNSOLVED_REQUEST){\r\n               revert TooMuchProjectRequest({\r\n                current_project_count: projectIntance.unsolved_request\r\n            });\r\n        }\r\n\r\n        // Create Request\r\n        Request storage request = projectIntance.requests.push();\r\n        request.title = _title;\r\n        request.description = _description;\r\n        request.buyer = _buyer;\r\n        request.request_id = projectIntance.request_count;\r\n        request.is_complete = false;\r\n        request.value = _value;\r\n        request.approval_vote_count = 0;\r\n\r\n        // Emit event\r\n        emit Created_Request(request.request_id, msg.sender, request.title);\r\n\r\n        // increase counter\r\n        projectIntance.request_count++;\r\n        projectIntance.unsolved_request++;\r\n        projectIntance.total_required_amount += _value;\r\n\r\n        return success;\r\n    }\r\n\r\n    // support project \r\n    function support_project(uint256 procect_id) project_check(procect_id) public payable returns(bool success){\r\n        \r\n        // Initialize process\r\n        success = false;\r\n\r\n        // Create project instance\r\n        Project storage projectInstance = projects[procect_id];\r\n\r\n        // check required balance\r\n        uint256 required_balance;\r\n\r\n        // Check required amount is collected\r\n        if(projectInstance.current_amount >= projectInstance.total_required_amount){\r\n                revert RequiredAmountCollected({\r\n                amount: projectInstance.current_amount\r\n            });\r\n        }\r\n        else{\r\n            required_balance = projectInstance.total_required_amount - projectInstance.current_amount;\r\n        }\r\n\r\n        // check minimum contrubition\r\n        if( required_balance > projectInstance.minimum_contribution && projectInstance.minimum_contribution > msg.value){\r\n            revert TooLessContribution({\r\n                current_contribution: msg.value,\r\n                required_contribution: projectInstance.minimum_contribution\r\n            });\r\n        }\r\n\r\n        if(projectInstance.sponsors[msg.sender] == 0){\r\n            // increase the counter\r\n            projectInstance.sponsors_count++;\r\n        }\r\n\r\n        // add sponsor\r\n        projectInstance.sponsors[msg.sender] += msg.value;\r\n        projectInstance.current_amount += msg.value;\r\n\r\n        // Emit Event\r\n        emit Supported_Project(procect_id, msg.sender, msg.value);\r\n        total_foundation_mapping[msg.sender] += msg.value;\r\n        total_sponsors++;\r\n        \r\n\r\n        return success;\r\n    }\r\n\r\n    // vote request\r\n    function approve_request(uint256 _project_id, uint8 _request_id) request_check(_project_id,_request_id) public returns(bool success){\r\n        \r\n        // initalize process\r\n        success = false;\r\n        \r\n        // get project and request\r\n        Project storage projectInstance = projects[_project_id];\r\n        Request storage requestInstance = projectInstance.requests[_request_id];\r\n\r\n\r\n        // check is the approver funder\r\n        if(projectInstance.sponsors[msg.sender] == 0){\r\n            revert(\"Only approve the sponsor\");\r\n        } \r\n\r\n        // check only vote once\r\n        if(requestInstance.approvals[msg.sender]){\r\n            revert(\"Only approve once for an request\");\r\n        }\r\n\r\n        // assign approvals\r\n        requestInstance.approvals[msg.sender] = true;\r\n        requestInstance.approval_vote_count++;\r\n\r\n        success = true;\r\n\r\n        return success;\r\n    }\r\n\r\n    // finalize request\r\n    function finalize_request(uint256 _project_id, uint8 _request_id) request_check(_project_id,_request_id) public returns(bool success){\r\n\r\n        success = false;\r\n        // get project and request\r\n        Project storage projectInstance = projects[_project_id];\r\n        Request storage requestInstance = projectInstance.requests[_request_id];\r\n\r\n        // only project owner can finilize the request\r\n        require(msg.sender == projectInstance.project_owner);\r\n\r\n        // check the vote\r\n        require(requestInstance.approval_vote_count > (projectInstance.sponsors_count / 2));\r\n        require(!requestInstance.is_complete);\r\n\r\n        // check balance\r\n        if(projectInstance.current_amount < requestInstance.value){\r\n              revert InsufficientBalance({\r\n                current_amount: projectInstance.current_amount,\r\n                required_amount: requestInstance.value\r\n            });\r\n        }\r\n\r\n        // send money to buyer\r\n         payable(requestInstance.buyer).transfer(requestInstance.value);\r\n\r\n        // reduce current amount & total required amount\r\n        projectInstance.current_amount -= requestInstance.value;\r\n        projectInstance.total_required_amount -= requestInstance.value;\r\n\r\n        requestInstance.is_complete = true;\r\n        if(projectInstance.unsolved_request > 0){\r\n            projectInstance.unsolved_request--;\r\n        }\r\n\r\n        success = true;\r\n        return success;\r\n    }   \r\n\r\n    // finalize  project\r\n    function finalize_project(uint256 _project_id) project_check(_project_id) public returns (bool success) {\r\n\r\n        success = false;\r\n        Project storage projectInstance = projects[_project_id];\r\n\r\n        // only owner can call this function\r\n        require(msg.sender == projectInstance.project_owner);\r\n\r\n        // require all request are done\r\n        require(projectInstance.unsolved_request == 0);\r\n\r\n        // require all amount spent\r\n        require(projectInstance.current_amount == 0);\r\n\r\n        // require total required amount must be zero\r\n        require(projectInstance.total_required_amount == 0);\r\n\r\n        // mark project as is completed\r\n        projectInstance.is_complete = true;\r\n\r\n\r\n        success = true;\r\n        return success;\r\n\r\n    }\r\n\r\n\r\n    // max return size 5\r\n    function returnProject() public view returns(uint256[] memory){\r\n        return project_mapping[msg.sender];\r\n    }\r\n\r\n    function supponsor_check(address _sponsor, uint256 _procect_id) public view returns(bool status) {\r\n\r\n        status = false;\r\n        if(projects[_procect_id].sponsors[_sponsor] > 0){\r\n            status = true;\r\n        }\r\n        return status;\r\n    }\r\n\r\n    function return_sponsor_value(address _sponsor, uint256 _procect_id) public view returns(uint256) {\r\n        return projects[_procect_id].sponsors[_sponsor];\r\n    }\r\n\r\n\r\n    // safe maths functions     \r\n    function mul(uint256 a, uint256 b) internal pure returns (uint256 c) {\r\n        if (a == 0) {\r\n        return 0;\r\n        }\r\n        c = a * b;\r\n        assert(c / a == b);\r\n        return c;\r\n    }\r\n\r\n    function div(uint256 a, uint256 b) internal pure returns (uint256) {\r\n        return div(a, b, \"SafeMath: division by zero\");\r\n    }\r\n\r\n    function div(uint256 a, uint256 b, string memory errorMessage) internal pure returns (uint256) {\r\n        // Solidity only automatically asserts when dividing by 0\r\n        require(b > 0, errorMessage);\r\n        uint256 c = a / b;\r\n        // assert(a == b * c + a % b); // There is no case in which this doesn't hold\r\n\r\n        return c;\r\n    }\r\n\r\n\r\n}",
  "sourcePath": "C:\\Users\\aliih\\Desktop\\ihsan\\BlockChain\\portfolio\\CrowdFundMe\\smart_contracts\\contracts\\FundMe.sol",
  "compiler": {
    "name": "solc",
    "version": "0.8.18+commit.87f61d96.Emscripten.clang"
  },
  "schemaVersion": "3.4.16",
  "updatedAt": "2023-11-14T12:29:39.267Z",
  "networkType": "ethereum",
  "devdoc": {
    "kind": "dev",
    "methods": {},
    "version": 1
  },
  "userdoc": {
    "kind": "user",
    "methods": {},
    "version": 1
  }
}