{
  "contractName": "FundMe",
  "abi": [
    {
      "inputs": [],
      "stateMutability": "nonpayable",
      "type": "constructor"
    },
    {
      "inputs": [
        {
          "internalType": "uint256",
          "name": "current_amount",
          "type": "uint256"
        },
        {
          "internalType": "uint256",
          "name": "required_amount",
          "type": "uint256"
        }
      ],
      "name": "InsufficientBalance",
      "type": "error"
    },
    {
      "inputs": [
        {
          "internalType": "uint256",
          "name": "amount",
          "type": "uint256"
        }
      ],
      "name": "RequiredAmountCollected",
      "type": "error"
    },
    {
      "inputs": [
        {
          "internalType": "uint256",
          "name": "current_contribution",
          "type": "uint256"
        },
        {
          "internalType": "uint256",
          "name": "required_contribution",
          "type": "uint256"
        }
      ],
      "name": "TooLessContribution",
      "type": "error"
    },
    {
      "inputs": [
        {
          "internalType": "uint8",
          "name": "current_project_count",
          "type": "uint8"
        }
      ],
      "name": "TooMuchProjectRequest",
      "type": "error"
    },
    {
      "anonymous": false,
      "inputs": [
        {
          "indexed": true,
          "internalType": "uint256",
          "name": "id",
          "type": "uint256"
        },
        {
          "indexed": true,
          "internalType": "address",
          "name": "owner",
          "type": "address"
        },
        {
          "indexed": false,
          "internalType": "string",
          "name": "title",
          "type": "string"
        }
      ],
      "name": "Created_Project",
      "type": "event"
    },
    {
      "anonymous": false,
      "inputs": [
        {
          "indexed": true,
          "internalType": "uint8",
          "name": "id",
          "type": "uint8"
        },
        {
          "indexed": true,
          "internalType": "address",
          "name": "owner",
          "type": "address"
        },
        {
          "indexed": false,
          "internalType": "string",
          "name": "title",
          "type": "string"
        }
      ],
      "name": "Created_Request",
      "type": "event"
    },
    {
      "anonymous": false,
      "inputs": [
        {
          "indexed": true,
          "internalType": "uint256",
          "name": "id",
          "type": "uint256"
        },
        {
          "indexed": true,
          "internalType": "address",
          "name": "from",
          "type": "address"
        },
        {
          "indexed": false,
          "internalType": "uint256",
          "name": "value",
          "type": "uint256"
        }
      ],
      "name": "Supported_Project",
      "type": "event"
    },
    {
      "inputs": [],
      "name": "Project_ID_Count",
      "outputs": [
        {
          "internalType": "uint256",
          "name": "",
          "type": "uint256"
        }
      ],
      "stateMutability": "view",
      "type": "function",
      "constant": true
    },
    {
      "inputs": [],
      "name": "admin",
      "outputs": [
        {
          "internalType": "address",
          "name": "",
          "type": "address"
        }
      ],
      "stateMutability": "view",
      "type": "function",
      "constant": true
    },
    {
      "inputs": [
        {
          "internalType": "address",
          "name": "",
          "type": "address"
        },
        {
          "internalType": "uint256",
          "name": "",
          "type": "uint256"
        }
      ],
      "name": "check_is_donated",
      "outputs": [
        {
          "internalType": "bool",
          "name": "",
          "type": "bool"
        }
      ],
      "stateMutability": "view",
      "type": "function",
      "constant": true
    },
    {
      "inputs": [
        {
          "internalType": "address",
          "name": "",
          "type": "address"
        },
        {
          "internalType": "uint256",
          "name": "",
          "type": "uint256"
        }
      ],
      "name": "donated_project_mapping",
      "outputs": [
        {
          "internalType": "uint256",
          "name": "",
          "type": "uint256"
        }
      ],
      "stateMutability": "view",
      "type": "function",
      "constant": true
    },
    {
      "inputs": [
        {
          "internalType": "address",
          "name": "",
          "type": "address"
        }
      ],
      "name": "project_count",
      "outputs": [
        {
          "internalType": "uint8",
          "name": "",
          "type": "uint8"
        }
      ],
      "stateMutability": "view",
      "type": "function",
      "constant": true
    },
    {
      "inputs": [
        {
          "internalType": "address",
          "name": "",
          "type": "address"
        },
        {
          "internalType": "uint256",
          "name": "",
          "type": "uint256"
        }
      ],
      "name": "project_mapping",
      "outputs": [
        {
          "internalType": "uint256",
          "name": "",
          "type": "uint256"
        }
      ],
      "stateMutability": "view",
      "type": "function",
      "constant": true
    },
    {
      "inputs": [
        {
          "internalType": "address",
          "name": "",
          "type": "address"
        },
        {
          "internalType": "uint256",
          "name": "",
          "type": "uint256"
        }
      ],
      "name": "project_total_foundation_mapping",
      "outputs": [
        {
          "internalType": "uint256",
          "name": "",
          "type": "uint256"
        }
      ],
      "stateMutability": "view",
      "type": "function",
      "constant": true
    },
    {
      "inputs": [
        {
          "internalType": "uint256",
          "name": "",
          "type": "uint256"
        }
      ],
      "name": "projects",
      "outputs": [
        {
          "internalType": "address",
          "name": "project_owner",
          "type": "address"
        },
        {
          "internalType": "string",
          "name": "description",
          "type": "string"
        },
        {
          "internalType": "string",
          "name": "title",
          "type": "string"
        },
        {
          "internalType": "bool",
          "name": "is_complete",
          "type": "bool"
        },
        {
          "internalType": "uint256",
          "name": "minimum_contribution",
          "type": "uint256"
        },
        {
          "internalType": "uint256",
          "name": "sponsors_count",
          "type": "uint256"
        },
        {
          "internalType": "uint256",
          "name": "id",
          "type": "uint256"
        },
        {
          "internalType": "uint8",
          "name": "request_count",
          "type": "uint8"
        },
        {
          "internalType": "uint256",
          "name": "total_required_amount",
          "type": "uint256"
        },
        {
          "internalType": "uint256",
          "name": "current_amount",
          "type": "uint256"
        },
        {
          "internalType": "uint8",
          "name": "unsolved_request",
          "type": "uint8"
        }
      ],
      "stateMutability": "view",
      "type": "function",
      "constant": true
    },
    {
      "inputs": [
        {
          "internalType": "address",
          "name": "",
          "type": "address"
        }
      ],
      "name": "total_foundation_mapping",
      "outputs": [
        {
          "internalType": "uint256",
          "name": "",
          "type": "uint256"
        }
      ],
      "stateMutability": "view",
      "type": "function",
      "constant": true
    },
    {
      "inputs": [],
      "name": "total_sponsors",
      "outputs": [
        {
          "internalType": "uint256",
          "name": "",
          "type": "uint256"
        }
      ],
      "stateMutability": "view",
      "type": "function",
      "constant": true
    },
    {
      "inputs": [
        {
          "internalType": "string",
          "name": "_title",
          "type": "string"
        },
        {
          "internalType": "string",
          "name": "_description",
          "type": "string"
        },
        {
          "internalType": "uint256",
          "name": "_minimum_contribution",
          "type": "uint256"
        }
      ],
      "name": "create_project",
      "outputs": [
        {
          "internalType": "bool",
          "name": "success",
          "type": "bool"
        }
      ],
      "stateMutability": "nonpayable",
      "type": "function"
    },
    {
      "inputs": [
        {
          "internalType": "uint256",
          "name": "_id",
          "type": "uint256"
        },
        {
          "internalType": "string",
          "name": "_description",
          "type": "string"
        },
        {
          "internalType": "string",
          "name": "_title",
          "type": "string"
        },
        {
          "internalType": "address payable",
          "name": "_buyer",
          "type": "address"
        },
        {
          "internalType": "uint256",
          "name": "_value",
          "type": "uint256"
        }
      ],
      "name": "create_request",
      "outputs": [
        {
          "internalType": "bool",
          "name": "success",
          "type": "bool"
        }
      ],
      "stateMutability": "nonpayable",
      "type": "function"
    },
    {
      "inputs": [
        {
          "internalType": "uint256",
          "name": "project_id",
          "type": "uint256"
        }
      ],
      "name": "support_project",
      "outputs": [
        {
          "internalType": "bool",
          "name": "success",
          "type": "bool"
        }
      ],
      "stateMutability": "payable",
      "type": "function",
      "payable": true
    },
    {
      "inputs": [
        {
          "internalType": "uint256",
          "name": "_project_id",
          "type": "uint256"
        },
        {
          "internalType": "uint8",
          "name": "_request_id",
          "type": "uint8"
        }
      ],
      "name": "approve_request",
      "outputs": [
        {
          "internalType": "bool",
          "name": "success",
          "type": "bool"
        }
      ],
      "stateMutability": "nonpayable",
      "type": "function"
    },
    {
      "inputs": [
        {
          "internalType": "uint256",
          "name": "_project_id",
          "type": "uint256"
        },
        {
          "internalType": "uint8",
          "name": "_request_id",
          "type": "uint8"
        }
      ],
      "name": "finalize_request",
      "outputs": [
        {
          "internalType": "bool",
          "name": "success",
          "type": "bool"
        }
      ],
      "stateMutability": "nonpayable",
      "type": "function"
    },
    {
      "inputs": [
        {
          "internalType": "uint256",
          "name": "_project_id",
          "type": "uint256"
        }
      ],
      "name": "finalize_project",
      "outputs": [
        {
          "internalType": "bool",
          "name": "success",
          "type": "bool"
        }
      ],
      "stateMutability": "nonpayable",
      "type": "function"
    },
    {
      "inputs": [],
      "name": "returnProject",
      "outputs": [
        {
          "internalType": "uint256[]",
          "name": "",
          "type": "uint256[]"
        }
      ],
      "stateMutability": "view",
      "type": "function",
      "constant": true
    },
    {
      "inputs": [],
      "name": "returnDonatedProject",
      "outputs": [
        {
          "internalType": "uint256[]",
          "name": "",
          "type": "uint256[]"
        }
      ],
      "stateMutability": "view",
      "type": "function",
      "constant": true
    },
    {
      "inputs": [
        {
          "internalType": "uint256",
          "name": "project_id",
          "type": "uint256"
        }
      ],
      "name": "returnDonatedAmountAnProject",
      "outputs": [
        {
          "internalType": "uint256",
          "name": "",
          "type": "uint256"
        }
      ],
      "stateMutability": "view",
      "type": "function",
      "constant": true
    },
    {
      "inputs": [
        {
          "internalType": "address",
          "name": "_sponsor",
          "type": "address"
        },
        {
          "internalType": "uint256",
          "name": "_procect_id",
          "type": "uint256"
        }
      ],
      "name": "supponsor_check",
      "outputs": [
        {
          "internalType": "bool",
          "name": "status",
          "type": "bool"
        }
      ],
      "stateMutability": "view",
      "type": "function",
      "constant": true
    },
    {
      "inputs": [
        {
          "internalType": "address",
          "name": "_sponsor",
          "type": "address"
        },
        {
          "internalType": "uint256",
          "name": "_procect_id",
          "type": "uint256"
        }
      ],
      "name": "return_sponsor_value",
      "outputs": [
        {
          "internalType": "uint256",
          "name": "",
          "type": "uint256"
        }
      ],
      "stateMutability": "view",
      "type": "function",
      "constant": true
    }
  ],
  "bytecode": "0x608060405234801561001057600080fd5b50600080546001600160a01b031916331781556001556118e2806100356000396000f3fe60806040526004361061012a5760003560e01c806365ec67d8116100ab5780639bf2c77d1161006f5780639bf2c77d146103a4578063c6378a2e146103b9578063c835a09f146103d9578063eb695e15146103f9578063f851a44014610419578063ff5f03ca1461045157600080fd5b806365ec67d8146102c45780636d738c41146102f15780637eceb1351461031157806382941e551461034c5780638992fa121461038457600080fd5b806353518a7d116100f257806353518a7d146101f057806358e82414146102365780635aa792591461024c5780635c9b95631461026c57806361fec92c1461028257600080fd5b80630e8e23251461012f578063107046bd146101645780633a47f5c81461019b5780633e3ec9d0146101bd5780634a43694c146101d0575b600080fd5b34801561013b57600080fd5b5061014f61014a3660046112b9565b610471565b60405190151581526020015b60405180910390f35b34801561017057600080fd5b5061018461017f3660046112ef565b610625565b60405161015b9b9a9998979695949392919061134e565b3480156101a757600080fd5b506101b06107b2565b60405161015b91906113d1565b61014f6101cb3660046112ef565b610813565b3480156101dc57600080fd5b5061014f6101eb3660046112ef565b610a7e565b3480156101fc57600080fd5b5061022861020b36600461142d565b600860209081526000928352604080842090915290825290205481565b60405190815260200161015b565b34801561024257600080fd5b5061022860015481565b34801561025857600080fd5b5061022861026736600461142d565b610b40565b34801561027857600080fd5b5061022860095481565b34801561028e57600080fd5b506102b261029d366004611459565b60036020526000908152604090205460ff1681565b60405160ff909116815260200161015b565b3480156102d057600080fd5b506102286102df366004611459565b60076020526000908152604090205481565b3480156102fd57600080fd5b5061022861030c36600461142d565b610b71565b34801561031d57600080fd5b5061014f61032c36600461142d565b600660209081526000928352604080842090915290825290205460ff1681565b34801561035857600080fd5b506102286103673660046112ef565b336000908152600860209081526040808320938352929052205490565b34801561039057600080fd5b5061014f61039f366004611520565b610bb8565b3480156103b057600080fd5b506101b0610d9c565b3480156103c557600080fd5b506102286103d436600461142d565b610dfb565b3480156103e557600080fd5b5061014f6103f436600461158d565b610e17565b34801561040557600080fd5b5061014f61041436600461142d565b611061565b34801561042557600080fd5b50600054610439906001600160a01b031681565b6040516001600160a01b03909116815260200161015b565b34801561045d57600080fd5b5061014f61046c3660046112b9565b6110af565b600082826002828154811061048857610488611615565b90600052602060002090600d0201600c018160ff16815481106104ad576104ad611615565b600091825260209091206005600890920201015460ff16156104ce57600080fd5b600092506000600286815481106104e7576104e7611615565b90600052602060002090600d02019050600081600c018660ff168154811061051157610511611615565b60009182526020808320338452600586019091526040832054600890920201925090036105855760405162461bcd60e51b815260206004820152601860248201527f4f6e6c7920617070726f7665207468652073706f6e736f72000000000000000060448201526064015b60405180910390fd5b33600090815260078201602052604090205460ff16156105e75760405162461bcd60e51b815260206004820181905260248201527f4f6e6c7920617070726f7665206f6e636520666f7220616e2072657175657374604482015260640161057c565b3360009081526007820160205260408120805460ff191660011790556004820180549161061383611641565b90915550600198975050505050505050565b6002818154811061063557600080fd5b60009182526020909120600d9091020180546001820180546001600160a01b039092169350906106649061165a565b80601f01602080910402602001604051908101604052809291908181526020018280546106909061165a565b80156106dd5780601f106106b2576101008083540402835291602001916106dd565b820191906000526020600020905b8154815290600101906020018083116106c057829003601f168201915b5050505050908060020180546106f29061165a565b80601f016020809104026020016040519081016040528092919081815260200182805461071e9061165a565b801561076b5780601f106107405761010080835404028352916020019161076b565b820191906000526020600020905b81548152906001019060200180831161074e57829003601f168201915b505050600384015460048501546006860154600787015460088801546009890154600a8a0154600b909a0154989960ff96871699959850939650919490811693919291168b565b3360009081526005602090815260409182902080548351818402810184019094528084526060939283018282801561080957602002820191906000526020600020905b8154815260200190600101908083116107f5575b5050505050905090565b6000816002818154811061082957610829611615565b600091825260209091206003600d90920201015460ff161561084a57600080fd5b6000915060006002848154811061086357610863611615565b90600052602060002090600d020190506000816009015482600a0154106108a55781600a0154604051636086231560e11b815260040161057c91815260200190565b81600a015482600901546108b9919061168e565b90508160040154811180156108d15750348260040154115b156108fe57600480830154604051632c95503360e11b81523492810192909252602482015260440161057c565b336000908152600583016020526040812054900361092e5760068201805490600061092883611641565b91905055505b3360009081526005830160205260408120805434929061094f9084906116a1565b925050819055503482600a01600082825461096a91906116a1565b9091555050604051348152339086907fd6a39cc93b60de38e5664ab11e72104f39804cdf902da5993541933e767eabfa9060200160405180910390a333600090815260076020526040812080543492906109c59084906116a1565b9091555050336000908152600860209081526040808320888452909152812080543492906109f49084906116a1565b909155505060098054906000610a0983611641565b909155505033600090815260066020908152604080832088845290915290205460ff1680610a7457336000818152600560209081526040808320805460018181018355918552838520018b9055938352600682528083208a84529091529020805460ff191690911790555b5050505b50919050565b60008160028181548110610a9457610a94611615565b600091825260209091206003600d90920201015460ff1615610ab557600080fd5b60009150600060028481548110610ace57610ace611615565b60009182526020909120600d9091020180549091506001600160a01b03163314610af757600080fd5b600b81015460ff1615610b0957600080fd5b600a81015415610b1857600080fd5b600981015415610b2757600080fd5b600301805460ff19166001908117909155915050919050565b60046020528160005260406000208181548110610b5c57600080fd5b90600052602060002001600091509150505481565b600060028281548110610b8657610b86611615565b600091825260208083206001600160a01b03871684526005600d90930201919091019052604090205490505b92915050565b33600090815260036020526040812054600560ff90911610610c0457336000908152600360205260409081902054905163571b555b60e11b815260ff909116600482015260240161057c565b60028054600181018255600091909152600d027f405787fa12a823e0f2b7631cc41b3ba8828b3321ca811111fa75cd3aa3bb5ace810180546001600160a01b03191633178155907f405787fa12a823e0f2b7631cc41b3ba8828b3321ca811111fa75cd3aa3bb5ad001610c778682611703565b5060018101610c868582611703565b506001805460078301908155600480840186905560088401805460ff1990811690915560006006860181905560098601819055600a8601819055600b86018054831690556003860180549092169091553381526020918252604080822085548154968701825590835292909120909301558254905491516001600160a01b0390911691907fba8757d57892e38f2a4fc5bb45dd139b992e4912cff281e9d57610064406c5a690610d3a9060028601906117c3565b60405180910390a3336000908152600360205260408120805460ff1691610d608361184e565b91906101000a81548160ff021916908360ff1602179055505060016000815480929190610d8c90611641565b9091555060019695505050505050565b3360009081526004602090815260409182902080548351818402810184019094528084526060939283018282801561080957602002820191906000526020600020908154815260200190600101908083116107f5575050505050905090565b60056020528160005260406000208181548110610b5c57600080fd5b60008560028181548110610e2d57610e2d611615565b600091825260209091206003600d90920201015460ff1615610e4e57600080fd5b60009150600060028881548110610e6757610e67611615565b60009182526020909120600d9091020180549091506001600160a01b03163314610ee45760405162461bcd60e51b815260206004820152602860248201527f4f6e6c792070726f6a656374206f776e65722063616e2063726561746520616e604482015267081c995c5d595cdd60c21b606482015260840161057c565b600b810154600560ff90911610610f1957600b81015460405163571b555b60e11b815260ff909116600482015260240161057c565b600c810180546001818101835560009283526020909220600890910201908101610f438882611703565b5060028101610f528982611703565b506003810180546001600160a01b0319166001600160a01b0388161790556008820154815460ff90911660ff199182168117835560058301805490921690915560068201869055600060048301556040513391907feff2fb3872a1b9ca78b62f8ea0968e70a2dfd8cf70d5788ae6462a5e52c86dfc90610fd69060018601906117c3565b60405180910390a360088201805460ff16906000610ff38361184e565b82546101009290920a60ff818102199093169183160217909155600b84018054909116915060006110238361184e565b91906101000a81548160ff021916908360ff160217905550508482600901600082825461105091906116a1565b909155505050505095945050505050565b6000806002838154811061107757611077611615565b600091825260208083206001600160a01b03881684526005600d9093020191909101905260409020541115610bb25750600192915050565b60008282600282815481106110c6576110c6611615565b90600052602060002090600d0201600c018160ff16815481106110eb576110eb611615565b600091825260209091206005600890920201015460ff161561110c57600080fd5b6000925060006002868154811061112557611125611615565b90600052602060002090600d02019050600081600c018660ff168154811061114f5761114f611615565b60009182526020909120835460089092020191506001600160a01b0316331461117757600080fd5b60028260060154611188919061186d565b81600401541161119757600080fd5b600581015460ff16156111a957600080fd5b806006015482600a015410156111e557600a820154600682015460405163cf47918160e01b81526004810192909252602482015260440161057c565b600381015460068201546040516001600160a01b039092169181156108fc0291906000818181858888f19350505050158015611225573d6000803e3d6000fd5b50806006015482600a01600082825461123e919061168e565b9091555050600681015460098301805460009061125c90849061168e565b909155505060058101805460ff19166001179055600b82015460ff16156112ac57600b8201805460ff169060006112928361188f565b91906101000a81548160ff021916908360ff160217905550505b5060019695505050505050565b600080604083850312156112cc57600080fd5b82359150602083013560ff811681146112e457600080fd5b809150509250929050565b60006020828403121561130157600080fd5b5035919050565b6000815180845260005b8181101561132e57602081850181015186830182015201611312565b506000602082860101526020601f19601f83011685010191505092915050565b6001600160a01b038c168152610160602082018190526000906113738382018e611308565b90508281036040840152611387818d611308565b9a151560608401525050608081019790975260a087019590955260c086019390935260ff91821660e086015261010085015261012084019190915216610140909101529392505050565b6020808252825182820181905260009190848201906040850190845b81811015611409578351835292840192918401916001016113ed565b50909695505050505050565b6001600160a01b038116811461142a57600080fd5b50565b6000806040838503121561144057600080fd5b823561144b81611415565b946020939093013593505050565b60006020828403121561146b57600080fd5b813561147681611415565b9392505050565b634e487b7160e01b600052604160045260246000fd5b600082601f8301126114a457600080fd5b813567ffffffffffffffff808211156114bf576114bf61147d565b604051601f8301601f19908116603f011681019082821181831017156114e7576114e761147d565b8160405283815286602085880101111561150057600080fd5b836020870160208301376000602085830101528094505050505092915050565b60008060006060848603121561153557600080fd5b833567ffffffffffffffff8082111561154d57600080fd5b61155987838801611493565b9450602086013591508082111561156f57600080fd5b5061157c86828701611493565b925050604084013590509250925092565b600080600080600060a086880312156115a557600080fd5b85359450602086013567ffffffffffffffff808211156115c457600080fd5b6115d089838a01611493565b955060408801359150808211156115e657600080fd5b506115f388828901611493565b935050606086013561160481611415565b949793965091946080013592915050565b634e487b7160e01b600052603260045260246000fd5b634e487b7160e01b600052601160045260246000fd5b6000600182016116535761165361162b565b5060010190565b600181811c9082168061166e57607f821691505b602082108103610a7857634e487b7160e01b600052602260045260246000fd5b81810381811115610bb257610bb261162b565b80820180821115610bb257610bb261162b565b601f8211156116fe57600081815260208120601f850160051c810160208610156116db5750805b601f850160051c820191505b818110156116fa578281556001016116e7565b5050505b505050565b815167ffffffffffffffff81111561171d5761171d61147d565b6117318161172b845461165a565b846116b4565b602080601f831160018114611766576000841561174e5750858301515b600019600386901b1c1916600185901b1785556116fa565b600085815260208120601f198616915b8281101561179557888601518255948401946001909101908401611776565b50858210156117b35787850151600019600388901b60f8161c191681555b5050505050600190811b01905550565b60006020808352600084546117d78161165a565b808487015260406001808416600081146117f8576001811461181257611840565b60ff1985168984015283151560051b890183019550611840565b896000528660002060005b858110156118385781548b820186015290830190880161181d565b8a0184019650505b509398975050505050505050565b600060ff821660ff81036118645761186461162b565b60010192915050565b60008261188a57634e487b7160e01b600052601260045260246000fd5b500490565b600060ff8216806118a2576118a261162b565b600019019291505056fea2646970667358221220d86967202d21403b4ec612119dbdca9929402aa225b4de59d8d8058cfe8d441164736f6c63430008120033",
  "immutableReferences": {},
  "source": "//SPDX-License-Identifier: MIT\r\n\r\npragma solidity 0.8.18;\r\n\r\n\r\ncontract FundMe{\r\n\r\n    address public admin;\r\n    uint8 private constant MAX_UNSOLVED_REQUEST = 5;\r\n    uint8 private constant MAX_PROJECT = 5;\r\n    uint256 public Project_ID_Count;\r\n    uint256 private constant DECIMAL = 10^18;\r\n    \r\n    // Request struct project owner can create MAX_UNSOLVED_REQUEST unsolved request\r\n    struct Request {\r\n        uint8 request_id;\r\n        string title;\r\n        string description;\r\n        address payable buyer;\r\n        uint256 approval_vote_count;\r\n        bool is_complete;\r\n        uint256 value;\r\n        mapping(address => bool) approvals;\r\n    }\r\n\r\n    // Projects Struct user can create MAX_PROJECT unsolved procect\r\n    struct Project{\r\n        address project_owner;\r\n        string description;\r\n        string title;\r\n        bool is_complete;\r\n        uint256 minimum_contribution;\r\n        mapping(address => uint256) sponsors;\r\n        uint256 sponsors_count;\r\n        uint256 id;\r\n        uint8 request_count;\r\n        uint256 total_required_amount;\r\n        uint256 current_amount;\r\n        uint8 unsolved_request;\r\n        Request[] requests;\r\n    }\r\n\r\n     Project[] public projects;\r\n     mapping(address => uint8) public project_count;\r\n     mapping(address => uint256[]) public project_mapping;\r\n     mapping(address => uint256[]) public donated_project_mapping;\r\n     mapping(address => mapping(uint256 => bool)) public check_is_donated;\r\n     mapping(address => uint256) public total_foundation_mapping;\r\n     mapping(address => mapping(uint256=>uint256)) public project_total_foundation_mapping;\r\n     uint256 public total_sponsors;\r\n\r\n     \r\n     // Events\r\n     event Created_Project(uint256 indexed id, address indexed owner, string title);\r\n     event Created_Request(uint8 indexed id, address indexed owner,string title);\r\n     event Supported_Project(uint256 indexed id, address indexed from, uint256 value);\r\n     \r\n    // Custrom Errors\r\n    error TooMuchProjectRequest(uint8 current_project_count);\r\n    error TooLessContribution(uint256 current_contribution, uint256 required_contribution);\r\n    error RequiredAmountCollected(uint amount);\r\n    error InsufficientBalance(uint256 current_amount, uint256 required_amount);\r\n\r\n    constructor() {\r\n        admin = msg.sender;\r\n        Project_ID_Count = 0;\r\n    }\r\n\r\n    modifier only_admin_call(){\r\n        require(msg.sender == admin);\r\n        _;\r\n    }\r\n\r\n    modifier project_check(uint256 project_id){\r\n        require(!projects[project_id].is_complete);\r\n        _;\r\n    }\r\n\r\n    modifier request_check(uint256 project_id, uint8 request_id)  {\r\n        require(!projects[project_id].requests[request_id].is_complete);\r\n        _;\r\n    }\r\n    \r\n    function create_project(string memory _title, string memory _description, uint256 _minimum_contribution) public returns(bool success){\r\n        \r\n        // initialize the process\r\n        success = false;    \r\n\r\n        // Check project count (only create MAX_PROJECT)\r\n        if(project_count[msg.sender] >= MAX_PROJECT){\r\n               revert TooMuchProjectRequest({\r\n                current_project_count: project_count[msg.sender]\r\n            });\r\n        }\r\n\r\n        // create project\r\n        Project storage project = projects.push();\r\n        project.project_owner = msg.sender;\r\n        project.title = _title;\r\n        project.description = _description;\r\n        project.id = Project_ID_Count;\r\n        project.minimum_contribution = _minimum_contribution;\r\n        project.request_count = 0;\r\n        project.sponsors_count = 0;\r\n        project.total_required_amount = 0;\r\n        project.current_amount = 0;\r\n        project.unsolved_request = 0;\r\n        project.is_complete = false;\r\n\r\n        // track projects via address\r\n        project_mapping[msg.sender].push(Project_ID_Count);\r\n\r\n        // Emit event\r\n        emit Created_Project(\r\n            project.id,\r\n            project.project_owner,\r\n            project.title\r\n        );\r\n\r\n        // increase counters\r\n        project_count[msg.sender]++;\r\n        Project_ID_Count++;\r\n\r\n        // finilize the process\r\n        success = true;\r\n        return success;         \r\n    }\r\n\r\n    function create_request(uint256 _id, string memory _description, string memory _title, address payable _buyer, uint256 _value) project_check(_id) public returns(bool success){\r\n        \r\n        // Initialize process\r\n        success = false;\r\n\r\n        // Create project instance for gas save\r\n        Project storage projectIntance = projects[_id];\r\n        \r\n\r\n        // only project owner can call \r\n        require(msg.sender == projectIntance.project_owner, \"Only project owner can create an request\");\r\n\r\n        // Check unsolved request\r\n        if(projectIntance.unsolved_request >= MAX_UNSOLVED_REQUEST){\r\n               revert TooMuchProjectRequest({\r\n                current_project_count: projectIntance.unsolved_request\r\n            });\r\n        }\r\n\r\n        // Create Request\r\n        Request storage request = projectIntance.requests.push();\r\n        request.title = _title;\r\n        request.description = _description;\r\n        request.buyer = _buyer;\r\n        request.request_id = projectIntance.request_count;\r\n        request.is_complete = false;\r\n        request.value = _value;\r\n        request.approval_vote_count = 0;\r\n\r\n        // Emit event\r\n        emit Created_Request(request.request_id, msg.sender, request.title);\r\n\r\n        // increase counter\r\n        projectIntance.request_count++;\r\n        projectIntance.unsolved_request++;\r\n        projectIntance.total_required_amount += _value;\r\n\r\n        return success;\r\n    }\r\n\r\n    // support project \r\n    function support_project(uint256 project_id) project_check(project_id) public payable returns(bool success){\r\n        \r\n        // Initialize process\r\n        success = false;\r\n\r\n        // Create project instance\r\n        Project storage projectInstance = projects[project_id];\r\n\r\n        // check required balance\r\n        uint256 required_balance;\r\n\r\n        // Check required amount is collected\r\n        if(projectInstance.current_amount >= projectInstance.total_required_amount){\r\n                revert RequiredAmountCollected({\r\n                amount: projectInstance.current_amount\r\n            });\r\n        }\r\n        else{\r\n            required_balance = projectInstance.total_required_amount - projectInstance.current_amount;\r\n        }\r\n\r\n        // check minimum contrubition\r\n        if( required_balance > projectInstance.minimum_contribution && projectInstance.minimum_contribution > msg.value){\r\n            revert TooLessContribution({\r\n                current_contribution: msg.value,\r\n                required_contribution: projectInstance.minimum_contribution\r\n            });\r\n        }\r\n\r\n        if(projectInstance.sponsors[msg.sender] == 0){\r\n            // increase the counter\r\n            projectInstance.sponsors_count++;\r\n        }\r\n\r\n        // add sponsor\r\n        projectInstance.sponsors[msg.sender] += msg.value;\r\n        projectInstance.current_amount += msg.value;\r\n\r\n        // Emit Event\r\n        emit Supported_Project(project_id, msg.sender, msg.value);\r\n        total_foundation_mapping[msg.sender] += msg.value;\r\n        project_total_foundation_mapping[msg.sender][project_id] += msg.value;\r\n        total_sponsors++;\r\n\r\n        bool is_donated = check_is_donated[msg.sender][project_id];\r\n        if(!is_donated){\r\n        donated_project_mapping[msg.sender].push(project_id);\r\n        check_is_donated[msg.sender][project_id] = true;\r\n        }\r\n\r\n\r\n        return success;\r\n    }\r\n\r\n    // vote request\r\n    function approve_request(uint256 _project_id, uint8 _request_id) request_check(_project_id,_request_id) public returns(bool success){\r\n        \r\n        // initalize process\r\n        success = false;\r\n        \r\n        // get project and request\r\n        Project storage projectInstance = projects[_project_id];\r\n        Request storage requestInstance = projectInstance.requests[_request_id];\r\n\r\n\r\n        // check is the approver funder\r\n        if(projectInstance.sponsors[msg.sender] == 0){\r\n            revert(\"Only approve the sponsor\");\r\n        } \r\n\r\n        // check only vote once\r\n        if(requestInstance.approvals[msg.sender]){\r\n            revert(\"Only approve once for an request\");\r\n        }\r\n\r\n        // assign approvals\r\n        requestInstance.approvals[msg.sender] = true;\r\n        requestInstance.approval_vote_count++;\r\n\r\n        success = true;\r\n\r\n        return success;\r\n    }\r\n\r\n    // finalize request\r\n    function finalize_request(uint256 _project_id, uint8 _request_id) request_check(_project_id,_request_id) public returns(bool success){\r\n\r\n        success = false;\r\n        // get project and request\r\n        Project storage projectInstance = projects[_project_id];\r\n        Request storage requestInstance = projectInstance.requests[_request_id];\r\n\r\n        // only project owner can finilize the request\r\n        require(msg.sender == projectInstance.project_owner);\r\n\r\n        // check the vote\r\n        require(requestInstance.approval_vote_count > (projectInstance.sponsors_count / 2));\r\n        require(!requestInstance.is_complete);\r\n\r\n        // check balance\r\n        if(projectInstance.current_amount < requestInstance.value){\r\n              revert InsufficientBalance({\r\n                current_amount: projectInstance.current_amount,\r\n                required_amount: requestInstance.value\r\n            });\r\n        }\r\n\r\n        // send money to buyer\r\n         payable(requestInstance.buyer).transfer(requestInstance.value);\r\n\r\n        // reduce current amount & total required amount\r\n        projectInstance.current_amount -= requestInstance.value;\r\n        projectInstance.total_required_amount -= requestInstance.value;\r\n\r\n        requestInstance.is_complete = true;\r\n        if(projectInstance.unsolved_request > 0){\r\n            projectInstance.unsolved_request--;\r\n        }\r\n\r\n        success = true;\r\n        return success;\r\n    }   \r\n\r\n    // finalize  project\r\n    function finalize_project(uint256 _project_id) project_check(_project_id) public returns (bool success) {\r\n\r\n        success = false;\r\n        Project storage projectInstance = projects[_project_id];\r\n\r\n        // only owner can call this function\r\n        require(msg.sender == projectInstance.project_owner);\r\n\r\n        // require all request are done\r\n        require(projectInstance.unsolved_request == 0);\r\n\r\n        // require all amount spent\r\n        require(projectInstance.current_amount == 0);\r\n\r\n        // require total required amount must be zero\r\n        require(projectInstance.total_required_amount == 0);\r\n\r\n        // mark project as is completed\r\n        projectInstance.is_complete = true;\r\n\r\n\r\n        success = true;\r\n        return success;\r\n\r\n    }\r\n\r\n\r\n    // max return size 5\r\n    function returnProject() public view returns(uint256[] memory){\r\n        return project_mapping[msg.sender];\r\n    }\r\n\r\n    function returnDonatedProject() public view returns(uint256[] memory){\r\n        return donated_project_mapping[msg.sender];\r\n    }\r\n\r\n    function returnDonatedAmountAnProject(uint256 project_id) public view returns(uint256 ){\r\n        return project_total_foundation_mapping[msg.sender][project_id];\r\n    }\r\n\r\n    function supponsor_check(address _sponsor, uint256 _procect_id) public view returns(bool status) {\r\n\r\n        status = false;\r\n        if(projects[_procect_id].sponsors[_sponsor] > 0){\r\n            status = true;\r\n        }\r\n        return status;\r\n    }\r\n\r\n    function return_sponsor_value(address _sponsor, uint256 _procect_id) public view returns(uint256) {\r\n        return projects[_procect_id].sponsors[_sponsor];\r\n    }\r\n\r\n\r\n    // safe maths functions     \r\n    function mul(uint256 a, uint256 b) internal pure returns (uint256 c) {\r\n        if (a == 0) {\r\n        return 0;\r\n        }\r\n        c = a * b;\r\n        assert(c / a == b);\r\n        return c;\r\n    }\r\n\r\n    function div(uint256 a, uint256 b) internal pure returns (uint256) {\r\n        return div(a, b, \"SafeMath: division by zero\");\r\n    }\r\n\r\n    function div(uint256 a, uint256 b, string memory errorMessage) internal pure returns (uint256) {\r\n        // Solidity only automatically asserts when dividing by 0\r\n        require(b > 0, errorMessage);\r\n        uint256 c = a / b;\r\n        // assert(a == b * c + a % b); // There is no case in which this doesn't hold\r\n\r\n        return c;\r\n    }\r\n\r\n\r\n}",
  "sourcePath": "C:\\Users\\aliih\\Desktop\\ihsan\\BlockChain\\portfolio\\CrowdFundMe\\smart_contracts\\contracts\\~FundMe.sol",
  "compiler": {
    "name": "solc",
    "version": "0.8.18+commit.87f61d96.Emscripten.clang"
  },
  "schemaVersion": "3.4.16",
  "updatedAt": "2023-11-18T12:57:04.151Z",
  "networkType": "ethereum",
  "devdoc": {
    "kind": "dev",
    "methods": {},
    "version": 1
  },
  "userdoc": {
    "kind": "user",
    "methods": {},
    "version": 1
  }
}