{
  "contractName": "FundMe",
  "abi": [
    {
      "inputs": [],
      "stateMutability": "nonpayable",
      "type": "constructor"
    },
    {
      "inputs": [
        {
          "internalType": "uint256",
          "name": "current_amount",
          "type": "uint256"
        },
        {
          "internalType": "uint256",
          "name": "required_amount",
          "type": "uint256"
        }
      ],
      "name": "InsufficientBalance",
      "type": "error"
    },
    {
      "inputs": [
        {
          "internalType": "uint256",
          "name": "amount",
          "type": "uint256"
        }
      ],
      "name": "RequiredAmountCollected",
      "type": "error"
    },
    {
      "inputs": [
        {
          "internalType": "uint256",
          "name": "current_contribution",
          "type": "uint256"
        },
        {
          "internalType": "uint256",
          "name": "required_contribution",
          "type": "uint256"
        }
      ],
      "name": "TooLessContribution",
      "type": "error"
    },
    {
      "inputs": [
        {
          "internalType": "uint8",
          "name": "current_project_count",
          "type": "uint8"
        }
      ],
      "name": "TooMuchProjectRequest",
      "type": "error"
    },
    {
      "anonymous": false,
      "inputs": [
        {
          "indexed": true,
          "internalType": "uint256",
          "name": "id",
          "type": "uint256"
        },
        {
          "indexed": true,
          "internalType": "address",
          "name": "owner",
          "type": "address"
        },
        {
          "indexed": false,
          "internalType": "string",
          "name": "title",
          "type": "string"
        }
      ],
      "name": "Created_Project",
      "type": "event"
    },
    {
      "anonymous": false,
      "inputs": [
        {
          "indexed": true,
          "internalType": "uint8",
          "name": "id",
          "type": "uint8"
        },
        {
          "indexed": true,
          "internalType": "address",
          "name": "owner",
          "type": "address"
        },
        {
          "indexed": false,
          "internalType": "string",
          "name": "title",
          "type": "string"
        }
      ],
      "name": "Created_Request",
      "type": "event"
    },
    {
      "anonymous": false,
      "inputs": [
        {
          "indexed": true,
          "internalType": "uint256",
          "name": "id",
          "type": "uint256"
        },
        {
          "indexed": true,
          "internalType": "address",
          "name": "from",
          "type": "address"
        },
        {
          "indexed": false,
          "internalType": "uint256",
          "name": "value",
          "type": "uint256"
        }
      ],
      "name": "Supported_Project",
      "type": "event"
    },
    {
      "inputs": [],
      "name": "Project_ID_Count",
      "outputs": [
        {
          "internalType": "uint256",
          "name": "",
          "type": "uint256"
        }
      ],
      "stateMutability": "view",
      "type": "function",
      "constant": true
    },
    {
      "inputs": [],
      "name": "admin",
      "outputs": [
        {
          "internalType": "address",
          "name": "",
          "type": "address"
        }
      ],
      "stateMutability": "view",
      "type": "function",
      "constant": true
    },
    {
      "inputs": [
        {
          "internalType": "address",
          "name": "",
          "type": "address"
        }
      ],
      "name": "project_count",
      "outputs": [
        {
          "internalType": "uint8",
          "name": "",
          "type": "uint8"
        }
      ],
      "stateMutability": "view",
      "type": "function",
      "constant": true
    },
    {
      "inputs": [
        {
          "internalType": "address",
          "name": "",
          "type": "address"
        },
        {
          "internalType": "uint256",
          "name": "",
          "type": "uint256"
        }
      ],
      "name": "project_mapping",
      "outputs": [
        {
          "internalType": "uint256",
          "name": "",
          "type": "uint256"
        }
      ],
      "stateMutability": "view",
      "type": "function",
      "constant": true
    },
    {
      "inputs": [
        {
          "internalType": "uint256",
          "name": "",
          "type": "uint256"
        }
      ],
      "name": "projects",
      "outputs": [
        {
          "internalType": "address",
          "name": "project_owner",
          "type": "address"
        },
        {
          "internalType": "string",
          "name": "description",
          "type": "string"
        },
        {
          "internalType": "string",
          "name": "title",
          "type": "string"
        },
        {
          "internalType": "bool",
          "name": "is_complete",
          "type": "bool"
        },
        {
          "internalType": "uint256",
          "name": "minimum_contribution",
          "type": "uint256"
        },
        {
          "internalType": "uint256",
          "name": "sponsors_count",
          "type": "uint256"
        },
        {
          "internalType": "uint256",
          "name": "id",
          "type": "uint256"
        },
        {
          "internalType": "uint8",
          "name": "request_count",
          "type": "uint8"
        },
        {
          "internalType": "uint256",
          "name": "total_required_amount",
          "type": "uint256"
        },
        {
          "internalType": "uint256",
          "name": "current_amount",
          "type": "uint256"
        },
        {
          "internalType": "uint8",
          "name": "unsolved_request",
          "type": "uint8"
        }
      ],
      "stateMutability": "view",
      "type": "function",
      "constant": true
    },
    {
      "inputs": [
        {
          "internalType": "address",
          "name": "",
          "type": "address"
        }
      ],
      "name": "total_foundation_mapping",
      "outputs": [
        {
          "internalType": "uint256",
          "name": "",
          "type": "uint256"
        }
      ],
      "stateMutability": "view",
      "type": "function",
      "constant": true
    },
    {
      "inputs": [],
      "name": "total_sponsors",
      "outputs": [
        {
          "internalType": "uint256",
          "name": "",
          "type": "uint256"
        }
      ],
      "stateMutability": "view",
      "type": "function",
      "constant": true
    },
    {
      "inputs": [
        {
          "internalType": "string",
          "name": "_title",
          "type": "string"
        },
        {
          "internalType": "string",
          "name": "_description",
          "type": "string"
        },
        {
          "internalType": "uint256",
          "name": "_minimum_contribution",
          "type": "uint256"
        }
      ],
      "name": "create_project",
      "outputs": [
        {
          "internalType": "bool",
          "name": "success",
          "type": "bool"
        }
      ],
      "stateMutability": "nonpayable",
      "type": "function"
    },
    {
      "inputs": [
        {
          "internalType": "uint256",
          "name": "_id",
          "type": "uint256"
        },
        {
          "internalType": "string",
          "name": "_description",
          "type": "string"
        },
        {
          "internalType": "string",
          "name": "_title",
          "type": "string"
        },
        {
          "internalType": "address payable",
          "name": "_buyer",
          "type": "address"
        },
        {
          "internalType": "uint256",
          "name": "_value",
          "type": "uint256"
        }
      ],
      "name": "create_request",
      "outputs": [
        {
          "internalType": "bool",
          "name": "success",
          "type": "bool"
        }
      ],
      "stateMutability": "nonpayable",
      "type": "function"
    },
    {
      "inputs": [
        {
          "internalType": "uint256",
          "name": "procect_id",
          "type": "uint256"
        }
      ],
      "name": "support_project",
      "outputs": [
        {
          "internalType": "bool",
          "name": "success",
          "type": "bool"
        }
      ],
      "stateMutability": "payable",
      "type": "function",
      "payable": true
    },
    {
      "inputs": [
        {
          "internalType": "uint256",
          "name": "_project_id",
          "type": "uint256"
        },
        {
          "internalType": "uint8",
          "name": "_request_id",
          "type": "uint8"
        }
      ],
      "name": "approve_request",
      "outputs": [
        {
          "internalType": "bool",
          "name": "success",
          "type": "bool"
        }
      ],
      "stateMutability": "nonpayable",
      "type": "function"
    },
    {
      "inputs": [
        {
          "internalType": "uint256",
          "name": "_project_id",
          "type": "uint256"
        },
        {
          "internalType": "uint8",
          "name": "_request_id",
          "type": "uint8"
        }
      ],
      "name": "finalize_request",
      "outputs": [
        {
          "internalType": "bool",
          "name": "success",
          "type": "bool"
        }
      ],
      "stateMutability": "nonpayable",
      "type": "function"
    },
    {
      "inputs": [
        {
          "internalType": "uint256",
          "name": "_project_id",
          "type": "uint256"
        }
      ],
      "name": "finalize_project",
      "outputs": [
        {
          "internalType": "bool",
          "name": "success",
          "type": "bool"
        }
      ],
      "stateMutability": "nonpayable",
      "type": "function"
    },
    {
      "inputs": [],
      "name": "returnProject",
      "outputs": [
        {
          "internalType": "uint256[]",
          "name": "",
          "type": "uint256[]"
        }
      ],
      "stateMutability": "view",
      "type": "function",
      "constant": true
    },
    {
      "inputs": [
        {
          "internalType": "address",
          "name": "_sponsor",
          "type": "address"
        },
        {
          "internalType": "uint256",
          "name": "_procect_id",
          "type": "uint256"
        }
      ],
      "name": "supponsor_check",
      "outputs": [
        {
          "internalType": "bool",
          "name": "status",
          "type": "bool"
        }
      ],
      "stateMutability": "view",
      "type": "function",
      "constant": true
    },
    {
      "inputs": [
        {
          "internalType": "address",
          "name": "_sponsor",
          "type": "address"
        },
        {
          "internalType": "uint256",
          "name": "_procect_id",
          "type": "uint256"
        }
      ],
      "name": "return_sponsor_value",
      "outputs": [
        {
          "internalType": "uint256",
          "name": "",
          "type": "uint256"
        }
      ],
      "stateMutability": "view",
      "type": "function",
      "constant": true
    }
  ],
  "bytecode": "0x608060405234801561001057600080fd5b50600080546001600160a01b0319163317815560015561166d806100356000396000f3fe6080604052600436106100f35760003560e01c806365ec67d81161008a578063c835a09f11610059578063c835a09f146102c2578063eb695e15146102e2578063f851a44014610302578063ff5f03ca1461033a57600080fd5b806365ec67d8146102335780636d738c41146102605780638992fa12146102805780639bf2c77d146102a057600080fd5b806358e82414116100c657806358e82414146101975780635aa79259146101bb5780635c9b9563146101db57806361fec92c146101f157600080fd5b80630e8e2325146100f8578063107046bd1461012d5780633e3ec9d0146101645780634a43694c14610177575b600080fd5b34801561010457600080fd5b50610118610113366004611044565b61035a565b60405190151581526020015b60405180910390f35b34801561013957600080fd5b5061014d61014836600461107a565b61050e565b6040516101249b9a999897969594939291906110d9565b61011861017236600461107a565b61069b565b34801561018357600080fd5b5061011861019236600461107a565b610870565b3480156101a357600080fd5b506101ad60015481565b604051908152602001610124565b3480156101c757600080fd5b506101ad6101d6366004611174565b610932565b3480156101e757600080fd5b506101ad60065481565b3480156101fd57600080fd5b5061022161020c3660046111a0565b60036020526000908152604090205460ff1681565b60405160ff9091168152602001610124565b34801561023f57600080fd5b506101ad61024e3660046111a0565b60056020526000908152604090205481565b34801561026c57600080fd5b506101ad61027b366004611174565b610963565b34801561028c57600080fd5b5061011861029b366004611267565b6109aa565b3480156102ac57600080fd5b506102b5610b41565b60405161012491906112d4565b3480156102ce57600080fd5b506101186102dd366004611318565b610ba2565b3480156102ee57600080fd5b506101186102fd366004611174565b610dec565b34801561030e57600080fd5b50600054610322906001600160a01b031681565b6040516001600160a01b039091168152602001610124565b34801561034657600080fd5b50610118610355366004611044565b610e3a565b6000828260028281548110610371576103716113a0565b90600052602060002090600d0201600c018160ff1681548110610396576103966113a0565b600091825260209091206005600890920201015460ff16156103b757600080fd5b600092506000600286815481106103d0576103d06113a0565b90600052602060002090600d02019050600081600c018660ff16815481106103fa576103fa6113a0565b600091825260208083203384526005860190915260408320546008909202019250900361046e5760405162461bcd60e51b815260206004820152601860248201527f4f6e6c7920617070726f7665207468652073706f6e736f72000000000000000060448201526064015b60405180910390fd5b33600090815260078201602052604090205460ff16156104d05760405162461bcd60e51b815260206004820181905260248201527f4f6e6c7920617070726f7665206f6e636520666f7220616e20726571756573746044820152606401610465565b3360009081526007820160205260408120805460ff19166001179055600482018054916104fc836113cc565b90915550600198975050505050505050565b6002818154811061051e57600080fd5b60009182526020909120600d9091020180546001820180546001600160a01b0390921693509061054d906113e5565b80601f0160208091040260200160405190810160405280929190818152602001828054610579906113e5565b80156105c65780601f1061059b576101008083540402835291602001916105c6565b820191906000526020600020905b8154815290600101906020018083116105a957829003601f168201915b5050505050908060020180546105db906113e5565b80601f0160208091040260200160405190810160405280929190818152602001828054610607906113e5565b80156106545780601f1061062957610100808354040283529160200191610654565b820191906000526020600020905b81548152906001019060200180831161063757829003601f168201915b505050600384015460048501546006860154600787015460088801546009890154600a8a0154600b909a0154989960ff96871699959850939650919490811693919291168b565b600081600281815481106106b1576106b16113a0565b600091825260209091206003600d90920201015460ff16156106d257600080fd5b600091506000600284815481106106eb576106eb6113a0565b90600052602060002090600d020190506000816009015482600a01541061072d5781600a0154604051636086231560e11b815260040161046591815260200190565b81600a015482600901546107419190611419565b90508160040154811180156107595750348260040154115b1561078657600480830154604051632c95503360e11b815234928101929092526024820152604401610465565b33600090815260058301602052604081205490036107b6576006820180549060006107b0836113cc565b91905055505b336000908152600583016020526040812080543492906107d790849061142c565b925050819055503482600a0160008282546107f2919061142c565b9091555050604051348152339086907fd6a39cc93b60de38e5664ab11e72104f39804cdf902da5993541933e767eabfa9060200160405180910390a3336000908152600560205260408120805434929061084d90849061142c565b909155505060068054906000610862836113cc565b919050555050505b50919050565b60008160028181548110610886576108866113a0565b600091825260209091206003600d90920201015460ff16156108a757600080fd5b600091506000600284815481106108c0576108c06113a0565b60009182526020909120600d9091020180549091506001600160a01b031633146108e957600080fd5b600b81015460ff16156108fb57600080fd5b600a8101541561090a57600080fd5b60098101541561091957600080fd5b600301805460ff19166001908117909155915050919050565b6004602052816000526040600020818154811061094e57600080fd5b90600052602060002001600091509150505481565b600060028281548110610978576109786113a0565b600091825260208083206001600160a01b03871684526005600d90930201919091019052604090205490505b92915050565b600280546001810182556000918252600d027f405787fa12a823e0f2b7631cc41b3ba8828b3321ca811111fa75cd3aa3bb5ace810180546001600160a01b03191633178155907f405787fa12a823e0f2b7631cc41b3ba8828b3321ca811111fa75cd3aa3bb5ad001610a1c868261148e565b5060018101610a2b858261148e565b506001805460078301908155600480840186905560088401805460ff1990811690915560006006860181905560098601819055600a8601819055600b86018054831690556003860180549092169091553381526020918252604080822085548154968701825590835292909120909301558254905491516001600160a01b0390911691907fba8757d57892e38f2a4fc5bb45dd139b992e4912cff281e9d57610064406c5a690610adf90600286019061154e565b60405180910390a3336000908152600360205260408120805460ff1691610b05836115d9565b91906101000a81548160ff021916908360ff1602179055505060016000815480929190610b31906113cc565b9091555060019695505050505050565b33600090815260046020908152604091829020805483518184028101840190945280845260609392830182828015610b9857602002820191906000526020600020905b815481526020019060010190808311610b84575b5050505050905090565b60008560028181548110610bb857610bb86113a0565b600091825260209091206003600d90920201015460ff1615610bd957600080fd5b60009150600060028881548110610bf257610bf26113a0565b60009182526020909120600d9091020180549091506001600160a01b03163314610c6f5760405162461bcd60e51b815260206004820152602860248201527f4f6e6c792070726f6a656374206f776e65722063616e2063726561746520616e604482015267081c995c5d595cdd60c21b6064820152608401610465565b600b810154600560ff90911610610ca457600b81015460405163571b555b60e11b815260ff9091166004820152602401610465565b600c810180546001818101835560009283526020909220600890910201908101610cce888261148e565b5060028101610cdd898261148e565b506003810180546001600160a01b0319166001600160a01b0388161790556008820154815460ff90911660ff199182168117835560058301805490921690915560068201869055600060048301556040513391907feff2fb3872a1b9ca78b62f8ea0968e70a2dfd8cf70d5788ae6462a5e52c86dfc90610d6190600186019061154e565b60405180910390a360088201805460ff16906000610d7e836115d9565b82546101009290920a60ff818102199093169183160217909155600b8401805490911691506000610dae836115d9565b91906101000a81548160ff021916908360ff1602179055505084826009016000828254610ddb919061142c565b909155505050505095945050505050565b60008060028381548110610e0257610e026113a0565b600091825260208083206001600160a01b03881684526005600d90930201919091019052604090205411156109a45750600192915050565b6000828260028281548110610e5157610e516113a0565b90600052602060002090600d0201600c018160ff1681548110610e7657610e766113a0565b600091825260209091206005600890920201015460ff1615610e9757600080fd5b60009250600060028681548110610eb057610eb06113a0565b90600052602060002090600d02019050600081600c018660ff1681548110610eda57610eda6113a0565b60009182526020909120835460089092020191506001600160a01b03163314610f0257600080fd5b60028260060154610f1391906115f8565b816004015411610f2257600080fd5b600581015460ff1615610f3457600080fd5b806006015482600a01541015610f7057600a820154600682015460405163cf47918160e01b815260048101929092526024820152604401610465565b600381015460068201546040516001600160a01b039092169181156108fc0291906000818181858888f19350505050158015610fb0573d6000803e3d6000fd5b50806006015482600a016000828254610fc99190611419565b90915550506006810154600983018054600090610fe7908490611419565b909155505060058101805460ff19166001179055600b82015460ff161561103757600b8201805460ff1690600061101d8361161a565b91906101000a81548160ff021916908360ff160217905550505b5060019695505050505050565b6000806040838503121561105757600080fd5b82359150602083013560ff8116811461106f57600080fd5b809150509250929050565b60006020828403121561108c57600080fd5b5035919050565b6000815180845260005b818110156110b95760208185018101518683018201520161109d565b506000602082860101526020601f19601f83011685010191505092915050565b6001600160a01b038c168152610160602082018190526000906110fe8382018e611093565b90508281036040840152611112818d611093565b9a151560608401525050608081019790975260a087019590955260c086019390935260ff91821660e086015261010085015261012084019190915216610140909101529392505050565b6001600160a01b038116811461117157600080fd5b50565b6000806040838503121561118757600080fd5b82356111928161115c565b946020939093013593505050565b6000602082840312156111b257600080fd5b81356111bd8161115c565b9392505050565b634e487b7160e01b600052604160045260246000fd5b600082601f8301126111eb57600080fd5b813567ffffffffffffffff80821115611206576112066111c4565b604051601f8301601f19908116603f0116810190828211818310171561122e5761122e6111c4565b8160405283815286602085880101111561124757600080fd5b836020870160208301376000602085830101528094505050505092915050565b60008060006060848603121561127c57600080fd5b833567ffffffffffffffff8082111561129457600080fd5b6112a0878388016111da565b945060208601359150808211156112b657600080fd5b506112c3868287016111da565b925050604084013590509250925092565b6020808252825182820181905260009190848201906040850190845b8181101561130c578351835292840192918401916001016112f0565b50909695505050505050565b600080600080600060a0868803121561133057600080fd5b85359450602086013567ffffffffffffffff8082111561134f57600080fd5b61135b89838a016111da565b9550604088013591508082111561137157600080fd5b5061137e888289016111da565b935050606086013561138f8161115c565b949793965091946080013592915050565b634e487b7160e01b600052603260045260246000fd5b634e487b7160e01b600052601160045260246000fd5b6000600182016113de576113de6113b6565b5060010190565b600181811c908216806113f957607f821691505b60208210810361086a57634e487b7160e01b600052602260045260246000fd5b818103818111156109a4576109a46113b6565b808201808211156109a4576109a46113b6565b601f82111561148957600081815260208120601f850160051c810160208610156114665750805b601f850160051c820191505b8181101561148557828155600101611472565b5050505b505050565b815167ffffffffffffffff8111156114a8576114a86111c4565b6114bc816114b684546113e5565b8461143f565b602080601f8311600181146114f157600084156114d95750858301515b600019600386901b1c1916600185901b178555611485565b600085815260208120601f198616915b8281101561152057888601518255948401946001909101908401611501565b508582101561153e5787850151600019600388901b60f8161c191681555b5050505050600190811b01905550565b6000602080835260008454611562816113e5565b80848701526040600180841660008114611583576001811461159d576115cb565b60ff1985168984015283151560051b8901830195506115cb565b896000528660002060005b858110156115c35781548b82018601529083019088016115a8565b8a0184019650505b509398975050505050505050565b600060ff821660ff81036115ef576115ef6113b6565b60010192915050565b60008261161557634e487b7160e01b600052601260045260246000fd5b500490565b600060ff82168061162d5761162d6113b6565b600019019291505056fea2646970667358221220a17fd6f4af128678b8e3a65e32a6d6274371448906d38d8f571138c3ffce381764736f6c63430008120033",
  "immutableReferences": {},
  "source": "//SPDX-License-Identifier: MIT\r\n\r\npragma solidity 0.8.18;\r\n\r\n\r\ncontract FundMe{\r\n\r\n    address public admin;\r\n    uint8 private constant MAX_UNSOLVED_REQUEST = 5;\r\n    uint8 private constant MAX_PROJECT = 5;\r\n    uint256 public Project_ID_Count;\r\n    uint256 private constant DECIMAL = 10^18;\r\n    \r\n    // Request struct project owner can create MAX_UNSOLVED_REQUEST unsolved request\r\n    struct Request {\r\n        uint8 request_id;\r\n        string title;\r\n        string description;\r\n        address payable buyer;\r\n        uint256 approval_vote_count;\r\n        bool is_complete;\r\n        uint256 value;\r\n        mapping(address => bool) approvals;\r\n    }\r\n\r\n    // Projects Struct user can create MAX_PROJECT unsolved procect\r\n    struct Project{\r\n        address project_owner;\r\n        string description;\r\n        string title;\r\n        bool is_complete;\r\n        uint256 minimum_contribution;\r\n        mapping(address => uint256) sponsors;\r\n        uint256 sponsors_count;\r\n        uint256 id;\r\n        uint8 request_count;\r\n        uint256 total_required_amount;\r\n        uint256 current_amount;\r\n        uint8 unsolved_request;\r\n        Request[] requests;\r\n    }\r\n\r\n     Project[] public projects;\r\n     mapping(address => uint8) public project_count;\r\n     mapping(address => uint256[]) public project_mapping;\r\n     mapping(address => uint256) public total_foundation_mapping;\r\n     uint256 public total_sponsors;\r\n\r\n     \r\n     // Events\r\n     event Created_Project(uint256 indexed id, address indexed owner, string title);\r\n     event Created_Request(uint8 indexed id, address indexed owner,string title);\r\n     event Supported_Project(uint256 indexed id, address indexed from, uint256 value);\r\n     \r\n    // Custrom Errors\r\n    error TooMuchProjectRequest(uint8 current_project_count);\r\n    error TooLessContribution(uint256 current_contribution, uint256 required_contribution);\r\n    error RequiredAmountCollected(uint amount);\r\n    error InsufficientBalance(uint256 current_amount, uint256 required_amount);\r\n\r\n    constructor() {\r\n        admin = msg.sender;\r\n        Project_ID_Count = 0;\r\n    }\r\n\r\n    modifier only_admin_call(){\r\n        require(msg.sender == admin);\r\n        _;\r\n    }\r\n\r\n    modifier project_check(uint256 project_id){\r\n        require(!projects[project_id].is_complete);\r\n        _;\r\n    }\r\n\r\n    modifier request_check(uint256 project_id, uint8 request_id)  {\r\n        require(!projects[project_id].requests[request_id].is_complete);\r\n        _;\r\n    }\r\n    \r\n    function create_project(string memory _title, string memory _description, uint256 _minimum_contribution) public returns(bool success){\r\n        \r\n        // initialize the process\r\n        success = false;    \r\n\r\n        // Check project count (only create MAX_PROJECT)\r\n        // if(project_count[msg.sender] >= MAX_PROJECT){\r\n        //        revert TooMuchProjectRequest({\r\n        //         current_project_count: project_count[msg.sender]\r\n        //     });\r\n        // }\r\n\r\n        // create project\r\n        Project storage project = projects.push();\r\n        project.project_owner = msg.sender;\r\n        project.title = _title;\r\n        project.description = _description;\r\n        project.id = Project_ID_Count;\r\n        project.minimum_contribution = _minimum_contribution;\r\n        project.request_count = 0;\r\n        project.sponsors_count = 0;\r\n        project.total_required_amount = 0;\r\n        project.current_amount = 0;\r\n        project.unsolved_request = 0;\r\n        project.is_complete = false;\r\n\r\n        // track projects via address\r\n        project_mapping[msg.sender].push(Project_ID_Count);\r\n\r\n        // Emit event\r\n        emit Created_Project(\r\n            project.id,\r\n            project.project_owner,\r\n            project.title\r\n        );\r\n\r\n        // increase counters\r\n        project_count[msg.sender]++;\r\n        Project_ID_Count++;\r\n\r\n        // finilize the process\r\n        success = true;\r\n        return success;         \r\n    }\r\n\r\n    function create_request(uint256 _id, string memory _description, string memory _title, address payable _buyer, uint256 _value) project_check(_id) public returns(bool success){\r\n        \r\n        // Initialize process\r\n        success = false;\r\n\r\n        // Create project instance for gas save\r\n        Project storage projectIntance = projects[_id];\r\n        \r\n\r\n        // only project owner can call \r\n        require(msg.sender == projectIntance.project_owner, \"Only project owner can create an request\");\r\n\r\n        // Check unsolved request\r\n        if(projectIntance.unsolved_request >= MAX_UNSOLVED_REQUEST){\r\n               revert TooMuchProjectRequest({\r\n                current_project_count: projectIntance.unsolved_request\r\n            });\r\n        }\r\n\r\n        // Create Request\r\n        Request storage request = projectIntance.requests.push();\r\n        request.title = _title;\r\n        request.description = _description;\r\n        request.buyer = _buyer;\r\n        request.request_id = projectIntance.request_count;\r\n        request.is_complete = false;\r\n        request.value = _value;\r\n        request.approval_vote_count = 0;\r\n\r\n        // Emit event\r\n        emit Created_Request(request.request_id, msg.sender, request.title);\r\n\r\n        // increase counter\r\n        projectIntance.request_count++;\r\n        projectIntance.unsolved_request++;\r\n        projectIntance.total_required_amount += _value;\r\n\r\n        return success;\r\n    }\r\n\r\n    // support project \r\n    function support_project(uint256 procect_id) project_check(procect_id) public payable returns(bool success){\r\n        \r\n        // Initialize process\r\n        success = false;\r\n\r\n        // Create project instance\r\n        Project storage projectInstance = projects[procect_id];\r\n\r\n        // check required balance\r\n        uint256 required_balance;\r\n\r\n        // Check required amount is collected\r\n        if(projectInstance.current_amount >= projectInstance.total_required_amount){\r\n                revert RequiredAmountCollected({\r\n                amount: projectInstance.current_amount\r\n            });\r\n        }\r\n        else{\r\n            required_balance = projectInstance.total_required_amount - projectInstance.current_amount;\r\n        }\r\n\r\n        // check minimum contrubition\r\n        if( required_balance > projectInstance.minimum_contribution && projectInstance.minimum_contribution > msg.value){\r\n            revert TooLessContribution({\r\n                current_contribution: msg.value,\r\n                required_contribution: projectInstance.minimum_contribution\r\n            });\r\n        }\r\n\r\n        if(projectInstance.sponsors[msg.sender] == 0){\r\n            // increase the counter\r\n            projectInstance.sponsors_count++;\r\n        }\r\n\r\n        // add sponsor\r\n        projectInstance.sponsors[msg.sender] += msg.value;\r\n        projectInstance.current_amount += msg.value;\r\n\r\n        // Emit Event\r\n        emit Supported_Project(procect_id, msg.sender, msg.value);\r\n        total_foundation_mapping[msg.sender] += msg.value;\r\n        total_sponsors++;\r\n        \r\n\r\n        return success;\r\n    }\r\n\r\n    // vote request\r\n    function approve_request(uint256 _project_id, uint8 _request_id) request_check(_project_id,_request_id) public returns(bool success){\r\n        \r\n        // initalize process\r\n        success = false;\r\n        \r\n        // get project and request\r\n        Project storage projectInstance = projects[_project_id];\r\n        Request storage requestInstance = projectInstance.requests[_request_id];\r\n\r\n\r\n        // check is the approver funder\r\n        if(projectInstance.sponsors[msg.sender] == 0){\r\n            revert(\"Only approve the sponsor\");\r\n        } \r\n\r\n        // check only vote once\r\n        if(requestInstance.approvals[msg.sender]){\r\n            revert(\"Only approve once for an request\");\r\n        }\r\n\r\n        // assign approvals\r\n        requestInstance.approvals[msg.sender] = true;\r\n        requestInstance.approval_vote_count++;\r\n\r\n        success = true;\r\n\r\n        return success;\r\n    }\r\n\r\n    // finalize request\r\n    function finalize_request(uint256 _project_id, uint8 _request_id) request_check(_project_id,_request_id) public returns(bool success){\r\n\r\n        success = false;\r\n        // get project and request\r\n        Project storage projectInstance = projects[_project_id];\r\n        Request storage requestInstance = projectInstance.requests[_request_id];\r\n\r\n        // only project owner can finilize the request\r\n        require(msg.sender == projectInstance.project_owner);\r\n\r\n        // check the vote\r\n        require(requestInstance.approval_vote_count > (projectInstance.sponsors_count / 2));\r\n        require(!requestInstance.is_complete);\r\n\r\n        // check balance\r\n        if(projectInstance.current_amount < requestInstance.value){\r\n              revert InsufficientBalance({\r\n                current_amount: projectInstance.current_amount,\r\n                required_amount: requestInstance.value\r\n            });\r\n        }\r\n\r\n        // send money to buyer\r\n         payable(requestInstance.buyer).transfer(requestInstance.value);\r\n\r\n        // reduce current amount & total required amount\r\n        projectInstance.current_amount -= requestInstance.value;\r\n        projectInstance.total_required_amount -= requestInstance.value;\r\n\r\n        requestInstance.is_complete = true;\r\n        if(projectInstance.unsolved_request > 0){\r\n            projectInstance.unsolved_request--;\r\n        }\r\n\r\n        success = true;\r\n        return success;\r\n    }   \r\n\r\n    // finalize  project\r\n    function finalize_project(uint256 _project_id) project_check(_project_id) public returns (bool success) {\r\n\r\n        success = false;\r\n        Project storage projectInstance = projects[_project_id];\r\n\r\n        // only owner can call this function\r\n        require(msg.sender == projectInstance.project_owner);\r\n\r\n        // require all request are done\r\n        require(projectInstance.unsolved_request == 0);\r\n\r\n        // require all amount spent\r\n        require(projectInstance.current_amount == 0);\r\n\r\n        // require total required amount must be zero\r\n        require(projectInstance.total_required_amount == 0);\r\n\r\n        // mark project as is completed\r\n        projectInstance.is_complete = true;\r\n\r\n\r\n        success = true;\r\n        return success;\r\n\r\n    }\r\n\r\n\r\n    // max return size 5\r\n    function returnProject() public view returns(uint256[] memory){\r\n        return project_mapping[msg.sender];\r\n    }\r\n\r\n    function supponsor_check(address _sponsor, uint256 _procect_id) public view returns(bool status) {\r\n\r\n        status = false;\r\n        if(projects[_procect_id].sponsors[_sponsor] > 0){\r\n            status = true;\r\n        }\r\n        return status;\r\n    }\r\n\r\n    function return_sponsor_value(address _sponsor, uint256 _procect_id) public view returns(uint256) {\r\n        return projects[_procect_id].sponsors[_sponsor];\r\n    }\r\n\r\n\r\n    // safe maths functions     \r\n    function mul(uint256 a, uint256 b) internal pure returns (uint256 c) {\r\n        if (a == 0) {\r\n        return 0;\r\n        }\r\n        c = a * b;\r\n        assert(c / a == b);\r\n        return c;\r\n    }\r\n\r\n    function div(uint256 a, uint256 b) internal pure returns (uint256) {\r\n        return div(a, b, \"SafeMath: division by zero\");\r\n    }\r\n\r\n    function div(uint256 a, uint256 b, string memory errorMessage) internal pure returns (uint256) {\r\n        // Solidity only automatically asserts when dividing by 0\r\n        require(b > 0, errorMessage);\r\n        uint256 c = a / b;\r\n        // assert(a == b * c + a % b); // There is no case in which this doesn't hold\r\n\r\n        return c;\r\n    }\r\n\r\n\r\n}",
  "sourcePath": "C:\\Users\\aliih\\Desktop\\ihsan\\BlockChain\\portfolio\\CrowdFundMe\\smart_contracts\\contracts\\~FundMe.sol",
  "compiler": {
    "name": "solc",
    "version": "0.8.18+commit.87f61d96.Emscripten.clang"
  },
  "schemaVersion": "3.4.16",
  "updatedAt": "2023-11-15T11:33:51.192Z",
  "networkType": "ethereum",
  "devdoc": {
    "kind": "dev",
    "methods": {},
    "version": 1
  },
  "userdoc": {
    "kind": "user",
    "methods": {},
    "version": 1
  }
}