{
  "contractName": "FundMe",
  "abi": [
    {
      "inputs": [],
      "stateMutability": "nonpayable",
      "type": "constructor"
    },
    {
      "inputs": [
        {
          "internalType": "uint256",
          "name": "current_amount",
          "type": "uint256"
        },
        {
          "internalType": "uint256",
          "name": "required_amount",
          "type": "uint256"
        }
      ],
      "name": "InsufficientBalance",
      "type": "error"
    },
    {
      "inputs": [
        {
          "internalType": "uint256",
          "name": "amount",
          "type": "uint256"
        }
      ],
      "name": "RequiredAmountCollected",
      "type": "error"
    },
    {
      "inputs": [
        {
          "internalType": "uint256",
          "name": "current_contribution",
          "type": "uint256"
        },
        {
          "internalType": "uint256",
          "name": "required_contribution",
          "type": "uint256"
        }
      ],
      "name": "TooLessContribution",
      "type": "error"
    },
    {
      "inputs": [
        {
          "internalType": "uint8",
          "name": "current_project_count",
          "type": "uint8"
        }
      ],
      "name": "TooMuchProjectRequest",
      "type": "error"
    },
    {
      "anonymous": false,
      "inputs": [
        {
          "indexed": true,
          "internalType": "uint256",
          "name": "id",
          "type": "uint256"
        },
        {
          "indexed": true,
          "internalType": "address",
          "name": "owner",
          "type": "address"
        },
        {
          "indexed": false,
          "internalType": "string",
          "name": "title",
          "type": "string"
        }
      ],
      "name": "Created_Project",
      "type": "event"
    },
    {
      "anonymous": false,
      "inputs": [
        {
          "indexed": true,
          "internalType": "uint8",
          "name": "id",
          "type": "uint8"
        },
        {
          "indexed": true,
          "internalType": "address",
          "name": "owner",
          "type": "address"
        },
        {
          "indexed": false,
          "internalType": "string",
          "name": "title",
          "type": "string"
        }
      ],
      "name": "Created_Request",
      "type": "event"
    },
    {
      "anonymous": false,
      "inputs": [
        {
          "indexed": true,
          "internalType": "uint256",
          "name": "id",
          "type": "uint256"
        },
        {
          "indexed": true,
          "internalType": "address",
          "name": "from",
          "type": "address"
        },
        {
          "indexed": false,
          "internalType": "uint256",
          "name": "value",
          "type": "uint256"
        }
      ],
      "name": "Supported_Project",
      "type": "event"
    },
    {
      "inputs": [],
      "name": "Project_ID_Count",
      "outputs": [
        {
          "internalType": "uint256",
          "name": "",
          "type": "uint256"
        }
      ],
      "stateMutability": "view",
      "type": "function",
      "constant": true
    },
    {
      "inputs": [],
      "name": "admin",
      "outputs": [
        {
          "internalType": "address",
          "name": "",
          "type": "address"
        }
      ],
      "stateMutability": "view",
      "type": "function",
      "constant": true
    },
    {
      "inputs": [
        {
          "internalType": "address",
          "name": "",
          "type": "address"
        },
        {
          "internalType": "uint256",
          "name": "",
          "type": "uint256"
        }
      ],
      "name": "check_is_donated",
      "outputs": [
        {
          "internalType": "bool",
          "name": "",
          "type": "bool"
        }
      ],
      "stateMutability": "view",
      "type": "function",
      "constant": true
    },
    {
      "inputs": [
        {
          "internalType": "address",
          "name": "",
          "type": "address"
        },
        {
          "internalType": "uint256",
          "name": "",
          "type": "uint256"
        }
      ],
      "name": "donated_project_mapping",
      "outputs": [
        {
          "internalType": "uint256",
          "name": "",
          "type": "uint256"
        }
      ],
      "stateMutability": "view",
      "type": "function",
      "constant": true
    },
    {
      "inputs": [
        {
          "internalType": "address",
          "name": "",
          "type": "address"
        }
      ],
      "name": "project_count",
      "outputs": [
        {
          "internalType": "uint8",
          "name": "",
          "type": "uint8"
        }
      ],
      "stateMutability": "view",
      "type": "function",
      "constant": true
    },
    {
      "inputs": [
        {
          "internalType": "address",
          "name": "",
          "type": "address"
        },
        {
          "internalType": "uint256",
          "name": "",
          "type": "uint256"
        }
      ],
      "name": "project_mapping",
      "outputs": [
        {
          "internalType": "uint256",
          "name": "",
          "type": "uint256"
        }
      ],
      "stateMutability": "view",
      "type": "function",
      "constant": true
    },
    {
      "inputs": [
        {
          "internalType": "address",
          "name": "",
          "type": "address"
        },
        {
          "internalType": "uint256",
          "name": "",
          "type": "uint256"
        }
      ],
      "name": "project_total_foundation_mapping",
      "outputs": [
        {
          "internalType": "uint256",
          "name": "",
          "type": "uint256"
        }
      ],
      "stateMutability": "view",
      "type": "function",
      "constant": true
    },
    {
      "inputs": [
        {
          "internalType": "uint256",
          "name": "",
          "type": "uint256"
        }
      ],
      "name": "projects",
      "outputs": [
        {
          "internalType": "address",
          "name": "project_owner",
          "type": "address"
        },
        {
          "internalType": "string",
          "name": "description",
          "type": "string"
        },
        {
          "internalType": "string",
          "name": "title",
          "type": "string"
        },
        {
          "internalType": "bool",
          "name": "is_complete",
          "type": "bool"
        },
        {
          "internalType": "uint256",
          "name": "minimum_contribution",
          "type": "uint256"
        },
        {
          "internalType": "uint256",
          "name": "sponsors_count",
          "type": "uint256"
        },
        {
          "internalType": "uint256",
          "name": "id",
          "type": "uint256"
        },
        {
          "internalType": "uint8",
          "name": "request_count",
          "type": "uint8"
        },
        {
          "internalType": "uint256",
          "name": "total_required_amount",
          "type": "uint256"
        },
        {
          "internalType": "uint256",
          "name": "current_amount",
          "type": "uint256"
        },
        {
          "internalType": "uint8",
          "name": "unsolved_request",
          "type": "uint8"
        }
      ],
      "stateMutability": "view",
      "type": "function",
      "constant": true
    },
    {
      "inputs": [
        {
          "internalType": "address",
          "name": "",
          "type": "address"
        }
      ],
      "name": "total_foundation_mapping",
      "outputs": [
        {
          "internalType": "uint256",
          "name": "",
          "type": "uint256"
        }
      ],
      "stateMutability": "view",
      "type": "function",
      "constant": true
    },
    {
      "inputs": [],
      "name": "total_sponsors",
      "outputs": [
        {
          "internalType": "uint256",
          "name": "",
          "type": "uint256"
        }
      ],
      "stateMutability": "view",
      "type": "function",
      "constant": true
    },
    {
      "inputs": [
        {
          "internalType": "string",
          "name": "_title",
          "type": "string"
        },
        {
          "internalType": "string",
          "name": "_description",
          "type": "string"
        },
        {
          "internalType": "uint256",
          "name": "_minimum_contribution",
          "type": "uint256"
        }
      ],
      "name": "create_project",
      "outputs": [
        {
          "internalType": "bool",
          "name": "success",
          "type": "bool"
        }
      ],
      "stateMutability": "nonpayable",
      "type": "function"
    },
    {
      "inputs": [
        {
          "internalType": "uint256",
          "name": "_id",
          "type": "uint256"
        },
        {
          "internalType": "string",
          "name": "_description",
          "type": "string"
        },
        {
          "internalType": "string",
          "name": "_title",
          "type": "string"
        },
        {
          "internalType": "address payable",
          "name": "_buyer",
          "type": "address"
        },
        {
          "internalType": "uint256",
          "name": "_value",
          "type": "uint256"
        }
      ],
      "name": "create_request",
      "outputs": [
        {
          "internalType": "bool",
          "name": "success",
          "type": "bool"
        }
      ],
      "stateMutability": "nonpayable",
      "type": "function"
    },
    {
      "inputs": [
        {
          "internalType": "uint256",
          "name": "project_id",
          "type": "uint256"
        }
      ],
      "name": "support_project",
      "outputs": [
        {
          "internalType": "bool",
          "name": "success",
          "type": "bool"
        }
      ],
      "stateMutability": "payable",
      "type": "function",
      "payable": true
    },
    {
      "inputs": [
        {
          "internalType": "uint256",
          "name": "_project_id",
          "type": "uint256"
        },
        {
          "internalType": "uint8",
          "name": "_request_id",
          "type": "uint8"
        }
      ],
      "name": "approve_request",
      "outputs": [
        {
          "internalType": "bool",
          "name": "success",
          "type": "bool"
        }
      ],
      "stateMutability": "nonpayable",
      "type": "function"
    },
    {
      "inputs": [
        {
          "internalType": "uint256",
          "name": "_project_id",
          "type": "uint256"
        },
        {
          "internalType": "uint8",
          "name": "_request_id",
          "type": "uint8"
        }
      ],
      "name": "finalize_request",
      "outputs": [
        {
          "internalType": "bool",
          "name": "success",
          "type": "bool"
        }
      ],
      "stateMutability": "nonpayable",
      "type": "function"
    },
    {
      "inputs": [
        {
          "internalType": "uint256",
          "name": "_project_id",
          "type": "uint256"
        }
      ],
      "name": "finalize_project",
      "outputs": [
        {
          "internalType": "bool",
          "name": "success",
          "type": "bool"
        }
      ],
      "stateMutability": "nonpayable",
      "type": "function"
    },
    {
      "inputs": [],
      "name": "returnProject",
      "outputs": [
        {
          "internalType": "uint256[]",
          "name": "",
          "type": "uint256[]"
        }
      ],
      "stateMutability": "view",
      "type": "function",
      "constant": true
    },
    {
      "inputs": [],
      "name": "returnDonatedProject",
      "outputs": [
        {
          "internalType": "uint256[]",
          "name": "",
          "type": "uint256[]"
        }
      ],
      "stateMutability": "view",
      "type": "function",
      "constant": true
    },
    {
      "inputs": [
        {
          "internalType": "uint256",
          "name": "project_id",
          "type": "uint256"
        }
      ],
      "name": "returnDonatedAmountAnProject",
      "outputs": [
        {
          "internalType": "uint256",
          "name": "",
          "type": "uint256"
        }
      ],
      "stateMutability": "view",
      "type": "function",
      "constant": true
    },
    {
      "inputs": [
        {
          "internalType": "uint256",
          "name": "project_id",
          "type": "uint256"
        },
        {
          "internalType": "uint256",
          "name": "request_id",
          "type": "uint256"
        }
      ],
      "name": "returnRequest",
      "outputs": [
        {
          "internalType": "string",
          "name": "",
          "type": "string"
        },
        {
          "internalType": "string",
          "name": "",
          "type": "string"
        },
        {
          "internalType": "address",
          "name": "",
          "type": "address"
        },
        {
          "internalType": "uint256",
          "name": "",
          "type": "uint256"
        },
        {
          "internalType": "bool",
          "name": "",
          "type": "bool"
        }
      ],
      "stateMutability": "view",
      "type": "function",
      "constant": true
    },
    {
      "inputs": [
        {
          "internalType": "address",
          "name": "_sponsor",
          "type": "address"
        },
        {
          "internalType": "uint256",
          "name": "_procect_id",
          "type": "uint256"
        }
      ],
      "name": "supponsor_check",
      "outputs": [
        {
          "internalType": "bool",
          "name": "status",
          "type": "bool"
        }
      ],
      "stateMutability": "view",
      "type": "function",
      "constant": true
    },
    {
      "inputs": [
        {
          "internalType": "address",
          "name": "_sponsor",
          "type": "address"
        },
        {
          "internalType": "uint256",
          "name": "_procect_id",
          "type": "uint256"
        }
      ],
      "name": "return_sponsor_value",
      "outputs": [
        {
          "internalType": "uint256",
          "name": "",
          "type": "uint256"
        }
      ],
      "stateMutability": "view",
      "type": "function",
      "constant": true
    },
    {
      "inputs": [
        {
          "internalType": "uint256",
          "name": "_project_id",
          "type": "uint256"
        },
        {
          "internalType": "uint8",
          "name": "_request_id",
          "type": "uint8"
        }
      ],
      "name": "return_is_request_approve",
      "outputs": [
        {
          "internalType": "bool",
          "name": "",
          "type": "bool"
        }
      ],
      "stateMutability": "view",
      "type": "function",
      "constant": true
    }
  ],
  "bytecode": "0x608060405234801561001057600080fd5b50600080546001600160a01b03191633178155600155611bd1806100356000396000f3fe6080604052600436106101405760003560e01c806365ec67d8116100b65780639bf2c77d1161006f5780639bf2c77d1461040b578063c6378a2e14610420578063c835a09f14610440578063eb695e1514610460578063f851a44014610480578063ff5f03ca146104b857600080fd5b806365ec67d81461030b5780636d738c41146103385780637ddca2a7146103585780637eceb1351461037857806382941e55146103b35780638992fa12146103eb57600080fd5b806353518a7d1161010857806353518a7d1461020657806358e824141461024c5780635aa79259146102625780635c9b95631461028257806361fec92c1461029857806364f66b91146102da57600080fd5b80630e8e232514610145578063107046bd1461017a5780633a47f5c8146101b15780633e3ec9d0146101d35780634a43694c146101e6575b600080fd5b34801561015157600080fd5b50610165610160366004611538565b6104d8565b60405190151581526020015b60405180910390f35b34801561018657600080fd5b5061019a61019536600461156e565b61068c565b6040516101719b9a999897969594939291906115cd565b3480156101bd57600080fd5b506101c6610819565b6040516101719190611650565b6101656101e136600461156e565b61087a565b3480156101f257600080fd5b5061016561020136600461156e565b610ae4565b34801561021257600080fd5b5061023e6102213660046116ac565b600860209081526000928352604080842090915290825290205481565b604051908152602001610171565b34801561025857600080fd5b5061023e60015481565b34801561026e57600080fd5b5061023e61027d3660046116ac565b610ba6565b34801561028e57600080fd5b5061023e60095481565b3480156102a457600080fd5b506102c86102b33660046116d8565b60036020526000908152604090205460ff1681565b60405160ff9091168152602001610171565b3480156102e657600080fd5b506102fa6102f53660046116fc565b610bd7565b60405161017195949392919061171e565b34801561031757600080fd5b5061023e6103263660046116d8565b60076020526000908152604090205481565b34801561034457600080fd5b5061023e6103533660046116ac565b610d84565b34801561036457600080fd5b50610165610373366004611538565b610dcb565b34801561038457600080fd5b506101656103933660046116ac565b600660209081526000928352604080842090915290825290205460ff1681565b3480156103bf57600080fd5b5061023e6103ce36600461156e565b336000908152600860209081526040808320938352929052205490565b3480156103f757600080fd5b5061016561040636600461180f565b610e37565b34801561041757600080fd5b506101c661101b565b34801561042c57600080fd5b5061023e61043b3660046116ac565b61107a565b34801561044c57600080fd5b5061016561045b36600461187c565b611096565b34801561046c57600080fd5b5061016561047b3660046116ac565b6112e0565b34801561048c57600080fd5b506000546104a0906001600160a01b031681565b6040516001600160a01b039091168152602001610171565b3480156104c457600080fd5b506101656104d3366004611538565b61132e565b60008282600282815481106104ef576104ef611904565b90600052602060002090600d0201600c018160ff168154811061051457610514611904565b600091825260209091206005600890920201015460ff161561053557600080fd5b6000925060006002868154811061054e5761054e611904565b90600052602060002090600d02019050600081600c018660ff168154811061057857610578611904565b60009182526020808320338452600586019091526040832054600890920201925090036105ec5760405162461bcd60e51b815260206004820152601860248201527f4f6e6c7920617070726f7665207468652073706f6e736f72000000000000000060448201526064015b60405180910390fd5b33600090815260078201602052604090205460ff161561064e5760405162461bcd60e51b815260206004820181905260248201527f4f6e6c7920617070726f7665206f6e636520666f7220616e207265717565737460448201526064016105e3565b3360009081526007820160205260408120805460ff191660011790556004820180549161067a83611930565b90915550600198975050505050505050565b6002818154811061069c57600080fd5b60009182526020909120600d9091020180546001820180546001600160a01b039092169350906106cb90611949565b80601f01602080910402602001604051908101604052809291908181526020018280546106f790611949565b80156107445780601f1061071957610100808354040283529160200191610744565b820191906000526020600020905b81548152906001019060200180831161072757829003601f168201915b50505050509080600201805461075990611949565b80601f016020809104026020016040519081016040528092919081815260200182805461078590611949565b80156107d25780601f106107a7576101008083540402835291602001916107d2565b820191906000526020600020905b8154815290600101906020018083116107b557829003601f168201915b505050600384015460048501546006860154600787015460088801546009890154600a8a0154600b909a0154989960ff96871699959850939650919490811693919291168b565b3360009081526005602090815260409182902080548351818402810184019094528084526060939283018282801561087057602002820191906000526020600020905b81548152602001906001019080831161085c575b5050505050905090565b6000816002818154811061089057610890611904565b600091825260209091206003600d90920201015460ff16156108b157600080fd5b600091506000600284815481106108ca576108ca611904565b90600052602060002090600d020190506000816009015482600a01541061090c5781600a0154604051636086231560e11b81526004016105e391815260200190565b81600a01548260090154610920919061197d565b90508160040154811180156109385750348260040154115b1561096557600480830154604051632c95503360e11b8152349281019290925260248201526044016105e3565b33600090815260058301602052604081205490036109955760068201805490600061098f83611930565b91905055505b336000908152600583016020526040812080543492906109b6908490611990565b925050819055503482600a0160008282546109d19190611990565b9091555050604051348152339086907fd6a39cc93b60de38e5664ab11e72104f39804cdf902da5993541933e767eabfa9060200160405180910390a33360009081526007602052604081208054349290610a2c908490611990565b909155505033600090815260086020908152604080832088845290915281208054349290610a5b908490611990565b909155505033600090815260066020908152604080832088845290915290205460ff1680610ada57336000818152600560209081526040808320805460018181018355918552838520018b9055938352600682528083208a84529091528120805460ff19169092179091556009805491610ad483611930565b91905055505b5050505b50919050565b60008160028181548110610afa57610afa611904565b600091825260209091206003600d90920201015460ff1615610b1b57600080fd5b60009150600060028481548110610b3457610b34611904565b60009182526020909120600d9091020180549091506001600160a01b03163314610b5d57600080fd5b600b81015460ff1615610b6f57600080fd5b600a81015415610b7e57600080fd5b600981015415610b8d57600080fd5b600301805460ff19166001908117909155915050919050565b60046020528160005260406000208181548110610bc257600080fd5b90600052602060002001600091509150505481565b60608060008060008060028881548110610bf357610bf3611904565b90600052602060002090600d02019050600081600c018881548110610c1a57610c1a611904565b600091825260209091206008909102016003810154600682015460058301546001840180549495509360028601936001600160a01b0316929160ff16908590610c6290611949565b80601f0160208091040260200160405190810160405280929190818152602001828054610c8e90611949565b8015610cdb5780601f10610cb057610100808354040283529160200191610cdb565b820191906000526020600020905b815481529060010190602001808311610cbe57829003601f168201915b50505050509450838054610cee90611949565b80601f0160208091040260200160405190810160405280929190818152602001828054610d1a90611949565b8015610d675780601f10610d3c57610100808354040283529160200191610d67565b820191906000526020600020905b815481529060010190602001808311610d4a57829003601f168201915b505050505093509650965096509650965050509295509295909350565b600060028281548110610d9957610d99611904565b600091825260208083206001600160a01b03871684526005600d90930201919091019052604090205490505b92915050565b60008060028481548110610de157610de1611904565b90600052602060002090600d02019050600081600c018460ff1681548110610e0b57610e0b611904565b600091825260208083203384526008929092029091016007019052604090205460ff1695945050505050565b33600090815260036020526040812054600560ff90911610610e8357336000908152600360205260409081902054905163571b555b60e11b815260ff90911660048201526024016105e3565b60028054600181018255600091909152600d027f405787fa12a823e0f2b7631cc41b3ba8828b3321ca811111fa75cd3aa3bb5ace810180546001600160a01b03191633178155907f405787fa12a823e0f2b7631cc41b3ba8828b3321ca811111fa75cd3aa3bb5ad001610ef686826119f2565b5060018101610f0585826119f2565b506001805460078301908155600480840186905560088401805460ff1990811690915560006006860181905560098601819055600a8601819055600b86018054831690556003860180549092169091553381526020918252604080822085548154968701825590835292909120909301558254905491516001600160a01b0390911691907fba8757d57892e38f2a4fc5bb45dd139b992e4912cff281e9d57610064406c5a690610fb9906002860190611ab2565b60405180910390a3336000908152600360205260408120805460ff1691610fdf83611b3d565b91906101000a81548160ff021916908360ff160217905550506001600081548092919061100b90611930565b9091555060019695505050505050565b33600090815260046020908152604091829020805483518184028101840190945280845260609392830182828015610870576020028201919060005260206000209081548152602001906001019080831161085c575050505050905090565b60056020528160005260406000208181548110610bc257600080fd5b600085600281815481106110ac576110ac611904565b600091825260209091206003600d90920201015460ff16156110cd57600080fd5b600091506000600288815481106110e6576110e6611904565b60009182526020909120600d9091020180549091506001600160a01b031633146111635760405162461bcd60e51b815260206004820152602860248201527f4f6e6c792070726f6a656374206f776e65722063616e2063726561746520616e604482015267081c995c5d595cdd60c21b60648201526084016105e3565b600b810154600560ff9091161061119857600b81015460405163571b555b60e11b815260ff90911660048201526024016105e3565b600c8101805460018181018355600092835260209092206008909102019081016111c288826119f2565b50600281016111d189826119f2565b506003810180546001600160a01b0319166001600160a01b0388161790556008820154815460ff90911660ff199182168117835560058301805490921690915560068201869055600060048301556040513391907feff2fb3872a1b9ca78b62f8ea0968e70a2dfd8cf70d5788ae6462a5e52c86dfc90611255906001860190611ab2565b60405180910390a360088201805460ff1690600061127283611b3d565b82546101009290920a60ff818102199093169183160217909155600b84018054909116915060006112a283611b3d565b91906101000a81548160ff021916908360ff16021790555050848260090160008282546112cf9190611990565b909155505050505095945050505050565b600080600283815481106112f6576112f6611904565b600091825260208083206001600160a01b03881684526005600d9093020191909101905260409020541115610dc55750600192915050565b600082826002828154811061134557611345611904565b90600052602060002090600d0201600c018160ff168154811061136a5761136a611904565b600091825260209091206005600890920201015460ff161561138b57600080fd5b600092506000600286815481106113a4576113a4611904565b90600052602060002090600d02019050600081600c018660ff16815481106113ce576113ce611904565b60009182526020909120835460089092020191506001600160a01b031633146113f657600080fd5b600282600601546114079190611b5c565b81600401541161141657600080fd5b600581015460ff161561142857600080fd5b806006015482600a0154101561146457600a820154600682015460405163cf47918160e01b8152600481019290925260248201526044016105e3565b600381015460068201546040516001600160a01b039092169181156108fc0291906000818181858888f193505050501580156114a4573d6000803e3d6000fd5b50806006015482600a0160008282546114bd919061197d565b909155505060068101546009830180546000906114db90849061197d565b909155505060058101805460ff19166001179055600b82015460ff161561152b57600b8201805460ff1690600061151183611b7e565b91906101000a81548160ff021916908360ff160217905550505b5060019695505050505050565b6000806040838503121561154b57600080fd5b82359150602083013560ff8116811461156357600080fd5b809150509250929050565b60006020828403121561158057600080fd5b5035919050565b6000815180845260005b818110156115ad57602081850181015186830182015201611591565b506000602082860101526020601f19601f83011685010191505092915050565b6001600160a01b038c168152610160602082018190526000906115f28382018e611587565b90508281036040840152611606818d611587565b9a151560608401525050608081019790975260a087019590955260c086019390935260ff91821660e086015261010085015261012084019190915216610140909101529392505050565b6020808252825182820181905260009190848201906040850190845b818110156116885783518352928401929184019160010161166c565b50909695505050505050565b6001600160a01b03811681146116a957600080fd5b50565b600080604083850312156116bf57600080fd5b82356116ca81611694565b946020939093013593505050565b6000602082840312156116ea57600080fd5b81356116f581611694565b9392505050565b6000806040838503121561170f57600080fd5b50508035926020909101359150565b60a08152600061173160a0830188611587565b82810360208401526117438188611587565b6001600160a01b0396909616604084015250506060810192909252151560809091015292915050565b634e487b7160e01b600052604160045260246000fd5b600082601f83011261179357600080fd5b813567ffffffffffffffff808211156117ae576117ae61176c565b604051601f8301601f19908116603f011681019082821181831017156117d6576117d661176c565b816040528381528660208588010111156117ef57600080fd5b836020870160208301376000602085830101528094505050505092915050565b60008060006060848603121561182457600080fd5b833567ffffffffffffffff8082111561183c57600080fd5b61184887838801611782565b9450602086013591508082111561185e57600080fd5b5061186b86828701611782565b925050604084013590509250925092565b600080600080600060a0868803121561189457600080fd5b85359450602086013567ffffffffffffffff808211156118b357600080fd5b6118bf89838a01611782565b955060408801359150808211156118d557600080fd5b506118e288828901611782565b93505060608601356118f381611694565b949793965091946080013592915050565b634e487b7160e01b600052603260045260246000fd5b634e487b7160e01b600052601160045260246000fd5b6000600182016119425761194261191a565b5060010190565b600181811c9082168061195d57607f821691505b602082108103610ade57634e487b7160e01b600052602260045260246000fd5b81810381811115610dc557610dc561191a565b80820180821115610dc557610dc561191a565b601f8211156119ed57600081815260208120601f850160051c810160208610156119ca5750805b601f850160051c820191505b818110156119e9578281556001016119d6565b5050505b505050565b815167ffffffffffffffff811115611a0c57611a0c61176c565b611a2081611a1a8454611949565b846119a3565b602080601f831160018114611a555760008415611a3d5750858301515b600019600386901b1c1916600185901b1785556119e9565b600085815260208120601f198616915b82811015611a8457888601518255948401946001909101908401611a65565b5085821015611aa25787850151600019600388901b60f8161c191681555b5050505050600190811b01905550565b6000602080835260008454611ac681611949565b80848701526040600180841660008114611ae75760018114611b0157611b2f565b60ff1985168984015283151560051b890183019550611b2f565b896000528660002060005b85811015611b275781548b8201860152908301908801611b0c565b8a0184019650505b509398975050505050505050565b600060ff821660ff8103611b5357611b5361191a565b60010192915050565b600082611b7957634e487b7160e01b600052601260045260246000fd5b500490565b600060ff821680611b9157611b9161191a565b600019019291505056fea26469706673582212203b6dc285e94c08195936c66ace570939aa369209e1c59f49286112a95fd04f8964736f6c63430008120033",
  "immutableReferences": {},
  "source": "//SPDX-License-Identifier: MIT\r\n\r\npragma solidity 0.8.18;\r\n\r\n\r\ncontract FundMe{\r\n\r\n    address public admin;\r\n    uint8 private constant MAX_UNSOLVED_REQUEST = 5;\r\n    uint8 private constant MAX_PROJECT = 5;\r\n    uint256 public Project_ID_Count;\r\n    uint256 private constant DECIMAL = 10^18;\r\n    \r\n    // Request struct project owner can create MAX_UNSOLVED_REQUEST unsolved request\r\n    struct Request {\r\n        uint8 request_id;\r\n        string title;\r\n        string description;\r\n        address payable buyer;\r\n        uint256 approval_vote_count;\r\n        bool is_complete;\r\n        uint256 value;\r\n        mapping(address => bool) approvals;\r\n    }\r\n\r\n    // Projects Struct user can create MAX_PROJECT unsolved procect\r\n    struct Project{\r\n        address project_owner;\r\n        string description;\r\n        string title;\r\n        bool is_complete;\r\n        uint256 minimum_contribution;\r\n        mapping(address => uint256) sponsors;\r\n        uint256 sponsors_count;\r\n        uint256 id;\r\n        uint8 request_count;\r\n        uint256 total_required_amount;\r\n        uint256 current_amount;\r\n        uint8 unsolved_request;\r\n        Request[] requests;\r\n    }\r\n\r\n     Project[] public projects;\r\n     mapping(address => uint8) public project_count;\r\n     mapping(address => uint256[]) public project_mapping;\r\n     mapping(address => uint256[]) public donated_project_mapping;\r\n     mapping(address => mapping(uint256 => bool)) public check_is_donated;\r\n     mapping(address => uint256) public total_foundation_mapping;\r\n     mapping(address => mapping(uint256=>uint256)) public project_total_foundation_mapping;\r\n     uint256 public total_sponsors;\r\n\r\n     \r\n     // Events\r\n     event Created_Project(uint256 indexed id, address indexed owner, string title);\r\n     event Created_Request(uint8 indexed id, address indexed owner,string title);\r\n     event Supported_Project(uint256 indexed id, address indexed from, uint256 value);\r\n     \r\n    // Custrom Errors\r\n    error TooMuchProjectRequest(uint8 current_project_count);\r\n    error TooLessContribution(uint256 current_contribution, uint256 required_contribution);\r\n    error RequiredAmountCollected(uint amount);\r\n    error InsufficientBalance(uint256 current_amount, uint256 required_amount);\r\n\r\n    constructor() {\r\n        admin = msg.sender;\r\n        Project_ID_Count = 0;\r\n    }\r\n\r\n    modifier only_admin_call(){\r\n        require(msg.sender == admin);\r\n        _;\r\n    }\r\n\r\n    modifier project_check(uint256 project_id){\r\n        require(!projects[project_id].is_complete);\r\n        _;\r\n    }\r\n\r\n    modifier request_check(uint256 project_id, uint8 request_id)  {\r\n        require(!projects[project_id].requests[request_id].is_complete);\r\n        _;\r\n    }\r\n    \r\n    function create_project(string memory _title, string memory _description, uint256 _minimum_contribution) public returns(bool success){\r\n        \r\n        // initialize the process\r\n        success = false;    \r\n\r\n        // Check project count (only create MAX_PROJECT)\r\n        if(project_count[msg.sender] >= MAX_PROJECT){\r\n               revert TooMuchProjectRequest({\r\n                current_project_count: project_count[msg.sender]\r\n            });\r\n        }\r\n\r\n        // create project\r\n        Project storage project = projects.push();\r\n        project.project_owner = msg.sender;\r\n        project.title = _title;\r\n        project.description = _description;\r\n        project.id = Project_ID_Count;\r\n        project.minimum_contribution = _minimum_contribution;\r\n        project.request_count = 0;\r\n        project.sponsors_count = 0;\r\n        project.total_required_amount = 0;\r\n        project.current_amount = 0;\r\n        project.unsolved_request = 0;\r\n        project.is_complete = false;\r\n\r\n        // track projects via address\r\n        project_mapping[msg.sender].push(Project_ID_Count);\r\n\r\n        // Emit event\r\n        emit Created_Project(\r\n            project.id,\r\n            project.project_owner,\r\n            project.title\r\n        );\r\n\r\n        // increase counters\r\n        project_count[msg.sender]++;\r\n        Project_ID_Count++;\r\n\r\n        // finilize the process\r\n        success = true;\r\n        return success;         \r\n    }\r\n\r\n    function create_request(uint256 _id, string memory _description, string memory _title, address payable _buyer, uint256 _value) project_check(_id) public returns(bool success){\r\n        \r\n        // Initialize process\r\n        success = false;\r\n\r\n        // Create project instance for gas save\r\n        Project storage projectIntance = projects[_id];\r\n        \r\n\r\n        // only project owner can call \r\n        require(msg.sender == projectIntance.project_owner, \"Only project owner can create an request\");\r\n\r\n        // Check unsolved request\r\n        if(projectIntance.unsolved_request >= MAX_UNSOLVED_REQUEST){\r\n               revert TooMuchProjectRequest({\r\n                current_project_count: projectIntance.unsolved_request\r\n            });\r\n        }\r\n\r\n        // Create Request\r\n        Request storage request = projectIntance.requests.push();\r\n        request.title = _title;\r\n        request.description = _description;\r\n        request.buyer = _buyer;\r\n        request.request_id = projectIntance.request_count;\r\n        request.is_complete = false;\r\n        request.value = _value;\r\n        request.approval_vote_count = 0;\r\n\r\n        // Emit event\r\n        emit Created_Request(request.request_id, msg.sender, request.title);\r\n\r\n        // increase counter\r\n        projectIntance.request_count++;\r\n        projectIntance.unsolved_request++;\r\n        projectIntance.total_required_amount += _value;\r\n\r\n        return success;\r\n    }\r\n\r\n    // support project \r\n    function support_project(uint256 project_id) project_check(project_id) public payable returns(bool success){\r\n        \r\n        // Initialize process\r\n        success = false;\r\n\r\n        // Create project instance\r\n        Project storage projectInstance = projects[project_id];\r\n\r\n        // check required balance\r\n        uint256 required_balance;\r\n\r\n        // Check required amount is collected\r\n        if(projectInstance.current_amount >= projectInstance.total_required_amount){\r\n                revert RequiredAmountCollected({\r\n                amount: projectInstance.current_amount\r\n            });\r\n        }\r\n        else{\r\n            required_balance = projectInstance.total_required_amount - projectInstance.current_amount;\r\n        }\r\n\r\n        // check minimum contrubition\r\n        if( required_balance > projectInstance.minimum_contribution && projectInstance.minimum_contribution > msg.value){\r\n            revert TooLessContribution({\r\n                current_contribution: msg.value,\r\n                required_contribution: projectInstance.minimum_contribution\r\n            });\r\n        }\r\n\r\n        if(projectInstance.sponsors[msg.sender] == 0){\r\n            // increase the counter\r\n            projectInstance.sponsors_count++;\r\n        }\r\n\r\n        // add sponsor\r\n        projectInstance.sponsors[msg.sender] += msg.value;\r\n        projectInstance.current_amount += msg.value;\r\n\r\n        // Emit Event\r\n        emit Supported_Project(project_id, msg.sender, msg.value);\r\n        total_foundation_mapping[msg.sender] += msg.value;\r\n        project_total_foundation_mapping[msg.sender][project_id] += msg.value;\r\n     \r\n\r\n        bool is_donated = check_is_donated[msg.sender][project_id];\r\n        if(!is_donated){\r\n        donated_project_mapping[msg.sender].push(project_id);\r\n        check_is_donated[msg.sender][project_id] = true;\r\n           total_sponsors++;\r\n        }\r\n\r\n\r\n        return success;\r\n    }\r\n\r\n    // vote request\r\n    function approve_request(uint256 _project_id, uint8 _request_id) request_check(_project_id,_request_id) public returns(bool success){\r\n        \r\n        // initalize process\r\n        success = false;\r\n        \r\n        // get project and request\r\n        Project storage projectInstance = projects[_project_id];\r\n        Request storage requestInstance = projectInstance.requests[_request_id];\r\n\r\n\r\n        // check is the approver funder\r\n        if(projectInstance.sponsors[msg.sender] == 0){\r\n            revert(\"Only approve the sponsor\");\r\n        } \r\n\r\n        // check only vote once\r\n        if(requestInstance.approvals[msg.sender]){\r\n            revert(\"Only approve once for an request\");\r\n        }\r\n\r\n        // assign approvals\r\n        requestInstance.approvals[msg.sender] = true;\r\n        requestInstance.approval_vote_count++;\r\n\r\n        success = true;\r\n\r\n        return success;\r\n    }\r\n\r\n    // finalize request\r\n    function finalize_request(uint256 _project_id, uint8 _request_id) request_check(_project_id,_request_id) public returns(bool success){\r\n\r\n        success = false;\r\n        // get project and request\r\n        Project storage projectInstance = projects[_project_id];\r\n        Request storage requestInstance = projectInstance.requests[_request_id];\r\n\r\n        // only project owner can finilize the request\r\n        require(msg.sender == projectInstance.project_owner);\r\n\r\n        // check the vote\r\n        require(requestInstance.approval_vote_count > (projectInstance.sponsors_count / 2));\r\n        require(!requestInstance.is_complete);\r\n\r\n        // check balance\r\n        if(projectInstance.current_amount < requestInstance.value){\r\n              revert InsufficientBalance({\r\n                current_amount: projectInstance.current_amount,\r\n                required_amount: requestInstance.value\r\n            });\r\n        }\r\n\r\n        // send money to buyer\r\n         payable(requestInstance.buyer).transfer(requestInstance.value);\r\n\r\n        // reduce current amount & total required amount\r\n        projectInstance.current_amount -= requestInstance.value;\r\n        projectInstance.total_required_amount -= requestInstance.value;\r\n\r\n        requestInstance.is_complete = true;\r\n        if(projectInstance.unsolved_request > 0){\r\n            projectInstance.unsolved_request--;\r\n        }\r\n\r\n        success = true;\r\n        return success;\r\n    }   \r\n\r\n    // finalize  project\r\n    function finalize_project(uint256 _project_id) project_check(_project_id) public returns (bool success) {\r\n\r\n        success = false;\r\n        Project storage projectInstance = projects[_project_id];\r\n\r\n        // only owner can call this function\r\n        require(msg.sender == projectInstance.project_owner);\r\n\r\n        // require all request are done\r\n        require(projectInstance.unsolved_request == 0);\r\n\r\n        // require all amount spent\r\n        require(projectInstance.current_amount == 0);\r\n\r\n        // require total required amount must be zero\r\n        require(projectInstance.total_required_amount == 0);\r\n\r\n        // mark project as is completed\r\n        projectInstance.is_complete = true;\r\n\r\n\r\n        success = true;\r\n        return success;\r\n\r\n    }\r\n\r\n\r\n    // max return size 5\r\n    function returnProject() public view returns(uint256[] memory){\r\n        return project_mapping[msg.sender];\r\n    }\r\n\r\n    function returnDonatedProject() public view returns(uint256[] memory){\r\n        return donated_project_mapping[msg.sender];\r\n    }\r\n\r\n    function returnDonatedAmountAnProject(uint256 project_id) public view returns(uint256 ){\r\n        return project_total_foundation_mapping[msg.sender][project_id];\r\n    }\r\n\r\n    function returnRequest(uint256 project_id, uint256 request_id) public view returns(string memory, string memory, address ,uint256,bool){\r\n        Project storage projectInstance = projects[project_id];\r\n        Request storage requestInstance = projectInstance.requests[request_id];\r\n        return(requestInstance.title,requestInstance.description,requestInstance.buyer, requestInstance.value,requestInstance.is_complete);\r\n    }\r\n\r\n    function supponsor_check(address _sponsor, uint256 _procect_id) public view returns(bool status) {\r\n\r\n        status = false;\r\n        if(projects[_procect_id].sponsors[_sponsor] > 0){\r\n            status = true;\r\n        }\r\n        return status;\r\n    }\r\n\r\n    function return_sponsor_value(address _sponsor, uint256 _procect_id) public view returns(uint256) {\r\n        return projects[_procect_id].sponsors[_sponsor];\r\n    }\r\n\r\n    function return_is_request_approve(uint256 _project_id, uint8 _request_id)public view returns(bool){\r\n                // get project and request\r\n        Project storage projectInstance = projects[_project_id];\r\n        Request storage requestInstance = projectInstance.requests[_request_id];\r\n        return requestInstance.approvals[msg.sender];\r\n    }\r\n\r\n\r\n    // safe maths functions     \r\n    function mul(uint256 a, uint256 b) internal pure returns (uint256 c) {\r\n        if (a == 0) {\r\n        return 0;\r\n        }\r\n        c = a * b;\r\n        assert(c / a == b);\r\n        return c;\r\n    }\r\n\r\n    function div(uint256 a, uint256 b) internal pure returns (uint256) {\r\n        return div(a, b, \"SafeMath: division by zero\");\r\n    }\r\n\r\n    function div(uint256 a, uint256 b, string memory errorMessage) internal pure returns (uint256) {\r\n        // Solidity only automatically asserts when dividing by 0\r\n        require(b > 0, errorMessage);\r\n        uint256 c = a / b;\r\n        // assert(a == b * c + a % b); // There is no case in which this doesn't hold\r\n\r\n        return c;\r\n    }\r\n\r\n\r\n}",
  "sourcePath": "C:\\Users\\aliih\\Desktop\\ihsan\\BlockChain\\portfolio\\CrowdFundMe\\smart_contracts\\contracts\\~FundMe.sol",
  "compiler": {
    "name": "solc",
    "version": "0.8.18+commit.87f61d96.Emscripten.clang"
  },
  "schemaVersion": "3.4.16",
  "updatedAt": "2023-11-25T14:07:02.559Z",
  "networkType": "ethereum",
  "devdoc": {
    "kind": "dev",
    "methods": {},
    "version": 1
  },
  "userdoc": {
    "kind": "user",
    "methods": {},
    "version": 1
  }
}