{
  "contractName": "FundMe",
  "abi": [
    {
      "inputs": [],
      "stateMutability": "nonpayable",
      "type": "constructor"
    },
    {
      "inputs": [
        {
          "internalType": "uint256",
          "name": "current_amount",
          "type": "uint256"
        },
        {
          "internalType": "uint256",
          "name": "required_amount",
          "type": "uint256"
        }
      ],
      "name": "InsufficientBalance",
      "type": "error"
    },
    {
      "inputs": [
        {
          "internalType": "uint256",
          "name": "amount",
          "type": "uint256"
        }
      ],
      "name": "RequiredAmountCollected",
      "type": "error"
    },
    {
      "inputs": [
        {
          "internalType": "uint256",
          "name": "current_contribution",
          "type": "uint256"
        },
        {
          "internalType": "uint256",
          "name": "required_contribution",
          "type": "uint256"
        }
      ],
      "name": "TooLessContribution",
      "type": "error"
    },
    {
      "inputs": [
        {
          "internalType": "uint8",
          "name": "current_project_count",
          "type": "uint8"
        }
      ],
      "name": "TooMuchProjectRequest",
      "type": "error"
    },
    {
      "anonymous": false,
      "inputs": [
        {
          "indexed": true,
          "internalType": "uint256",
          "name": "id",
          "type": "uint256"
        },
        {
          "indexed": true,
          "internalType": "address",
          "name": "owner",
          "type": "address"
        },
        {
          "indexed": false,
          "internalType": "string",
          "name": "title",
          "type": "string"
        }
      ],
      "name": "Created_Project",
      "type": "event"
    },
    {
      "anonymous": false,
      "inputs": [
        {
          "indexed": true,
          "internalType": "uint8",
          "name": "id",
          "type": "uint8"
        },
        {
          "indexed": true,
          "internalType": "address",
          "name": "owner",
          "type": "address"
        },
        {
          "indexed": false,
          "internalType": "string",
          "name": "title",
          "type": "string"
        }
      ],
      "name": "Created_Request",
      "type": "event"
    },
    {
      "anonymous": false,
      "inputs": [
        {
          "indexed": true,
          "internalType": "uint256",
          "name": "id",
          "type": "uint256"
        },
        {
          "indexed": true,
          "internalType": "address",
          "name": "from",
          "type": "address"
        },
        {
          "indexed": false,
          "internalType": "uint256",
          "name": "value",
          "type": "uint256"
        }
      ],
      "name": "Supported_Project",
      "type": "event"
    },
    {
      "inputs": [],
      "name": "Project_ID_Count",
      "outputs": [
        {
          "internalType": "uint256",
          "name": "",
          "type": "uint256"
        }
      ],
      "stateMutability": "view",
      "type": "function",
      "constant": true
    },
    {
      "inputs": [],
      "name": "admin",
      "outputs": [
        {
          "internalType": "address",
          "name": "",
          "type": "address"
        }
      ],
      "stateMutability": "view",
      "type": "function",
      "constant": true
    },
    {
      "inputs": [
        {
          "internalType": "address",
          "name": "",
          "type": "address"
        },
        {
          "internalType": "uint256",
          "name": "",
          "type": "uint256"
        }
      ],
      "name": "check_is_donated",
      "outputs": [
        {
          "internalType": "bool",
          "name": "",
          "type": "bool"
        }
      ],
      "stateMutability": "view",
      "type": "function",
      "constant": true
    },
    {
      "inputs": [
        {
          "internalType": "address",
          "name": "",
          "type": "address"
        },
        {
          "internalType": "uint256",
          "name": "",
          "type": "uint256"
        }
      ],
      "name": "donated_project_mapping",
      "outputs": [
        {
          "internalType": "uint256",
          "name": "",
          "type": "uint256"
        }
      ],
      "stateMutability": "view",
      "type": "function",
      "constant": true
    },
    {
      "inputs": [
        {
          "internalType": "address",
          "name": "",
          "type": "address"
        }
      ],
      "name": "project_count",
      "outputs": [
        {
          "internalType": "uint8",
          "name": "",
          "type": "uint8"
        }
      ],
      "stateMutability": "view",
      "type": "function",
      "constant": true
    },
    {
      "inputs": [
        {
          "internalType": "address",
          "name": "",
          "type": "address"
        },
        {
          "internalType": "uint256",
          "name": "",
          "type": "uint256"
        }
      ],
      "name": "project_mapping",
      "outputs": [
        {
          "internalType": "uint256",
          "name": "",
          "type": "uint256"
        }
      ],
      "stateMutability": "view",
      "type": "function",
      "constant": true
    },
    {
      "inputs": [
        {
          "internalType": "address",
          "name": "",
          "type": "address"
        },
        {
          "internalType": "uint256",
          "name": "",
          "type": "uint256"
        }
      ],
      "name": "project_total_foundation_mapping",
      "outputs": [
        {
          "internalType": "uint256",
          "name": "",
          "type": "uint256"
        }
      ],
      "stateMutability": "view",
      "type": "function",
      "constant": true
    },
    {
      "inputs": [
        {
          "internalType": "uint256",
          "name": "",
          "type": "uint256"
        }
      ],
      "name": "projects",
      "outputs": [
        {
          "internalType": "address",
          "name": "project_owner",
          "type": "address"
        },
        {
          "internalType": "string",
          "name": "description",
          "type": "string"
        },
        {
          "internalType": "string",
          "name": "title",
          "type": "string"
        },
        {
          "internalType": "bool",
          "name": "is_complete",
          "type": "bool"
        },
        {
          "internalType": "uint256",
          "name": "minimum_contribution",
          "type": "uint256"
        },
        {
          "internalType": "uint256",
          "name": "sponsors_count",
          "type": "uint256"
        },
        {
          "internalType": "uint256",
          "name": "id",
          "type": "uint256"
        },
        {
          "internalType": "uint8",
          "name": "request_count",
          "type": "uint8"
        },
        {
          "internalType": "uint256",
          "name": "total_required_amount",
          "type": "uint256"
        },
        {
          "internalType": "uint256",
          "name": "current_amount",
          "type": "uint256"
        },
        {
          "internalType": "uint8",
          "name": "unsolved_request",
          "type": "uint8"
        }
      ],
      "stateMutability": "view",
      "type": "function",
      "constant": true
    },
    {
      "inputs": [
        {
          "internalType": "address",
          "name": "",
          "type": "address"
        }
      ],
      "name": "total_foundation_mapping",
      "outputs": [
        {
          "internalType": "uint256",
          "name": "",
          "type": "uint256"
        }
      ],
      "stateMutability": "view",
      "type": "function",
      "constant": true
    },
    {
      "inputs": [],
      "name": "total_sponsors",
      "outputs": [
        {
          "internalType": "uint256",
          "name": "",
          "type": "uint256"
        }
      ],
      "stateMutability": "view",
      "type": "function",
      "constant": true
    },
    {
      "inputs": [
        {
          "internalType": "string",
          "name": "_title",
          "type": "string"
        },
        {
          "internalType": "string",
          "name": "_description",
          "type": "string"
        },
        {
          "internalType": "uint256",
          "name": "_minimum_contribution",
          "type": "uint256"
        }
      ],
      "name": "create_project",
      "outputs": [
        {
          "internalType": "bool",
          "name": "success",
          "type": "bool"
        }
      ],
      "stateMutability": "nonpayable",
      "type": "function"
    },
    {
      "inputs": [
        {
          "internalType": "uint256",
          "name": "_id",
          "type": "uint256"
        },
        {
          "internalType": "string",
          "name": "_description",
          "type": "string"
        },
        {
          "internalType": "string",
          "name": "_title",
          "type": "string"
        },
        {
          "internalType": "address payable",
          "name": "_buyer",
          "type": "address"
        },
        {
          "internalType": "uint256",
          "name": "_value",
          "type": "uint256"
        }
      ],
      "name": "create_request",
      "outputs": [
        {
          "internalType": "bool",
          "name": "success",
          "type": "bool"
        }
      ],
      "stateMutability": "nonpayable",
      "type": "function"
    },
    {
      "inputs": [
        {
          "internalType": "uint256",
          "name": "project_id",
          "type": "uint256"
        }
      ],
      "name": "support_project",
      "outputs": [
        {
          "internalType": "bool",
          "name": "success",
          "type": "bool"
        }
      ],
      "stateMutability": "payable",
      "type": "function",
      "payable": true
    },
    {
      "inputs": [
        {
          "internalType": "uint256",
          "name": "_project_id",
          "type": "uint256"
        },
        {
          "internalType": "uint8",
          "name": "_request_id",
          "type": "uint8"
        }
      ],
      "name": "approve_request",
      "outputs": [
        {
          "internalType": "bool",
          "name": "success",
          "type": "bool"
        }
      ],
      "stateMutability": "nonpayable",
      "type": "function"
    },
    {
      "inputs": [
        {
          "internalType": "uint256",
          "name": "_project_id",
          "type": "uint256"
        },
        {
          "internalType": "uint8",
          "name": "_request_id",
          "type": "uint8"
        }
      ],
      "name": "finalize_request",
      "outputs": [
        {
          "internalType": "bool",
          "name": "success",
          "type": "bool"
        }
      ],
      "stateMutability": "nonpayable",
      "type": "function"
    },
    {
      "inputs": [
        {
          "internalType": "uint256",
          "name": "_project_id",
          "type": "uint256"
        }
      ],
      "name": "finalize_project",
      "outputs": [
        {
          "internalType": "bool",
          "name": "success",
          "type": "bool"
        }
      ],
      "stateMutability": "nonpayable",
      "type": "function"
    },
    {
      "inputs": [],
      "name": "returnProject",
      "outputs": [
        {
          "internalType": "uint256[]",
          "name": "",
          "type": "uint256[]"
        }
      ],
      "stateMutability": "view",
      "type": "function",
      "constant": true
    },
    {
      "inputs": [],
      "name": "returnDonatedProject",
      "outputs": [
        {
          "internalType": "uint256[]",
          "name": "",
          "type": "uint256[]"
        }
      ],
      "stateMutability": "view",
      "type": "function",
      "constant": true
    },
    {
      "inputs": [
        {
          "internalType": "uint256",
          "name": "project_id",
          "type": "uint256"
        }
      ],
      "name": "returnDonatedAmountAnProject",
      "outputs": [
        {
          "internalType": "uint256",
          "name": "",
          "type": "uint256"
        }
      ],
      "stateMutability": "view",
      "type": "function",
      "constant": true
    },
    {
      "inputs": [
        {
          "internalType": "uint256",
          "name": "project_id",
          "type": "uint256"
        },
        {
          "internalType": "uint256",
          "name": "request_id",
          "type": "uint256"
        }
      ],
      "name": "returnRequest",
      "outputs": [
        {
          "internalType": "string",
          "name": "",
          "type": "string"
        },
        {
          "internalType": "string",
          "name": "",
          "type": "string"
        },
        {
          "internalType": "address",
          "name": "",
          "type": "address"
        },
        {
          "internalType": "uint256",
          "name": "",
          "type": "uint256"
        },
        {
          "internalType": "bool",
          "name": "",
          "type": "bool"
        }
      ],
      "stateMutability": "view",
      "type": "function",
      "constant": true
    },
    {
      "inputs": [
        {
          "internalType": "address",
          "name": "_sponsor",
          "type": "address"
        },
        {
          "internalType": "uint256",
          "name": "_procect_id",
          "type": "uint256"
        }
      ],
      "name": "supponsor_check",
      "outputs": [
        {
          "internalType": "bool",
          "name": "status",
          "type": "bool"
        }
      ],
      "stateMutability": "view",
      "type": "function",
      "constant": true
    },
    {
      "inputs": [
        {
          "internalType": "address",
          "name": "_sponsor",
          "type": "address"
        },
        {
          "internalType": "uint256",
          "name": "_procect_id",
          "type": "uint256"
        }
      ],
      "name": "return_sponsor_value",
      "outputs": [
        {
          "internalType": "uint256",
          "name": "",
          "type": "uint256"
        }
      ],
      "stateMutability": "view",
      "type": "function",
      "constant": true
    }
  ],
  "bytecode": "0x608060405234801561001057600080fd5b50600080546001600160a01b03191633178155600155611b3a806100356000396000f3fe6080604052600436106101355760003560e01c806365ec67d8116100ab5780639bf2c77d1161006f5780639bf2c77d146103e0578063c6378a2e146103f5578063c835a09f14610415578063eb695e1514610435578063f851a44014610455578063ff5f03ca1461048d57600080fd5b806365ec67d8146103005780636d738c411461032d5780637eceb1351461034d57806382941e55146103885780638992fa12146103c057600080fd5b806353518a7d116100fd57806353518a7d146101fb57806358e82414146102415780635aa79259146102575780635c9b95631461027757806361fec92c1461028d57806364f66b91146102cf57600080fd5b80630e8e23251461013a578063107046bd1461016f5780633a47f5c8146101a65780633e3ec9d0146101c85780634a43694c146101db575b600080fd5b34801561014657600080fd5b5061015a6101553660046114a1565b6104ad565b60405190151581526020015b60405180910390f35b34801561017b57600080fd5b5061018f61018a3660046114d7565b610661565b6040516101669b9a99989796959493929190611536565b3480156101b257600080fd5b506101bb6107ee565b60405161016691906115b9565b61015a6101d63660046114d7565b61084f565b3480156101e757600080fd5b5061015a6101f63660046114d7565b610ab9565b34801561020757600080fd5b50610233610216366004611615565b600860209081526000928352604080842090915290825290205481565b604051908152602001610166565b34801561024d57600080fd5b5061023360015481565b34801561026357600080fd5b50610233610272366004611615565b610b7b565b34801561028357600080fd5b5061023360095481565b34801561029957600080fd5b506102bd6102a8366004611641565b60036020526000908152604090205460ff1681565b60405160ff9091168152602001610166565b3480156102db57600080fd5b506102ef6102ea366004611665565b610bac565b604051610166959493929190611687565b34801561030c57600080fd5b5061023361031b366004611641565b60076020526000908152604090205481565b34801561033957600080fd5b50610233610348366004611615565b610d59565b34801561035957600080fd5b5061015a610368366004611615565b600660209081526000928352604080842090915290825290205460ff1681565b34801561039457600080fd5b506102336103a33660046114d7565b336000908152600860209081526040808320938352929052205490565b3480156103cc57600080fd5b5061015a6103db366004611778565b610da0565b3480156103ec57600080fd5b506101bb610f84565b34801561040157600080fd5b50610233610410366004611615565b610fe3565b34801561042157600080fd5b5061015a6104303660046117e5565b610fff565b34801561044157600080fd5b5061015a610450366004611615565b611249565b34801561046157600080fd5b50600054610475906001600160a01b031681565b6040516001600160a01b039091168152602001610166565b34801561049957600080fd5b5061015a6104a83660046114a1565b611297565b60008282600282815481106104c4576104c461186d565b90600052602060002090600d0201600c018160ff16815481106104e9576104e961186d565b600091825260209091206005600890920201015460ff161561050a57600080fd5b600092506000600286815481106105235761052361186d565b90600052602060002090600d02019050600081600c018660ff168154811061054d5761054d61186d565b60009182526020808320338452600586019091526040832054600890920201925090036105c15760405162461bcd60e51b815260206004820152601860248201527f4f6e6c7920617070726f7665207468652073706f6e736f72000000000000000060448201526064015b60405180910390fd5b33600090815260078201602052604090205460ff16156106235760405162461bcd60e51b815260206004820181905260248201527f4f6e6c7920617070726f7665206f6e636520666f7220616e207265717565737460448201526064016105b8565b3360009081526007820160205260408120805460ff191660011790556004820180549161064f83611899565b90915550600198975050505050505050565b6002818154811061067157600080fd5b60009182526020909120600d9091020180546001820180546001600160a01b039092169350906106a0906118b2565b80601f01602080910402602001604051908101604052809291908181526020018280546106cc906118b2565b80156107195780601f106106ee57610100808354040283529160200191610719565b820191906000526020600020905b8154815290600101906020018083116106fc57829003601f168201915b50505050509080600201805461072e906118b2565b80601f016020809104026020016040519081016040528092919081815260200182805461075a906118b2565b80156107a75780601f1061077c576101008083540402835291602001916107a7565b820191906000526020600020905b81548152906001019060200180831161078a57829003601f168201915b505050600384015460048501546006860154600787015460088801546009890154600a8a0154600b909a0154989960ff96871699959850939650919490811693919291168b565b3360009081526005602090815260409182902080548351818402810184019094528084526060939283018282801561084557602002820191906000526020600020905b815481526020019060010190808311610831575b5050505050905090565b600081600281815481106108655761086561186d565b600091825260209091206003600d90920201015460ff161561088657600080fd5b6000915060006002848154811061089f5761089f61186d565b90600052602060002090600d020190506000816009015482600a0154106108e15781600a0154604051636086231560e11b81526004016105b891815260200190565b81600a015482600901546108f591906118e6565b905081600401548111801561090d5750348260040154115b1561093a57600480830154604051632c95503360e11b8152349281019290925260248201526044016105b8565b336000908152600583016020526040812054900361096a5760068201805490600061096483611899565b91905055505b3360009081526005830160205260408120805434929061098b9084906118f9565b925050819055503482600a0160008282546109a691906118f9565b9091555050604051348152339086907fd6a39cc93b60de38e5664ab11e72104f39804cdf902da5993541933e767eabfa9060200160405180910390a33360009081526007602052604081208054349290610a019084906118f9565b909155505033600090815260086020908152604080832088845290915281208054349290610a309084906118f9565b909155505033600090815260066020908152604080832088845290915290205460ff1680610aaf57336000818152600560209081526040808320805460018181018355918552838520018b9055938352600682528083208a84529091528120805460ff19169092179091556009805491610aa983611899565b91905055505b5050505b50919050565b60008160028181548110610acf57610acf61186d565b600091825260209091206003600d90920201015460ff1615610af057600080fd5b60009150600060028481548110610b0957610b0961186d565b60009182526020909120600d9091020180549091506001600160a01b03163314610b3257600080fd5b600b81015460ff1615610b4457600080fd5b600a81015415610b5357600080fd5b600981015415610b6257600080fd5b600301805460ff19166001908117909155915050919050565b60046020528160005260406000208181548110610b9757600080fd5b90600052602060002001600091509150505481565b60608060008060008060028881548110610bc857610bc861186d565b90600052602060002090600d02019050600081600c018881548110610bef57610bef61186d565b600091825260209091206008909102016003810154600682015460058301546001840180549495509360028601936001600160a01b0316929160ff16908590610c37906118b2565b80601f0160208091040260200160405190810160405280929190818152602001828054610c63906118b2565b8015610cb05780601f10610c8557610100808354040283529160200191610cb0565b820191906000526020600020905b815481529060010190602001808311610c9357829003601f168201915b50505050509450838054610cc3906118b2565b80601f0160208091040260200160405190810160405280929190818152602001828054610cef906118b2565b8015610d3c5780601f10610d1157610100808354040283529160200191610d3c565b820191906000526020600020905b815481529060010190602001808311610d1f57829003601f168201915b505050505093509650965096509650965050509295509295909350565b600060028281548110610d6e57610d6e61186d565b600091825260208083206001600160a01b03871684526005600d90930201919091019052604090205490505b92915050565b33600090815260036020526040812054600560ff90911610610dec57336000908152600360205260409081902054905163571b555b60e11b815260ff90911660048201526024016105b8565b60028054600181018255600091909152600d027f405787fa12a823e0f2b7631cc41b3ba8828b3321ca811111fa75cd3aa3bb5ace810180546001600160a01b03191633178155907f405787fa12a823e0f2b7631cc41b3ba8828b3321ca811111fa75cd3aa3bb5ad001610e5f868261195b565b5060018101610e6e858261195b565b506001805460078301908155600480840186905560088401805460ff1990811690915560006006860181905560098601819055600a8601819055600b86018054831690556003860180549092169091553381526020918252604080822085548154968701825590835292909120909301558254905491516001600160a01b0390911691907fba8757d57892e38f2a4fc5bb45dd139b992e4912cff281e9d57610064406c5a690610f22906002860190611a1b565b60405180910390a3336000908152600360205260408120805460ff1691610f4883611aa6565b91906101000a81548160ff021916908360ff1602179055505060016000815480929190610f7490611899565b9091555060019695505050505050565b336000908152600460209081526040918290208054835181840281018401909452808452606093928301828280156108455760200282019190600052602060002090815481526020019060010190808311610831575050505050905090565b60056020528160005260406000208181548110610b9757600080fd5b600085600281815481106110155761101561186d565b600091825260209091206003600d90920201015460ff161561103657600080fd5b6000915060006002888154811061104f5761104f61186d565b60009182526020909120600d9091020180549091506001600160a01b031633146110cc5760405162461bcd60e51b815260206004820152602860248201527f4f6e6c792070726f6a656374206f776e65722063616e2063726561746520616e604482015267081c995c5d595cdd60c21b60648201526084016105b8565b600b810154600560ff9091161061110157600b81015460405163571b555b60e11b815260ff90911660048201526024016105b8565b600c81018054600181810183556000928352602090922060089091020190810161112b888261195b565b506002810161113a898261195b565b506003810180546001600160a01b0319166001600160a01b0388161790556008820154815460ff90911660ff199182168117835560058301805490921690915560068201869055600060048301556040513391907feff2fb3872a1b9ca78b62f8ea0968e70a2dfd8cf70d5788ae6462a5e52c86dfc906111be906001860190611a1b565b60405180910390a360088201805460ff169060006111db83611aa6565b82546101009290920a60ff818102199093169183160217909155600b840180549091169150600061120b83611aa6565b91906101000a81548160ff021916908360ff160217905550508482600901600082825461123891906118f9565b909155505050505095945050505050565b6000806002838154811061125f5761125f61186d565b600091825260208083206001600160a01b03881684526005600d9093020191909101905260409020541115610d9a5750600192915050565b60008282600282815481106112ae576112ae61186d565b90600052602060002090600d0201600c018160ff16815481106112d3576112d361186d565b600091825260209091206005600890920201015460ff16156112f457600080fd5b6000925060006002868154811061130d5761130d61186d565b90600052602060002090600d02019050600081600c018660ff16815481106113375761133761186d565b60009182526020909120835460089092020191506001600160a01b0316331461135f57600080fd5b600282600601546113709190611ac5565b81600401541161137f57600080fd5b600581015460ff161561139157600080fd5b806006015482600a015410156113cd57600a820154600682015460405163cf47918160e01b8152600481019290925260248201526044016105b8565b600381015460068201546040516001600160a01b039092169181156108fc0291906000818181858888f1935050505015801561140d573d6000803e3d6000fd5b50806006015482600a01600082825461142691906118e6565b909155505060068101546009830180546000906114449084906118e6565b909155505060058101805460ff19166001179055600b82015460ff161561149457600b8201805460ff1690600061147a83611ae7565b91906101000a81548160ff021916908360ff160217905550505b5060019695505050505050565b600080604083850312156114b457600080fd5b82359150602083013560ff811681146114cc57600080fd5b809150509250929050565b6000602082840312156114e957600080fd5b5035919050565b6000815180845260005b81811015611516576020818501810151868301820152016114fa565b506000602082860101526020601f19601f83011685010191505092915050565b6001600160a01b038c1681526101606020820181905260009061155b8382018e6114f0565b9050828103604084015261156f818d6114f0565b9a151560608401525050608081019790975260a087019590955260c086019390935260ff91821660e086015261010085015261012084019190915216610140909101529392505050565b6020808252825182820181905260009190848201906040850190845b818110156115f1578351835292840192918401916001016115d5565b50909695505050505050565b6001600160a01b038116811461161257600080fd5b50565b6000806040838503121561162857600080fd5b8235611633816115fd565b946020939093013593505050565b60006020828403121561165357600080fd5b813561165e816115fd565b9392505050565b6000806040838503121561167857600080fd5b50508035926020909101359150565b60a08152600061169a60a08301886114f0565b82810360208401526116ac81886114f0565b6001600160a01b0396909616604084015250506060810192909252151560809091015292915050565b634e487b7160e01b600052604160045260246000fd5b600082601f8301126116fc57600080fd5b813567ffffffffffffffff80821115611717576117176116d5565b604051601f8301601f19908116603f0116810190828211818310171561173f5761173f6116d5565b8160405283815286602085880101111561175857600080fd5b836020870160208301376000602085830101528094505050505092915050565b60008060006060848603121561178d57600080fd5b833567ffffffffffffffff808211156117a557600080fd5b6117b1878388016116eb565b945060208601359150808211156117c757600080fd5b506117d4868287016116eb565b925050604084013590509250925092565b600080600080600060a086880312156117fd57600080fd5b85359450602086013567ffffffffffffffff8082111561181c57600080fd5b61182889838a016116eb565b9550604088013591508082111561183e57600080fd5b5061184b888289016116eb565b935050606086013561185c816115fd565b949793965091946080013592915050565b634e487b7160e01b600052603260045260246000fd5b634e487b7160e01b600052601160045260246000fd5b6000600182016118ab576118ab611883565b5060010190565b600181811c908216806118c657607f821691505b602082108103610ab357634e487b7160e01b600052602260045260246000fd5b81810381811115610d9a57610d9a611883565b80820180821115610d9a57610d9a611883565b601f82111561195657600081815260208120601f850160051c810160208610156119335750805b601f850160051c820191505b818110156119525782815560010161193f565b5050505b505050565b815167ffffffffffffffff811115611975576119756116d5565b6119898161198384546118b2565b8461190c565b602080601f8311600181146119be57600084156119a65750858301515b600019600386901b1c1916600185901b178555611952565b600085815260208120601f198616915b828110156119ed578886015182559484019460019091019084016119ce565b5085821015611a0b5787850151600019600388901b60f8161c191681555b5050505050600190811b01905550565b6000602080835260008454611a2f816118b2565b80848701526040600180841660008114611a505760018114611a6a57611a98565b60ff1985168984015283151560051b890183019550611a98565b896000528660002060005b85811015611a905781548b8201860152908301908801611a75565b8a0184019650505b509398975050505050505050565b600060ff821660ff8103611abc57611abc611883565b60010192915050565b600082611ae257634e487b7160e01b600052601260045260246000fd5b500490565b600060ff821680611afa57611afa611883565b600019019291505056fea26469706673582212204450e01e734e74413d236a77546b18a31062d4823960a2c54ba45f9b657d340564736f6c63430008120033",
  "immutableReferences": {},
  "source": "//SPDX-License-Identifier: MIT\r\n\r\npragma solidity 0.8.18;\r\n\r\n\r\ncontract FundMe{\r\n\r\n    address public admin;\r\n    uint8 private constant MAX_UNSOLVED_REQUEST = 5;\r\n    uint8 private constant MAX_PROJECT = 5;\r\n    uint256 public Project_ID_Count;\r\n    uint256 private constant DECIMAL = 10^18;\r\n    \r\n    // Request struct project owner can create MAX_UNSOLVED_REQUEST unsolved request\r\n    struct Request {\r\n        uint8 request_id;\r\n        string title;\r\n        string description;\r\n        address payable buyer;\r\n        uint256 approval_vote_count;\r\n        bool is_complete;\r\n        uint256 value;\r\n        mapping(address => bool) approvals;\r\n    }\r\n\r\n    // Projects Struct user can create MAX_PROJECT unsolved procect\r\n    struct Project{\r\n        address project_owner;\r\n        string description;\r\n        string title;\r\n        bool is_complete;\r\n        uint256 minimum_contribution;\r\n        mapping(address => uint256) sponsors;\r\n        uint256 sponsors_count;\r\n        uint256 id;\r\n        uint8 request_count;\r\n        uint256 total_required_amount;\r\n        uint256 current_amount;\r\n        uint8 unsolved_request;\r\n        Request[] requests;\r\n    }\r\n\r\n     Project[] public projects;\r\n     mapping(address => uint8) public project_count;\r\n     mapping(address => uint256[]) public project_mapping;\r\n     mapping(address => uint256[]) public donated_project_mapping;\r\n     mapping(address => mapping(uint256 => bool)) public check_is_donated;\r\n     mapping(address => uint256) public total_foundation_mapping;\r\n     mapping(address => mapping(uint256=>uint256)) public project_total_foundation_mapping;\r\n     uint256 public total_sponsors;\r\n\r\n     \r\n     // Events\r\n     event Created_Project(uint256 indexed id, address indexed owner, string title);\r\n     event Created_Request(uint8 indexed id, address indexed owner,string title);\r\n     event Supported_Project(uint256 indexed id, address indexed from, uint256 value);\r\n     \r\n    // Custrom Errors\r\n    error TooMuchProjectRequest(uint8 current_project_count);\r\n    error TooLessContribution(uint256 current_contribution, uint256 required_contribution);\r\n    error RequiredAmountCollected(uint amount);\r\n    error InsufficientBalance(uint256 current_amount, uint256 required_amount);\r\n\r\n    constructor() {\r\n        admin = msg.sender;\r\n        Project_ID_Count = 0;\r\n    }\r\n\r\n    modifier only_admin_call(){\r\n        require(msg.sender == admin);\r\n        _;\r\n    }\r\n\r\n    modifier project_check(uint256 project_id){\r\n        require(!projects[project_id].is_complete);\r\n        _;\r\n    }\r\n\r\n    modifier request_check(uint256 project_id, uint8 request_id)  {\r\n        require(!projects[project_id].requests[request_id].is_complete);\r\n        _;\r\n    }\r\n    \r\n    function create_project(string memory _title, string memory _description, uint256 _minimum_contribution) public returns(bool success){\r\n        \r\n        // initialize the process\r\n        success = false;    \r\n\r\n        // Check project count (only create MAX_PROJECT)\r\n        if(project_count[msg.sender] >= MAX_PROJECT){\r\n               revert TooMuchProjectRequest({\r\n                current_project_count: project_count[msg.sender]\r\n            });\r\n        }\r\n\r\n        // create project\r\n        Project storage project = projects.push();\r\n        project.project_owner = msg.sender;\r\n        project.title = _title;\r\n        project.description = _description;\r\n        project.id = Project_ID_Count;\r\n        project.minimum_contribution = _minimum_contribution;\r\n        project.request_count = 0;\r\n        project.sponsors_count = 0;\r\n        project.total_required_amount = 0;\r\n        project.current_amount = 0;\r\n        project.unsolved_request = 0;\r\n        project.is_complete = false;\r\n\r\n        // track projects via address\r\n        project_mapping[msg.sender].push(Project_ID_Count);\r\n\r\n        // Emit event\r\n        emit Created_Project(\r\n            project.id,\r\n            project.project_owner,\r\n            project.title\r\n        );\r\n\r\n        // increase counters\r\n        project_count[msg.sender]++;\r\n        Project_ID_Count++;\r\n\r\n        // finilize the process\r\n        success = true;\r\n        return success;         \r\n    }\r\n\r\n    function create_request(uint256 _id, string memory _description, string memory _title, address payable _buyer, uint256 _value) project_check(_id) public returns(bool success){\r\n        \r\n        // Initialize process\r\n        success = false;\r\n\r\n        // Create project instance for gas save\r\n        Project storage projectIntance = projects[_id];\r\n        \r\n\r\n        // only project owner can call \r\n        require(msg.sender == projectIntance.project_owner, \"Only project owner can create an request\");\r\n\r\n        // Check unsolved request\r\n        if(projectIntance.unsolved_request >= MAX_UNSOLVED_REQUEST){\r\n               revert TooMuchProjectRequest({\r\n                current_project_count: projectIntance.unsolved_request\r\n            });\r\n        }\r\n\r\n        // Create Request\r\n        Request storage request = projectIntance.requests.push();\r\n        request.title = _title;\r\n        request.description = _description;\r\n        request.buyer = _buyer;\r\n        request.request_id = projectIntance.request_count;\r\n        request.is_complete = false;\r\n        request.value = _value;\r\n        request.approval_vote_count = 0;\r\n\r\n        // Emit event\r\n        emit Created_Request(request.request_id, msg.sender, request.title);\r\n\r\n        // increase counter\r\n        projectIntance.request_count++;\r\n        projectIntance.unsolved_request++;\r\n        projectIntance.total_required_amount += _value;\r\n\r\n        return success;\r\n    }\r\n\r\n    // support project \r\n    function support_project(uint256 project_id) project_check(project_id) public payable returns(bool success){\r\n        \r\n        // Initialize process\r\n        success = false;\r\n\r\n        // Create project instance\r\n        Project storage projectInstance = projects[project_id];\r\n\r\n        // check required balance\r\n        uint256 required_balance;\r\n\r\n        // Check required amount is collected\r\n        if(projectInstance.current_amount >= projectInstance.total_required_amount){\r\n                revert RequiredAmountCollected({\r\n                amount: projectInstance.current_amount\r\n            });\r\n        }\r\n        else{\r\n            required_balance = projectInstance.total_required_amount - projectInstance.current_amount;\r\n        }\r\n\r\n        // check minimum contrubition\r\n        if( required_balance > projectInstance.minimum_contribution && projectInstance.minimum_contribution > msg.value){\r\n            revert TooLessContribution({\r\n                current_contribution: msg.value,\r\n                required_contribution: projectInstance.minimum_contribution\r\n            });\r\n        }\r\n\r\n        if(projectInstance.sponsors[msg.sender] == 0){\r\n            // increase the counter\r\n            projectInstance.sponsors_count++;\r\n        }\r\n\r\n        // add sponsor\r\n        projectInstance.sponsors[msg.sender] += msg.value;\r\n        projectInstance.current_amount += msg.value;\r\n\r\n        // Emit Event\r\n        emit Supported_Project(project_id, msg.sender, msg.value);\r\n        total_foundation_mapping[msg.sender] += msg.value;\r\n        project_total_foundation_mapping[msg.sender][project_id] += msg.value;\r\n     \r\n\r\n        bool is_donated = check_is_donated[msg.sender][project_id];\r\n        if(!is_donated){\r\n        donated_project_mapping[msg.sender].push(project_id);\r\n        check_is_donated[msg.sender][project_id] = true;\r\n           total_sponsors++;\r\n        }\r\n\r\n\r\n        return success;\r\n    }\r\n\r\n    // vote request\r\n    function approve_request(uint256 _project_id, uint8 _request_id) request_check(_project_id,_request_id) public returns(bool success){\r\n        \r\n        // initalize process\r\n        success = false;\r\n        \r\n        // get project and request\r\n        Project storage projectInstance = projects[_project_id];\r\n        Request storage requestInstance = projectInstance.requests[_request_id];\r\n\r\n\r\n        // check is the approver funder\r\n        if(projectInstance.sponsors[msg.sender] == 0){\r\n            revert(\"Only approve the sponsor\");\r\n        } \r\n\r\n        // check only vote once\r\n        if(requestInstance.approvals[msg.sender]){\r\n            revert(\"Only approve once for an request\");\r\n        }\r\n\r\n        // assign approvals\r\n        requestInstance.approvals[msg.sender] = true;\r\n        requestInstance.approval_vote_count++;\r\n\r\n        success = true;\r\n\r\n        return success;\r\n    }\r\n\r\n    // finalize request\r\n    function finalize_request(uint256 _project_id, uint8 _request_id) request_check(_project_id,_request_id) public returns(bool success){\r\n\r\n        success = false;\r\n        // get project and request\r\n        Project storage projectInstance = projects[_project_id];\r\n        Request storage requestInstance = projectInstance.requests[_request_id];\r\n\r\n        // only project owner can finilize the request\r\n        require(msg.sender == projectInstance.project_owner);\r\n\r\n        // check the vote\r\n        require(requestInstance.approval_vote_count > (projectInstance.sponsors_count / 2));\r\n        require(!requestInstance.is_complete);\r\n\r\n        // check balance\r\n        if(projectInstance.current_amount < requestInstance.value){\r\n              revert InsufficientBalance({\r\n                current_amount: projectInstance.current_amount,\r\n                required_amount: requestInstance.value\r\n            });\r\n        }\r\n\r\n        // send money to buyer\r\n         payable(requestInstance.buyer).transfer(requestInstance.value);\r\n\r\n        // reduce current amount & total required amount\r\n        projectInstance.current_amount -= requestInstance.value;\r\n        projectInstance.total_required_amount -= requestInstance.value;\r\n\r\n        requestInstance.is_complete = true;\r\n        if(projectInstance.unsolved_request > 0){\r\n            projectInstance.unsolved_request--;\r\n        }\r\n\r\n        success = true;\r\n        return success;\r\n    }   \r\n\r\n    // finalize  project\r\n    function finalize_project(uint256 _project_id) project_check(_project_id) public returns (bool success) {\r\n\r\n        success = false;\r\n        Project storage projectInstance = projects[_project_id];\r\n\r\n        // only owner can call this function\r\n        require(msg.sender == projectInstance.project_owner);\r\n\r\n        // require all request are done\r\n        require(projectInstance.unsolved_request == 0);\r\n\r\n        // require all amount spent\r\n        require(projectInstance.current_amount == 0);\r\n\r\n        // require total required amount must be zero\r\n        require(projectInstance.total_required_amount == 0);\r\n\r\n        // mark project as is completed\r\n        projectInstance.is_complete = true;\r\n\r\n\r\n        success = true;\r\n        return success;\r\n\r\n    }\r\n\r\n\r\n    // max return size 5\r\n    function returnProject() public view returns(uint256[] memory){\r\n        return project_mapping[msg.sender];\r\n    }\r\n\r\n    function returnDonatedProject() public view returns(uint256[] memory){\r\n        return donated_project_mapping[msg.sender];\r\n    }\r\n\r\n    function returnDonatedAmountAnProject(uint256 project_id) public view returns(uint256 ){\r\n        return project_total_foundation_mapping[msg.sender][project_id];\r\n    }\r\n\r\n    function returnRequest(uint256 project_id, uint256 request_id) public view returns(string memory, string memory, address ,uint256,bool){\r\n        Project storage projectInstance = projects[project_id];\r\n        Request storage requestInstance = projectInstance.requests[request_id];\r\n        return(requestInstance.title,requestInstance.description,requestInstance.buyer, requestInstance.value,requestInstance.is_complete);\r\n    }\r\n\r\n    function supponsor_check(address _sponsor, uint256 _procect_id) public view returns(bool status) {\r\n\r\n        status = false;\r\n        if(projects[_procect_id].sponsors[_sponsor] > 0){\r\n            status = true;\r\n        }\r\n        return status;\r\n    }\r\n\r\n    function return_sponsor_value(address _sponsor, uint256 _procect_id) public view returns(uint256) {\r\n        return projects[_procect_id].sponsors[_sponsor];\r\n    }\r\n\r\n\r\n    // safe maths functions     \r\n    function mul(uint256 a, uint256 b) internal pure returns (uint256 c) {\r\n        if (a == 0) {\r\n        return 0;\r\n        }\r\n        c = a * b;\r\n        assert(c / a == b);\r\n        return c;\r\n    }\r\n\r\n    function div(uint256 a, uint256 b) internal pure returns (uint256) {\r\n        return div(a, b, \"SafeMath: division by zero\");\r\n    }\r\n\r\n    function div(uint256 a, uint256 b, string memory errorMessage) internal pure returns (uint256) {\r\n        // Solidity only automatically asserts when dividing by 0\r\n        require(b > 0, errorMessage);\r\n        uint256 c = a / b;\r\n        // assert(a == b * c + a % b); // There is no case in which this doesn't hold\r\n\r\n        return c;\r\n    }\r\n\r\n\r\n}",
  "sourcePath": "C:\\Users\\aliih\\Desktop\\ihsan\\BlockChain\\portfolio\\CrowdFundMe\\smart_contracts\\contracts\\FundMe.sol",
  "compiler": {
    "name": "solc",
    "version": "0.8.18+commit.87f61d96.Emscripten.clang"
  },
  "schemaVersion": "3.4.16",
  "updatedAt": "2023-11-22T12:21:06.001Z",
  "networkType": "ethereum",
  "devdoc": {
    "kind": "dev",
    "methods": {},
    "version": 1
  },
  "userdoc": {
    "kind": "user",
    "methods": {},
    "version": 1
  }
}