{
  "contractName": "FundMe",
  "abi": [
    {
      "inputs": [],
      "stateMutability": "nonpayable",
      "type": "constructor"
    },
    {
      "inputs": [
        {
          "internalType": "uint256",
          "name": "current_amount",
          "type": "uint256"
        },
        {
          "internalType": "uint256",
          "name": "required_amount",
          "type": "uint256"
        }
      ],
      "name": "InsufficientBalance",
      "type": "error"
    },
    {
      "inputs": [
        {
          "internalType": "uint256",
          "name": "amount",
          "type": "uint256"
        }
      ],
      "name": "RequiredAmountCollected",
      "type": "error"
    },
    {
      "inputs": [
        {
          "internalType": "uint256",
          "name": "current_contribution",
          "type": "uint256"
        },
        {
          "internalType": "uint256",
          "name": "required_contribution",
          "type": "uint256"
        }
      ],
      "name": "TooLessContribution",
      "type": "error"
    },
    {
      "inputs": [
        {
          "internalType": "uint8",
          "name": "current_project_count",
          "type": "uint8"
        }
      ],
      "name": "TooMuchProjectRequest",
      "type": "error"
    },
    {
      "anonymous": false,
      "inputs": [
        {
          "indexed": true,
          "internalType": "uint256",
          "name": "id",
          "type": "uint256"
        },
        {
          "indexed": true,
          "internalType": "address",
          "name": "owner",
          "type": "address"
        },
        {
          "indexed": false,
          "internalType": "string",
          "name": "title",
          "type": "string"
        }
      ],
      "name": "Created_Project",
      "type": "event"
    },
    {
      "anonymous": false,
      "inputs": [
        {
          "indexed": true,
          "internalType": "uint8",
          "name": "id",
          "type": "uint8"
        },
        {
          "indexed": true,
          "internalType": "address",
          "name": "owner",
          "type": "address"
        },
        {
          "indexed": false,
          "internalType": "string",
          "name": "title",
          "type": "string"
        }
      ],
      "name": "Created_Request",
      "type": "event"
    },
    {
      "anonymous": false,
      "inputs": [
        {
          "indexed": true,
          "internalType": "uint256",
          "name": "id",
          "type": "uint256"
        },
        {
          "indexed": true,
          "internalType": "address",
          "name": "from",
          "type": "address"
        },
        {
          "indexed": false,
          "internalType": "uint256",
          "name": "value",
          "type": "uint256"
        }
      ],
      "name": "Supported_Project",
      "type": "event"
    },
    {
      "inputs": [],
      "name": "admin",
      "outputs": [
        {
          "internalType": "address",
          "name": "",
          "type": "address"
        }
      ],
      "stateMutability": "view",
      "type": "function"
    },
    {
      "inputs": [
        {
          "internalType": "address",
          "name": "",
          "type": "address"
        }
      ],
      "name": "project_count",
      "outputs": [
        {
          "internalType": "uint8",
          "name": "",
          "type": "uint8"
        }
      ],
      "stateMutability": "view",
      "type": "function"
    },
    {
      "inputs": [
        {
          "internalType": "address",
          "name": "",
          "type": "address"
        },
        {
          "internalType": "uint256",
          "name": "",
          "type": "uint256"
        }
      ],
      "name": "project_mapping",
      "outputs": [
        {
          "internalType": "uint256",
          "name": "",
          "type": "uint256"
        }
      ],
      "stateMutability": "view",
      "type": "function"
    },
    {
      "inputs": [
        {
          "internalType": "uint256",
          "name": "",
          "type": "uint256"
        }
      ],
      "name": "projects",
      "outputs": [
        {
          "internalType": "address",
          "name": "project_owner",
          "type": "address"
        },
        {
          "internalType": "string",
          "name": "description",
          "type": "string"
        },
        {
          "internalType": "string",
          "name": "title",
          "type": "string"
        },
        {
          "internalType": "bool",
          "name": "is_complete",
          "type": "bool"
        },
        {
          "internalType": "uint256",
          "name": "minimum_contribution",
          "type": "uint256"
        },
        {
          "internalType": "uint256",
          "name": "sponsors_count",
          "type": "uint256"
        },
        {
          "internalType": "uint256",
          "name": "id",
          "type": "uint256"
        },
        {
          "internalType": "uint8",
          "name": "request_count",
          "type": "uint8"
        },
        {
          "internalType": "uint256",
          "name": "total_required_amount",
          "type": "uint256"
        },
        {
          "internalType": "uint256",
          "name": "current_amount",
          "type": "uint256"
        },
        {
          "internalType": "uint8",
          "name": "unsolved_request",
          "type": "uint8"
        }
      ],
      "stateMutability": "view",
      "type": "function"
    },
    {
      "inputs": [
        {
          "internalType": "string",
          "name": "_title",
          "type": "string"
        },
        {
          "internalType": "string",
          "name": "_description",
          "type": "string"
        },
        {
          "internalType": "uint256",
          "name": "_minimum_contribution",
          "type": "uint256"
        }
      ],
      "name": "create_project",
      "outputs": [
        {
          "internalType": "bool",
          "name": "success",
          "type": "bool"
        }
      ],
      "stateMutability": "nonpayable",
      "type": "function"
    },
    {
      "inputs": [
        {
          "internalType": "uint256",
          "name": "_id",
          "type": "uint256"
        },
        {
          "internalType": "string",
          "name": "_description",
          "type": "string"
        },
        {
          "internalType": "string",
          "name": "_title",
          "type": "string"
        },
        {
          "internalType": "address payable",
          "name": "_buyer",
          "type": "address"
        },
        {
          "internalType": "uint256",
          "name": "_value",
          "type": "uint256"
        }
      ],
      "name": "create_request",
      "outputs": [
        {
          "internalType": "bool",
          "name": "success",
          "type": "bool"
        }
      ],
      "stateMutability": "nonpayable",
      "type": "function"
    },
    {
      "inputs": [
        {
          "internalType": "uint256",
          "name": "procect_id",
          "type": "uint256"
        }
      ],
      "name": "support_project",
      "outputs": [
        {
          "internalType": "bool",
          "name": "success",
          "type": "bool"
        }
      ],
      "stateMutability": "payable",
      "type": "function"
    },
    {
      "inputs": [
        {
          "internalType": "uint256",
          "name": "_project_id",
          "type": "uint256"
        },
        {
          "internalType": "uint8",
          "name": "_request_id",
          "type": "uint8"
        }
      ],
      "name": "approve_request",
      "outputs": [
        {
          "internalType": "bool",
          "name": "success",
          "type": "bool"
        }
      ],
      "stateMutability": "nonpayable",
      "type": "function"
    },
    {
      "inputs": [
        {
          "internalType": "uint256",
          "name": "_project_id",
          "type": "uint256"
        },
        {
          "internalType": "uint8",
          "name": "_request_id",
          "type": "uint8"
        }
      ],
      "name": "finalize_request",
      "outputs": [
        {
          "internalType": "bool",
          "name": "success",
          "type": "bool"
        }
      ],
      "stateMutability": "nonpayable",
      "type": "function"
    },
    {
      "inputs": [
        {
          "internalType": "uint256",
          "name": "_project_id",
          "type": "uint256"
        }
      ],
      "name": "finalize_project",
      "outputs": [
        {
          "internalType": "bool",
          "name": "success",
          "type": "bool"
        }
      ],
      "stateMutability": "nonpayable",
      "type": "function"
    },
    {
      "inputs": [],
      "name": "returnProject",
      "outputs": [
        {
          "internalType": "uint256[]",
          "name": "",
          "type": "uint256[]"
        }
      ],
      "stateMutability": "view",
      "type": "function"
    },
    {
      "inputs": [
        {
          "internalType": "address",
          "name": "_sponsor",
          "type": "address"
        },
        {
          "internalType": "uint256",
          "name": "_procect_id",
          "type": "uint256"
        }
      ],
      "name": "supponsor_check",
      "outputs": [
        {
          "internalType": "bool",
          "name": "status",
          "type": "bool"
        }
      ],
      "stateMutability": "view",
      "type": "function"
    },
    {
      "inputs": [
        {
          "internalType": "address",
          "name": "_sponsor",
          "type": "address"
        },
        {
          "internalType": "uint256",
          "name": "_procect_id",
          "type": "uint256"
        }
      ],
      "name": "return_sponsor_value",
      "outputs": [
        {
          "internalType": "uint256",
          "name": "",
          "type": "uint256"
        }
      ],
      "stateMutability": "view",
      "type": "function"
    }
  ],
  "bytecode": "0x608060405234801561001057600080fd5b50600080546001600160a01b031916331781556001556115f7806100356000396000f3fe6080604052600436106100c25760003560e01c80636d738c411161007f578063c835a09f11610059578063c835a09f14610238578063eb695e1514610258578063f851a44014610278578063ff5f03ca146102b057600080fd5b80636d738c41146101d65780638992fa12146101f65780639bf2c77d1461021657600080fd5b80630e8e2325146100c7578063107046bd146100fc5780633e3ec9d0146101335780634a43694c146101465780635aa792591461016657806361fec92c14610194575b600080fd5b3480156100d357600080fd5b506100e76100e2366004610fce565b6102d0565b60405190151581526020015b60405180910390f35b34801561010857600080fd5b5061011c610117366004611004565b610484565b6040516100f39b9a99989796959493929190611063565b6100e7610141366004611004565b610611565b34801561015257600080fd5b506100e7610161366004611004565b6107ad565b34801561017257600080fd5b506101866101813660046110fe565b61086f565b6040519081526020016100f3565b3480156101a057600080fd5b506101c46101af36600461112a565b60036020526000908152604090205460ff1681565b60405160ff90911681526020016100f3565b3480156101e257600080fd5b506101866101f13660046110fe565b6108a0565b34801561020257600080fd5b506100e76102113660046111f1565b6108e7565b34801561022257600080fd5b5061022b610acb565b6040516100f3919061125e565b34801561024457600080fd5b506100e76102533660046112a2565b610b2c565b34801561026457600080fd5b506100e76102733660046110fe565b610d76565b34801561028457600080fd5b50600054610298906001600160a01b031681565b6040516001600160a01b0390911681526020016100f3565b3480156102bc57600080fd5b506100e76102cb366004610fce565b610dc4565b60008282600282815481106102e7576102e761132a565b90600052602060002090600d0201600c018160ff168154811061030c5761030c61132a565b600091825260209091206005600890920201015460ff161561032d57600080fd5b600092506000600286815481106103465761034661132a565b90600052602060002090600d02019050600081600c018660ff16815481106103705761037061132a565b60009182526020808320338452600586019091526040832054600890920201925090036103e45760405162461bcd60e51b815260206004820152601860248201527f4f6e6c7920617070726f7665207468652073706f6e736f72000000000000000060448201526064015b60405180910390fd5b33600090815260078201602052604090205460ff16156104465760405162461bcd60e51b815260206004820181905260248201527f4f6e6c7920617070726f7665206f6e636520666f7220616e207265717565737460448201526064016103db565b3360009081526007820160205260408120805460ff191660011790556004820180549161047283611356565b90915550600198975050505050505050565b6002818154811061049457600080fd5b60009182526020909120600d9091020180546001820180546001600160a01b039092169350906104c39061136f565b80601f01602080910402602001604051908101604052809291908181526020018280546104ef9061136f565b801561053c5780601f106105115761010080835404028352916020019161053c565b820191906000526020600020905b81548152906001019060200180831161051f57829003601f168201915b5050505050908060020180546105519061136f565b80601f016020809104026020016040519081016040528092919081815260200182805461057d9061136f565b80156105ca5780601f1061059f576101008083540402835291602001916105ca565b820191906000526020600020905b8154815290600101906020018083116105ad57829003601f168201915b505050600384015460048501546006860154600787015460088801546009890154600a8a0154600b909a0154989960ff96871699959850939650919490811693919291168b565b600081600281815481106106275761062761132a565b600091825260209091206003600d90920201015460ff161561064857600080fd5b600091506000600284815481106106615761066161132a565b90600052602060002090600d020190506000816009015482600a0154106106a35781600a0154604051636086231560e11b81526004016103db91815260200190565b81600a015482600901546106b791906113a3565b90508160040154811180156106cf5750348260040154115b156106fc57600480830154604051632c95503360e11b8152349281019290925260248201526044016103db565b336000908152600583016020526040812054900361072c5760068201805490600061072683611356565b91905055505b3360009081526005830160205260408120805434929061074d9084906113b6565b925050819055503482600a01600082825461076891906113b6565b9091555050604051348152339086907fd6a39cc93b60de38e5664ab11e72104f39804cdf902da5993541933e767eabfa9060200160405180910390a350505b50919050565b600081600281815481106107c3576107c361132a565b600091825260209091206003600d90920201015460ff16156107e457600080fd5b600091506000600284815481106107fd576107fd61132a565b60009182526020909120600d9091020180549091506001600160a01b0316331461082657600080fd5b600b81015460ff161561083857600080fd5b600a8101541561084757600080fd5b60098101541561085657600080fd5b600301805460ff19166001908117909155915050919050565b6004602052816000526040600020818154811061088b57600080fd5b90600052602060002001600091509150505481565b6000600282815481106108b5576108b561132a565b600091825260208083206001600160a01b03871684526005600d90930201919091019052604090205490505b92915050565b33600090815260036020526040812054600560ff9091161061093357336000908152600360205260409081902054905163571b555b60e11b815260ff90911660048201526024016103db565b60028054600181018255600091909152600d027f405787fa12a823e0f2b7631cc41b3ba8828b3321ca811111fa75cd3aa3bb5ace810180546001600160a01b03191633178155907f405787fa12a823e0f2b7631cc41b3ba8828b3321ca811111fa75cd3aa3bb5ad0016109a68682611418565b50600181016109b58582611418565b506001805460078301908155600480840186905560088401805460ff1990811690915560006006860181905560098601819055600a8601819055600b86018054831690556003860180549092169091553381526020918252604080822085548154968701825590835292909120909301558254905491516001600160a01b0390911691907fba8757d57892e38f2a4fc5bb45dd139b992e4912cff281e9d57610064406c5a690610a699060028601906114d8565b60405180910390a3336000908152600360205260408120805460ff1691610a8f83611563565b91906101000a81548160ff021916908360ff1602179055505060016000815480929190610abb90611356565b9091555060019695505050505050565b33600090815260046020908152604091829020805483518184028101840190945280845260609392830182828015610b2257602002820191906000526020600020905b815481526020019060010190808311610b0e575b5050505050905090565b60008560028181548110610b4257610b4261132a565b600091825260209091206003600d90920201015460ff1615610b6357600080fd5b60009150600060028881548110610b7c57610b7c61132a565b60009182526020909120600d9091020180549091506001600160a01b03163314610bf95760405162461bcd60e51b815260206004820152602860248201527f4f6e6c792070726f6a656374206f776e65722063616e2063726561746520616e604482015267081c995c5d595cdd60c21b60648201526084016103db565b600b810154600560ff90911610610c2e57600b81015460405163571b555b60e11b815260ff90911660048201526024016103db565b600c810180546001818101835560009283526020909220600890910201908101610c588882611418565b5060028101610c678982611418565b506003810180546001600160a01b0319166001600160a01b0388161790556008820154815460ff90911660ff199182168117835560058301805490921690915560068201869055600060048301556040513391907feff2fb3872a1b9ca78b62f8ea0968e70a2dfd8cf70d5788ae6462a5e52c86dfc90610ceb9060018601906114d8565b60405180910390a360088201805460ff16906000610d0883611563565b82546101009290920a60ff818102199093169183160217909155600b8401805490911691506000610d3883611563565b91906101000a81548160ff021916908360ff1602179055505084826009016000828254610d6591906113b6565b909155505050505095945050505050565b60008060028381548110610d8c57610d8c61132a565b600091825260208083206001600160a01b03881684526005600d90930201919091019052604090205411156108e15750600192915050565b6000828260028281548110610ddb57610ddb61132a565b90600052602060002090600d0201600c018160ff1681548110610e0057610e0061132a565b600091825260209091206005600890920201015460ff1615610e2157600080fd5b60009250600060028681548110610e3a57610e3a61132a565b90600052602060002090600d02019050600081600c018660ff1681548110610e6457610e6461132a565b60009182526020909120835460089092020191506001600160a01b03163314610e8c57600080fd5b60028260060154610e9d9190611582565b816004015411610eac57600080fd5b600581015460ff1615610ebe57600080fd5b806006015482600a01541015610efa57600a820154600682015460405163cf47918160e01b8152600481019290925260248201526044016103db565b600381015460068201546040516001600160a01b039092169181156108fc0291906000818181858888f19350505050158015610f3a573d6000803e3d6000fd5b50806006015482600a016000828254610f5391906113a3565b90915550506006810154600983018054600090610f719084906113a3565b909155505060058101805460ff19166001179055600b82015460ff1615610fc157600b8201805460ff16906000610fa7836115a4565b91906101000a81548160ff021916908360ff160217905550505b5060019695505050505050565b60008060408385031215610fe157600080fd5b82359150602083013560ff81168114610ff957600080fd5b809150509250929050565b60006020828403121561101657600080fd5b5035919050565b6000815180845260005b8181101561104357602081850181015186830182015201611027565b506000602082860101526020601f19601f83011685010191505092915050565b6001600160a01b038c168152610160602082018190526000906110888382018e61101d565b9050828103604084015261109c818d61101d565b9a151560608401525050608081019790975260a087019590955260c086019390935260ff91821660e086015261010085015261012084019190915216610140909101529392505050565b6001600160a01b03811681146110fb57600080fd5b50565b6000806040838503121561111157600080fd5b823561111c816110e6565b946020939093013593505050565b60006020828403121561113c57600080fd5b8135611147816110e6565b9392505050565b634e487b7160e01b600052604160045260246000fd5b600082601f83011261117557600080fd5b813567ffffffffffffffff808211156111905761119061114e565b604051601f8301601f19908116603f011681019082821181831017156111b8576111b861114e565b816040528381528660208588010111156111d157600080fd5b836020870160208301376000602085830101528094505050505092915050565b60008060006060848603121561120657600080fd5b833567ffffffffffffffff8082111561121e57600080fd5b61122a87838801611164565b9450602086013591508082111561124057600080fd5b5061124d86828701611164565b925050604084013590509250925092565b6020808252825182820181905260009190848201906040850190845b818110156112965783518352928401929184019160010161127a565b50909695505050505050565b600080600080600060a086880312156112ba57600080fd5b85359450602086013567ffffffffffffffff808211156112d957600080fd5b6112e589838a01611164565b955060408801359150808211156112fb57600080fd5b5061130888828901611164565b9350506060860135611319816110e6565b949793965091946080013592915050565b634e487b7160e01b600052603260045260246000fd5b634e487b7160e01b600052601160045260246000fd5b60006001820161136857611368611340565b5060010190565b600181811c9082168061138357607f821691505b6020821081036107a757634e487b7160e01b600052602260045260246000fd5b818103818111156108e1576108e1611340565b808201808211156108e1576108e1611340565b601f82111561141357600081815260208120601f850160051c810160208610156113f05750805b601f850160051c820191505b8181101561140f578281556001016113fc565b5050505b505050565b815167ffffffffffffffff8111156114325761143261114e565b61144681611440845461136f565b846113c9565b602080601f83116001811461147b57600084156114635750858301515b600019600386901b1c1916600185901b17855561140f565b600085815260208120601f198616915b828110156114aa5788860151825594840194600190910190840161148b565b50858210156114c85787850151600019600388901b60f8161c191681555b5050505050600190811b01905550565b60006020808352600084546114ec8161136f565b8084870152604060018084166000811461150d576001811461152757611555565b60ff1985168984015283151560051b890183019550611555565b896000528660002060005b8581101561154d5781548b8201860152908301908801611532565b8a0184019650505b509398975050505050505050565b600060ff821660ff810361157957611579611340565b60010192915050565b60008261159f57634e487b7160e01b600052601260045260246000fd5b500490565b600060ff8216806115b7576115b7611340565b600019019291505056fea264697066735822122044332ef1510ee44b0c72f17ec9dd635fb47205ef7d534484434fdf260c7da60264736f6c63430008120033",
  "immutableReferences": {},
  "source": "//SPDX-License-Identifier: MIT\r\n\r\npragma solidity 0.8.18;\r\n\r\n\r\ncontract FundMe{\r\n\r\n    address public admin;\r\n    uint8 private constant MAX_UNSOLVED_REQUEST = 5;\r\n    uint8 private constant MAX_PROJECT = 5;\r\n    uint256 private Project_ID_Count;\r\n    uint256 private constant DECIMAL = 10^18;\r\n    \r\n    // Request struct project owner can create MAX_UNSOLVED_REQUEST unsolved request\r\n    struct Request {\r\n        uint8 request_id;\r\n        string title;\r\n        string description;\r\n        address payable buyer;\r\n        uint256 approval_vote_count;\r\n        bool is_complete;\r\n        uint256 value;\r\n        mapping(address => bool) approvals;\r\n    }\r\n\r\n    // Projects Struct user can create MAX_PROJECT unsolved procect\r\n    struct Project{\r\n        address project_owner;\r\n        string description;\r\n        string title;\r\n        bool is_complete;\r\n        uint256 minimum_contribution;\r\n        mapping(address => uint256) sponsors;\r\n        uint256 sponsors_count;\r\n        uint256 id;\r\n        uint8 request_count;\r\n        uint256 total_required_amount;\r\n        uint256 current_amount;\r\n        uint8 unsolved_request;\r\n        Request[] requests;\r\n    }\r\n\r\n     Project[] public projects;\r\n     mapping(address => uint8) public project_count;\r\n     mapping(address => uint256[]) public project_mapping;\r\n     \r\n     // Events\r\n     event Created_Project(uint256 indexed id, address indexed owner, string title);\r\n     event Created_Request(uint8 indexed id, address indexed owner,string title);\r\n     event Supported_Project(uint256 indexed id, address indexed from, uint256 value);\r\n     \r\n    // Custrom Errors\r\n    error TooMuchProjectRequest(uint8 current_project_count);\r\n    error TooLessContribution(uint256 current_contribution, uint256 required_contribution);\r\n    error RequiredAmountCollected(uint amount);\r\n    error InsufficientBalance(uint256 current_amount, uint256 required_amount);\r\n\r\n    constructor() {\r\n        admin = msg.sender;\r\n        Project_ID_Count = 0;\r\n    }\r\n\r\n    modifier only_admin_call(){\r\n        require(msg.sender == admin);\r\n        _;\r\n    }\r\n\r\n    modifier project_check(uint256 project_id){\r\n        require(!projects[project_id].is_complete);\r\n        _;\r\n    }\r\n\r\n    modifier request_check(uint256 project_id, uint8 request_id)  {\r\n        require(!projects[project_id].requests[request_id].is_complete);\r\n        _;\r\n    }\r\n    \r\n    function create_project(string memory _title, string memory _description, uint256 _minimum_contribution) public returns(bool success){\r\n        \r\n        // initialize the process\r\n        success = false;    \r\n\r\n        // Check project count (only create MAX_PROJECT)\r\n        if(project_count[msg.sender] >= MAX_PROJECT){\r\n               revert TooMuchProjectRequest({\r\n                current_project_count: project_count[msg.sender]\r\n            });\r\n        }\r\n\r\n        // create project\r\n        Project storage project = projects.push();\r\n        project.project_owner = msg.sender;\r\n        project.title = _title;\r\n        project.description = _description;\r\n        project.id = Project_ID_Count;\r\n        project.minimum_contribution = _minimum_contribution;\r\n        project.request_count = 0;\r\n        project.sponsors_count = 0;\r\n        project.total_required_amount = 0;\r\n        project.current_amount = 0;\r\n        project.unsolved_request = 0;\r\n        project.is_complete = false;\r\n\r\n        // track projects via address\r\n        project_mapping[msg.sender].push(Project_ID_Count);\r\n\r\n        // Emit event\r\n        emit Created_Project(\r\n            project.id,\r\n            project.project_owner,\r\n            project.title\r\n        );\r\n\r\n        // increase counters\r\n        project_count[msg.sender]++;\r\n        Project_ID_Count++;\r\n\r\n        // finilize the process\r\n        success = true;\r\n        return success;         \r\n    }\r\n\r\n    function create_request(uint256 _id, string memory _description, string memory _title, address payable _buyer, uint256 _value) project_check(_id) public returns(bool success){\r\n        \r\n        // Initialize process\r\n        success = false;\r\n\r\n        // Create project instance for gas save\r\n        Project storage projectIntance = projects[_id];\r\n        \r\n\r\n        // only project owner can call \r\n        require(msg.sender == projectIntance.project_owner, \"Only project owner can create an request\");\r\n\r\n        // Check unsolved request\r\n        if(projectIntance.unsolved_request >= MAX_UNSOLVED_REQUEST){\r\n               revert TooMuchProjectRequest({\r\n                current_project_count: projectIntance.unsolved_request\r\n            });\r\n        }\r\n\r\n        // Create Request\r\n        Request storage request = projectIntance.requests.push();\r\n        request.title = _title;\r\n        request.description = _description;\r\n        request.buyer = _buyer;\r\n        request.request_id = projectIntance.request_count;\r\n        request.is_complete = false;\r\n        request.value = _value;\r\n        request.approval_vote_count = 0;\r\n\r\n        // Emit event\r\n        emit Created_Request(request.request_id, msg.sender, request.title);\r\n\r\n        // increase counter\r\n        projectIntance.request_count++;\r\n        projectIntance.unsolved_request++;\r\n        projectIntance.total_required_amount += _value;\r\n\r\n        return success;\r\n    }\r\n\r\n    // support project \r\n    function support_project(uint256 procect_id) project_check(procect_id) public payable returns(bool success){\r\n        \r\n        // Initialize process\r\n        success = false;\r\n\r\n        // Create project instance\r\n        Project storage projectInstance = projects[procect_id];\r\n\r\n        // check required balance\r\n        uint256 required_balance;\r\n\r\n        // Check required amount is collected\r\n        if(projectInstance.current_amount >= projectInstance.total_required_amount){\r\n                revert RequiredAmountCollected({\r\n                amount: projectInstance.current_amount\r\n            });\r\n        }\r\n        else{\r\n            required_balance = projectInstance.total_required_amount - projectInstance.current_amount;\r\n        }\r\n\r\n        // check minimum contrubition\r\n        if( required_balance > projectInstance.minimum_contribution && projectInstance.minimum_contribution > msg.value){\r\n            revert TooLessContribution({\r\n                current_contribution: msg.value,\r\n                required_contribution: projectInstance.minimum_contribution\r\n            });\r\n        }\r\n\r\n        if(projectInstance.sponsors[msg.sender] == 0){\r\n            // increase the counter\r\n            projectInstance.sponsors_count++;\r\n        }\r\n\r\n        // add sponsor\r\n        projectInstance.sponsors[msg.sender] += msg.value;\r\n        projectInstance.current_amount += msg.value;\r\n\r\n        // Emit Event\r\n        emit Supported_Project(procect_id, msg.sender, msg.value);\r\n\r\n        return success;\r\n    }\r\n\r\n    // vote request\r\n    function approve_request(uint256 _project_id, uint8 _request_id) request_check(_project_id,_request_id) public returns(bool success){\r\n        \r\n        // initalize process\r\n        success = false;\r\n        \r\n        // get project and request\r\n        Project storage projectInstance = projects[_project_id];\r\n        Request storage requestInstance = projectInstance.requests[_request_id];\r\n\r\n\r\n        // check is the approver funder\r\n        if(projectInstance.sponsors[msg.sender] == 0){\r\n            revert(\"Only approve the sponsor\");\r\n        } \r\n\r\n        // check only vote once\r\n        if(requestInstance.approvals[msg.sender]){\r\n            revert(\"Only approve once for an request\");\r\n        }\r\n\r\n        // assign approvals\r\n        requestInstance.approvals[msg.sender] = true;\r\n        requestInstance.approval_vote_count++;\r\n\r\n        success = true;\r\n\r\n        return success;\r\n    }\r\n\r\n    // finalize request\r\n    function finalize_request(uint256 _project_id, uint8 _request_id) request_check(_project_id,_request_id) public returns(bool success){\r\n\r\n        success = false;\r\n        // get project and request\r\n        Project storage projectInstance = projects[_project_id];\r\n        Request storage requestInstance = projectInstance.requests[_request_id];\r\n\r\n        // only project owner can finilize the request\r\n        require(msg.sender == projectInstance.project_owner);\r\n\r\n        // check the vote\r\n        require(requestInstance.approval_vote_count > (projectInstance.sponsors_count / 2));\r\n        require(!requestInstance.is_complete);\r\n\r\n        // check balance\r\n        if(projectInstance.current_amount < requestInstance.value){\r\n              revert InsufficientBalance({\r\n                current_amount: projectInstance.current_amount,\r\n                required_amount: requestInstance.value\r\n            });\r\n        }\r\n\r\n        // send money to buyer\r\n         payable(requestInstance.buyer).transfer(requestInstance.value);\r\n\r\n        // reduce current amount & total required amount\r\n        projectInstance.current_amount -= requestInstance.value;\r\n        projectInstance.total_required_amount -= requestInstance.value;\r\n\r\n        requestInstance.is_complete = true;\r\n        if(projectInstance.unsolved_request > 0){\r\n            projectInstance.unsolved_request--;\r\n        }\r\n\r\n        success = true;\r\n        return success;\r\n    }   \r\n\r\n    // finalize  project\r\n    function finalize_project(uint256 _project_id) project_check(_project_id) public returns (bool success) {\r\n\r\n        success = false;\r\n        Project storage projectInstance = projects[_project_id];\r\n\r\n        // only owner can call this function\r\n        require(msg.sender == projectInstance.project_owner);\r\n\r\n        // require all request are done\r\n        require(projectInstance.unsolved_request == 0);\r\n\r\n        // require all amount spent\r\n        require(projectInstance.current_amount == 0);\r\n\r\n        // require total required amount must be zero\r\n        require(projectInstance.total_required_amount == 0);\r\n\r\n        // mark project as is completed\r\n        projectInstance.is_complete = true;\r\n\r\n\r\n        success = true;\r\n        return success;\r\n\r\n    }\r\n\r\n\r\n    // max return size 5\r\n    function returnProject() public view returns(uint256[] memory){\r\n        return project_mapping[msg.sender];\r\n    }\r\n\r\n    function supponsor_check(address _sponsor, uint256 _procect_id) public view returns(bool status) {\r\n\r\n        status = false;\r\n        if(projects[_procect_id].sponsors[_sponsor] > 0){\r\n            status = true;\r\n        }\r\n        return status;\r\n    }\r\n\r\n    function return_sponsor_value(address _sponsor, uint256 _procect_id) public view returns(uint256) {\r\n        return projects[_procect_id].sponsors[_sponsor];\r\n    }\r\n\r\n\r\n    // safe maths functions     \r\n    function mul(uint256 a, uint256 b) internal pure returns (uint256 c) {\r\n        if (a == 0) {\r\n        return 0;\r\n        }\r\n        c = a * b;\r\n        assert(c / a == b);\r\n        return c;\r\n    }\r\n\r\n    function div(uint256 a, uint256 b) internal pure returns (uint256) {\r\n        return div(a, b, \"SafeMath: division by zero\");\r\n    }\r\n\r\n    function div(uint256 a, uint256 b, string memory errorMessage) internal pure returns (uint256) {\r\n        // Solidity only automatically asserts when dividing by 0\r\n        require(b > 0, errorMessage);\r\n        uint256 c = a / b;\r\n        // assert(a == b * c + a % b); // There is no case in which this doesn't hold\r\n\r\n        return c;\r\n    }\r\n\r\n\r\n}",
  "sourcePath": "C:\\Users\\aliih\\Desktop\\ihsan\\BlockChain\\portfolio\\CrowdFundMe\\smart_contracts\\contracts\\FundMe.sol",
  "compiler": {
    "name": "solc",
    "version": "0.8.18+commit.87f61d96.Emscripten.clang"
  },
  "schemaVersion": "3.4.16",
  "updatedAt": "2023-10-08T20:30:17.032Z",
  "devdoc": {
    "kind": "dev",
    "methods": {},
    "version": 1
  },
  "userdoc": {
    "kind": "user",
    "methods": {},
    "version": 1
  }
}