{
  "contractName": "FundMe",
  "abi": [
    {
      "inputs": [],
      "stateMutability": "nonpayable",
      "type": "constructor"
    },
    {
      "inputs": [],
      "name": "admin",
      "outputs": [
        {
          "internalType": "address",
          "name": "",
          "type": "address"
        }
      ],
      "stateMutability": "view",
      "type": "function",
      "constant": true
    }
  ],
  "bytecode": "0x6080604052348015600f57600080fd5b5060918061001e6000396000f3fe6080604052348015600f57600080fd5b506004361060285760003560e01c8063f851a44014602d575b600080fd5b600054603f906001600160a01b031681565b6040516001600160a01b03909116815260200160405180910390f3fea2646970667358221220f02a1a5fc3e961baafd5168a4ce5151308cf4c8a00e426b6e40aa2d4bd77cb3164736f6c63430008120033",
  "immutableReferences": {},
  "source": "// SPDX-License-Idetifier: MIT\r\n\r\npragma solidity 0.8.18;\r\n\r\n\r\ncontract FundMe{\r\n\r\n    address public admin;\r\n\r\n    constructor() {\r\n\r\n    }\r\n}",
  "sourcePath": "C:\\Users\\aliih\\Desktop\\ihsan\\BlockChain\\portfolio\\CrowdFundMe\\smart_contracts\\contracts\\~FundMe.sol",
  "compiler": {
    "name": "solc",
    "version": "0.8.18+commit.87f61d96.Emscripten.clang"
  },
  "schemaVersion": "3.4.16",
  "updatedAt": "2023-09-24T09:43:46.158Z",
  "networkType": "ethereum",
  "devdoc": {
    "kind": "dev",
    "methods": {},
    "version": 1
  },
  "userdoc": {
    "kind": "user",
    "methods": {},
    "version": 1
  }
}